:1000000080319E2B00000B0091340934F734033407
:100010000B34033490340234423402340B3402344F
:10002000E1340134BF340134A43401348D3401345B
:100030007A340134693401345A3401344D34013492
:1000400042340134373401342E3401342534013440
:100050001D340134153401340F34013408340134B3
:1000600002340134FD340034F7340034F334003406
:10007000EE340034EA340034E5340034E234003441
:10008000DE340034DA340034D7340034D43400346D
:10009000D1340034CE340034CB340034C83400348E
:1000A000C5340034C3340034C0340034BE340034AA
:1000B000BC340034BA340034B8340034B6340034BC
:1000C000B4340034B2340034B0340034AE340034CC
:1000D000AC340034AB340034A9340034A7340034D9
:1000E000A6340034A4340034A3340034A2340034E1
:1000F000A03400349F3400349D3400349C340034E8
:100100009B3400349A3400349834003497340034EB
:1001100096340034953400349434003493340034ED
:100120009234003491340034903400348F340034ED
:100130008E3400348D3400348C3400348B340034ED
:100140008A340034893400348834003487340034ED
:1001500086340034853400348434003483340034ED
:100160008234003481340034803400347F340034ED
:100170007E3400347D3400347C3400347B340034ED
:100180007A340034793400347834003477340034ED
:1001900076340034753400347434003473340034ED
:1001A0007234003471340034703400346F340034ED
:1001B0006E3400346D3400346C3400346B340034ED
:1001C0006A340034693400346834003467340034ED
:1001D00066340034653400346434003420308500E3
:1001E000113084000008031903290530F800F701D5
:1001F000F70BF828F80BF7282E30F700F70BFE283E
:100200000129800BF52808002100951324000D1406
:100210008D1580312000BE2B22001D179D168031C8
:100220002000BF2B2400951215129511151195145D
:10023000151094131417951680312000C02B21003F
:100240000D1122000D1121008C1022008C102100B4
:100250000C1022000C1080312000C12BB108031DAE
:10026000352922008C103729200022008C1421000F
:100270008C1020000800B1012E2121000C12220058
:100280000C1621008C1322008C1721000D11220066
:100290000D150C302000A1001930A200240092019D
:1002A00020002108240091002000911D5529911162
:1002B0002400920120002208240091002000911DBA
:1002C0005F29911121000D1122000D110A3020002B
:1002D000B100EE2021000D1122000D15103020007C
:1002E000A300B730A40024009201200023082400BA
:1002F00091002000911D7A29911124009201200083
:100300002408240091002000911D842991112100CE
:100310000D1122000D110A302000B100EE20210045
:100320000D1122000D1520302000A5007930A60007
:100330002400920120002508240091002000911D36
:100340009F29911124009201200026082400910089
:100350002000911DA929911121000D1122000D11DC
:100360000A302000B100EE2021000D1122000D15F1
:1003700031302000A7009630A80024009201200010
:100380002708240091002000911DC4299111240008
:10039000920120002808240091002000911DCE2900
:1003A000911121000D1122000D110A302000B10021
:1003B000EE2021000D1122000D1545302000A9006E
:1003C0001C30AA002400920120002908240091007A
:1003D0002000911DE92991112400920120002A0892
:1003E000240091002000911DF329911121000D118D
:1003F00022000D110A302000B100EE2021000D1165
:1004000022000D1559302000AB001430AC00240040
:10041000920120002B08240091002000911D0E2A3B
:1004200091112400920120002C082400910020004A
:10043000911D182A911121000D1122000D110A3071
:100440002000B100EE2021000D1122000D156A30B0
:100450002000AD00A030AE002400920120002D0845
:10046000240091002000911D332A91112400920153
:1004700020002E08240091002000911D3D2A91119A
:1004800021000D1122000D110A302000B100EE20D4
:1004900021000D1122000D1570302000AF00B001B9
:1004A0002400920120002F08240091002000911DBB
:1004B000572A911124009201200030082400910055
:1004C0002000911D612A911121000D1122000D11B2
:1004D0000A302000B100EE2021008C1022008C1088
:1004E00064302000B100EE208031C22BA608031931
:1004F0007D2A22000C127F2A200022000C162100E7
:100500000C12200008000330A902031C922A20309C
:1005100085000930840000080319922A902A0000FF
:10052000800B8F2A0800A201A101A401A3012510BC
:1005300021008D1520008D19BF2A21000C152000E7
:100540000C19A92A2518A92AA60176220130A00093
:10055000BE2A21000C1520000C1DBE2A251CBE2A17
:10056000A0080319B72A2008023C031DBA2A033049
:10057000A000BE2A200BBE2A0430A000F52A2100CC
:100580000D1420000D18E72A21008C1520008C196D
:10059000D12A2518D12A0130A60076220130A000E8
:1005A000E62A21008C1520008C1DE62A251CE62A4F
:1005B000A0080319DF2A2008023C031DE22A0330A9
:1005C000A000E62A200BE62A0430A000F52AA008A5
:1005D0000319EE2A2008023C031DF12A0330A00073
:1005E000F52A200BF52A0430A0002008FB3E031852
:1005F0006E2B053E952BA10A0319A20A210B0C2B89
:10060000A208031D0C2B25140130B1002E21093046
:10061000A4009130A300172B2108203C031D172BA9
:100620002208033C031D172BA201A101A0016E2B80
:100630002108743C031D212BA208031D212B02302D
:10064000A0000310210DF900220DFA007908A60080
:10065000790A0320FA0026080320A3007A08A400E0
:10066000A10A0319A20A6E2B01302102A600003054
:10067000223BA7000310260DF900270DFA00790888
:10068000A600790A0320FA0026080320A3007A08AE
:10069000A4006E2B21080319A203A10B542BA2085E
:1006A000031D542B0430A0000310210DF900220D6E
:1006B000FA007908A600790A0320FA002608032028
:1006C000A3007A08A4006E2B251C6D2B2510A40115
:1006D000A301A201A101B1012E216E2B251C922B99
:1006E0004230F700F70B722B000021008C13220020
:1006F0008C13323020002302A6000030243BA700D8
:100700002708A800A80AA80303198A2BFF30A9000C
:100710008322832B2608A900832221008C13220028
:100720008C172000982A8031C32B0A148A140A11CE
:100730008207182BFB2A342B4A2B642B850184015A
:100740001F3083057C302100990004302000A00078
:1007500023008C018D0122009201910194019301EB
:100760000C3021008C00CB308D0002302000A10025
:10077000FA30B100EE20A10BB82B04290C29122964
:080780001F293B29932A6300A5
:020000040001F9
:04000E00440E131277
:00000001FF
;PIC16F1826
;CRC=4353  CREATED="09-Nis-14 11:46"
