:0800000098010400000000005B
:040088006A01000009
:100200003220EF00C3102000008041001040BA00EF
:100210000160EF00000006000A0A00000D4D00001A
:100220004F4400004553000049530000204C00009B
:100230004153000045520000205000004F53000081
:1002400049540000494F00004E4900004E4700004D
:100250002053000059530000544500004D0A00008F
:100260000A0D0000000000003220EF0003142000FF
:10027000008041001040BA000160EF00000006005D
:100280000A0A00000D200000436F000064650000B2
:100290002056000065720000736900006F6E000058
:1002A00020560000322E000030200000426F000077
:1002B0006F7400006C6F00006164000065720000E4
:1002C0002054000065730000740A00000A0D00004D
:1002D000000000004200F8003600F800801F78009F
:1002E000200020000C000900B01F78004C48A80036
:1002F0008700A900A00120000C0009004F10780021
:100300004F0078003600F9004200F9000040060076
:100310000000E0004220AF00040037002B07090076
:10032000000000000000E900F9FF370000000600AF
:1003300081E0A80004002800641088000440200028
:100340007410880024002000A410880004002800F5
:10035000B410880004402000C4108800240020004D
:10036000F41088000008A9000028A9000048A9008E
:100370000068A9000088A90000A8A90004022000C4
:1003800014408800F43F20002440880034322000CC
:10039000344088006404200044408800C4012000E8
:1003A000544088000C28EF00041920007440880095
:1003B000D402200084408800843E200094408800BD
:1003C00024032000A440880044062000B440880094
:1003D00064042000C44088001A28EF0084BB200079
:1003E000E440880084BB2000F440880044062000DC
:1003F000044188000168EF002228EF002428EF0064
:100400002628EF002828EF002A28EF002C28EF00EC
:100410002E28EF003028EF003228EF00D400200013
:10042000A4418800F4002000B44188001401200099
:10043000C441880034012000D441880054012000C8
:10044000E441880074012000F44188008401200008
:1004500004428800A401200014428800843E200049
:10046000244288001400200034428800A4002000A8
:1004700044428800A40020005442880000C8A9001B
:1004800000E8A9004C08A9004C28A9004C48A90084
:100490004C68A9008405200074428800A8A2EF00DF
:1004A0000F782200F07F220020A0B700000000009B
:1004B000C4EF2F0034168800CCA2EF00F4F02F0018
:1004C0009416880004F82F00C4168800C4FF2F007B
:1004D000F4168800F4F32F0024178800D282A900B4
:1004E000D682A900D2A2A900D6A2A900C702A9005B
:1004F000CB02A800401F200088010200000000007D
:100500001922AF00FEFF3700A4002000D41088009D
:100510001922AF00FEFF3700D4002000D41088005D
:10052000E5C3B300F00520001922AF00FEFF37003D
:100530001AE2B7001B62EF000A60ED004220AE0035
:10054000F8FF37001922AF00FEFF3700A40020009B
:10055000D41088001922AF00FEFF3700D40020001D
:10056000D410880001002000010078000001020082
:10057000000000008100E800811F78001922AF0010
:10058000FEFF3700D0108800CF0078005002200016
:100590000008E600F4FF37000100200001007800A9
:1005A00034010200000000008100E800811F780093
:1005B0001922AF00FEFF3700D0108800CF0078006E
:1005C000700220000008E600F4FF3700C702A9000F
:1005D000CB02A800803E200088010200000000003D
:1005E000C702A900CB02A900803E200088010200BA
:1005F00000000000E6020400000000000040FE00D1
:0200000401F009
:100000001FC100003F000000338700000F310000D7
:0C0010000F3300000500000003C00000DA
:00000001FF
;DSPIC30F6015
;CRC=178A  CREATED="05-May-14 09:28"
