:0800000074010400000000007F
:04006800280100006B
:04008800460100002D
:100200003220EF00C3102000008041001040BA00EF
:100210000160EF00000006000A0A00000D42000025
:100220004F4F0000544C00004F4100004445000077
:1002300052200000544500005354000020480000A4
:10024000415A0000495200000A0A00000D00000057
:100250004200F8003600F800801F780020002000DF
:100260000C000900B01F78004E88A8008600A90085
:10027000A00120000C0009004F1078004F0078000A
:100280003600F9004200F900004006004200F80084
:100290003600F800801F7800200020000C000900C4
:1002A000B01F78004E48A8008700A900A0012000D8
:1002B0000C0009004F1078004F0078003600F9005C
:1002C0004200F900004006000000E0004220AF00BC
:1002D000040037002B070900000000000000E900BF
:1002E000F9FF37000000060081E0A80004002800A4
:1002F000B410880004402000C410880024002000AE
:10030000F41088000008A9000028A9000048A900EE
:100310000068A9000088A90000A8A9000402200024
:1003200014408800F43F200024408800343220002C
:10033000344088008403200044408800C401200029
:10034000544088000C28EF000419200074408800F5
:10035000D402200084408800843E2000944088001D
:1003600024032000A440880044062000B4408800F4
:1003700064042000C44088001A28EF0084BB2000D9
:10038000E440880084BB2000F4408800440620003C
:10039000044188000168EF002228EF002428EF00C4
:1003A0002628EF002828EF002A28EF002C28EF004D
:1003B0002E28EF003028EF00441F200094418800D1
:1003C0003428EF00D4002000B4418800F40020005D
:1003D000C441880014012000D44188003401200069
:1003E000E441880054012000F44188007401200099
:1003F000044288008401200014428800A4012000E7
:1004000024428800843E20003442880014002000EA
:1004100044428800A400200054428800A400200028
:100420006442880000C8A90000E8A9004E08A9009D
:100430004E28A9004E48A9004E68A9004E88A90080
:100440008405200084428800A8A2EF000F782200D3
:10045000F07F220020A0B70000000000A4FF2F00C2
:1004600034168800CCA2EF00F4F02F009416880018
:10047000E4F12F00C416880044F92F00F416880018
:1004800074E32F0024178800D282A900D682A90025
:10049000D2A2A900D6A2A900C602A900CA02A80039
:1004A000E4C2A900E8C2A800E4E2A900E8E2A800CA
:1004B000E502A900E902A80004082000241588002C
:1004C000040E280004158800D4FF2F00441588006E
:1004D000A222EF001400200034158800401F2000E5
:1004E00064010200000000001922AF00FEFF370087
:1004F000A4002000D41088001922AF00FEFF3700AE
:10050000D4002000D4108800E5C3B300F00520001B
:100510001922AF00FEFF37001AE2B7001B62EF009E
:100520000A60ED004220AE00F8FF37001922AF004C
:10053000FEFF3700A4002000D41088001922AF006D
:10054000FEFF3700D4002000D410880001002000F6
:100550000100780000010200000000008100E800B6
:10056000811F78001922AF00FEFF3700D0108800ED
:10057000CF007800A00120000008E600F4FF37005B
:10058000C602A900CA02A800803E20006401020041
:1005900000000000C602A900CA02A900803E200097
:1005A0006401020000000000C0020400000000001E
:0405B0000040FE0009
:0200000401F009
:100000001FC100003F000000338700000F310000D7
:0C0010000F3300000500000003C00000DA
:00000001FF
;DSPIC30F6015
;CRC=047C  CREATED="03-May-14 13:49"
