:0600000088310028000019
:0800080083018031200077081C
:10001000A0007808A1007908A2007A08A3008B1E2E
:1000200013280B192328850194308400801E1A2878
:10003000941A25282008F7002108F8002208F90062
:100040002308FA00090080312E288031272821005A
:10005000941271142000941280311A28460821004D
:10006000E000E00803196B282000A60A0319A70A7C
:100070002100600B4B284908200027020318422862
:1000800021004B28031D5E28260821004802031882
:100090004B2820005E286008023C031D6B2847089F
:1000A000200027020318562821006B28031D5E2814
:1000B00026082100460203186B28200021008D101D
:1000C00022008D1021000D1022000D102000A7012C
:1000D000A601C6012100200047082100E000E00839
:1000E0000319A9282000A80A0319A90A2100600BF6
:1000F000892849082000290203188028210089281E
:10010000031D9C2828082100480203188928200084
:100110009C286008023C031DA928470820002902EA
:10012000031894282100A928031D9C2828082100D1
:1001300046020318A928200021008D1122008D11EC
:1001400021000D1122000D112000A901A801C701F5
:100150002100200048082100E000E0080319E728FA
:100160002000AA0A0319AB0A2100600BC72849081E
:1001700020002B020318BE282100C728031DDA28FF
:100180002A08210048020318C7282000DA2860083E
:10019000023C031DE728470820002B020318D22841
:1001A0002100E728031DDA282A0821004602031847
:1001B000E728200021008E1122008E1121000E124E
:1001C00022000E122000AB01AA01C801210020006C
:1001D00049082100E000E008031925292000AC0AA5
:1001E0000319AD0A2100600B0529490820002D02E2
:1001F0000318FC2821000529031D18292C082100BB
:10020000480203180529200018296008023C031D34
:100210002529470820002D0203181029210025292F
:10022000031D18292C082100460203182529200047
:1002300021008E1322008E1321000E1122000E11B8
:100240002000AD01AC01C901210020004A082100B5
:10025000E000E008031963292000AE0A0319AF0A81
:100260002100600B4329490820002F0203183A2976
:1002700021004329031D56292E0821004802031896
:100280004329200056296008023C031D63294708C2
:1002900020002F0203184E2921006329031D56292F
:1002A0002E082100460203186329200021008F1226
:1002B00022008F1221000F1222000F122000AF0126
:1002C000AE01CA01210020004B082100E000E00837
:1002D0000319A1292000B00A0319B10A2100600BFB
:1002E0008129490820003102031878292100812939
:1002F000031D942930082100480203188129200099
:1003000094296008023C031DA129470820003102FE
:1003100003188C292100A129031D942930082100EC
:1003200046020318A129200021008F1322008F13F9
:1003300021000F1322000F132000B101B001CB01E7
:10034000210020004C082100E000E0080319DF290B
:100350002000B20A0319B30A2100600BBF29490823
:10036000200033020318B6292100BF29031DD2291A
:100370003208210048020318BF292000D229600852
:10038000023C031DDF294708200033020318CA2955
:100390002100DF29031DD22932082100460203185B
:1003A000DF29200021008E1022008E1021000E1067
:1003B00022000E102000B301B201CC012100200068
:1003C0004D082100E000E00803191D2A2000B40AAE
:1003D0000319B50A2100600BFD29490820003502E8
:1003E0000318F4292100FD29031D102A34082100D7
:1003F00048020318FD292000102A6008023C031D52
:100400001D2A4708200035020318082A21001D2A4A
:10041000031D102A34082100460203181D2A20005B
:1004200021008C1222008C1221000C1222000C12CE
:100430002000B501B401CD01210020004E082100AB
:10044000E000E00803195B2A2000B60A0319B70A86
:100450002100600B3B2A4908200037020318322A8A
:1004600021003B2A031D4E2A3608210048020318AA
:100470003B2A20004E2A6008023C031D5B2A4708E5
:10048000200037020318462A21005B2A031D4E2A4A
:1004900036082100460203185B2A200021008F1134
:1004A00022008F1121000F1122000F112000B7012F
:1004B000B601CE01210020004F082100E000E00835
:1004C0000319992A2000B80A0319B90A2100600B00
:1004D000792A4908200039020318702A2100792A54
:1004E000031D8C2A3808210048020318792A2000AD
:1004F0008C2A6008023C031D992A47082000390213
:100500000318842A2100992A031D8C2A3808210007
:1005100046020318992A200021008F1022008F1014
:1005200021000F1022000F102000B901B801CF01E7
:100530002100200050082100E000E0080319D72A1C
:100540002000BA0A0319BB0A2100600BB72A490828
:1005500020003B020318AE2A2100B72A031DCA2A35
:100560003A08210048020318B72A2000CA2A600866
:10057000023C031DD72A470820003B020318C22A69
:100580002100D72A031DCA2A3A082100460203186F
:10059000D72A200021008C1122008C1121000C117F
:1005A00022000C112000BB01BA01D0012100200063
:1005B00051082100E000E0080319152B2000BC0AB7
:1005C0000319BD0A2100600BF52A490820003D02ED
:1005D0000318EC2A2100F52A031D082B3C082100F2
:1005E00048020318F52A2000082B6008023C031D6E
:1005F000152B470820003D020318002B2100152B66
:10060000031D082B3C08210046020318152B20006F
:1006100021008C1022008C1021000C1022000C10E4
:100620002000BD01BC01D1012100200052082100A1
:10063000E000E0080319532B2000BE0A0319BF0A8B
:100640002100600B332B490820003F0203182A2B9E
:100650002100332B031D462B3E08210048020318BE
:10066000332B2000462B6008023C031D532B470808
:1006700020003F0203183E2B2100532B031D462B65
:100680003E08210046020318532B2000210090133E
:100690002200901321001013220010132000BF012C
:1006A000BE01D2012100200053082100E000E00833
:1006B0000319912B2000C00A0319C10A2100600B05
:1006C000712B4908200041020318682B2100712B6F
:1006D000031D842B4008210048020318712B2000C1
:1006E000842B6008023C031D912B47082000410227
:1006F00003187C2B2100912B031D842B4008210023
:1007000046020318912B2000210090122200901223
:1007100021001012220010122000C101C001D301DB
:100720002100200054082100E000E0080319CF2B2D
:100730002000C20A0319C30A2100600BAF2B49082D
:10074000200043020318A62B2100AF2B031DC22B50
:100750004208210048020318AF2B2000C22B60087A
:10076000023C031DCF2B4708200043020318BA2B7D
:100770002100CF2B031DC22B420821004602031883
:10078000CF2B200026008C1127008C1126000C1185
:1007900027000C112000C301C201D4012100200058
:1007A00055082100E000E00803190D2C2000C40AC0
:1007B0000319C50A2100600BED2B490820004502F2
:1007C0000318E42B2100ED2B031D002C440821000D
:1007D00048020318ED2B2000002C6008023C031D8A
:1007E0000D2C4708200045020318F82B21000D2C82
:1007F000031D002C44082100460203180D2C200084
:1008000026008C1027008C1026000C1027000C10DE
:100810002000C501C401D50121000B118031200049
:100820001A28D3255310D0346E10C3307232A0165C
:10083000A0216F326510D632F239E9376E10D61822
:10084000AE188A06000026008C17003025008C1B8D
:100850000130F700770D2100CA00CA0DCA0DF8302B
:10086000CA0526000C17003025000C1B0130F700CC
:10087000F70DF70DFC30F70577082100CA072600B1
:100880008C16003025008C1A0130F7000310F70D8C
:1008900077082100CA0726000C16003025000C1A24
:1008A000013021004A07F00088312000A9282100EA
:1008B00059080739F7005A0CF900590CF800F90CDF
:1008C000F80CF90CF80C1F30F90578085C07840067
:1008D00079085D3D8500F801F80AF70A702CF80DDB
:1008E000F70B6F2CDB080319782C780880047B2C1D
:1008F000F8097808800520000800210055080F3C01
:100900000318842C0F30D5005608003A2000031934
:10091000902C023A0319F72C033A03195E2DC42DCB
:1009200003102100550DF7000310F70D7708363E30
:100930008400203085000318850A0008D7000131A3
:100940000008D8003F315808DA005708D900DB0109
:100950000130DD00DC012000572421005808DA00B6
:100960005708D900DB01DD018030DC00200057246E
:1009700003102100550D013EF7000310F70D770815
:10098000363E8400203085000318850A0008D70011
:1009900001310008D8003F315808DA005708D90063
:1009A000DB010130DD00DC01200057242100580864
:1009B000DA005708D900DB01DD018030DC002000BF
:1009C000572403102100550D063E84002030850079
:1009D0000318850A80010131800126305507840003
:1009E000203085000318850A80012000C42D2630A0
:1009F000210055078400203085000318850A8008EF
:100A0000031D5C2D0310550DF7000310F70D77083B
:100A1000363E8400203085000318850A0008D70080
:100A200001310008D8003F315808DA005708D900D2
:100A3000DB010130DD00DC012000572421005808D3
:100A4000DA005708D900DB01DD018030DC0020002E
:100A5000572403102100550D013EF7000310F70D38
:100A60007708363E8400203085000318850A000888
:100A7000D70001310008D8003F315808DA00570884
:100A8000D9000130DB00DD00DC012000572421000B
:100A90005808DA005708D900DB01DD018030DC009E
:100AA000200057242630210055078400203085007F
:100AB0000318850A023080002000C42D2630210052
:100AC00055078400203085000318850A8008031D1F
:100AD000C32D0310550DF7000310F70D7708363EB0
:100AE0008400203085000318850A0008D7000131F2
:100AF0000008D8003F315808DA005708D900013003
:100B0000DB00DD00DC012000572421005808DA005A
:100B10005708D900DB01DD018030DC0020005724BC
:100B200003102100550D013EF7000310F70D770863
:100B3000363E8400203085000318850A0008D7005F
:100B400001310008D8003F315808DA005708D900B1
:100B5000DB010130DD00DC012000572421005808B2
:100B6000DA005708D900DB01DD018030DC0020000D
:100B700057242630210055078400203085000318B3
:100B8000850A01308000200008002100CA014A08BF
:100B90000F3C031CD32D4A08D500D60120007D242C
:100BA0002100CA0AC72D88312000AC288B162100ED
:100BB0001508C03903389500200095018831AF2809
:100BC0000B082100CA008B13230095171514000091
:100BD000000013087F3903192A2E2100CB002300BF
:100BE00011082100CC00230012082100CD004B0881
:100BF0002000141EF92D2900920021004C0823002A
:100C0000910021004D082300920095171514000053
:100C10000000130D140D7F3903192A2E2100CB007B
:100C2000230011082100CC00230012082100CD0070
:100C30004B082000141E1A2E2900920021004C0897
:100C40002300910021004D0823009200910A03190E
:100C5000920AE52D2100CA1B8B1788312000BC2881
:100C6000141E302E29009200200008002100550893
:100C70000739F700550CF800F80CF80C1F30F80590
:100C80007808560784000030573D85000008F800BA
:100C9000F70A4B2EF80CF70B4A2E80312000CC2E91
:100CA000210056080739F700560CF800F80CF80C2C
:100CB0001F30F8057808580784000030593D85003A
:100CC000F801F80AF70A652EF80DF70B642ED7081D
:100CD00003196D2E78088004702EF80978088005B5
:100CE00080312000022F941E732E2900110821004C
:100CF000CA004A08703A20000319852E053A0319E4
:100D0000202F113A03193B2F552F72303026941E95
:100D1000872E290011082100CB00723020003026D8
:100D2000941E902E290011082100CC007230200062
:100D3000302621004B08CE004C08CD004E08D000D4
:100D40004D08CF00D2015208033C031C1E2FD301D3
:100D50005308033C031C052F520DF700F70DFC3020
:100D6000F70577085307D4005008FA004F08F90038
:100D70005408F7000319C02EFA36F90CF70BBC2EF5
:100D80007908D1107918D1145408D5002030D70033
:100D90000430D6002000362E78082100D50000301F
:100DA000D11C0130D6000030551801305602031D09
:100DB000032F263054078400203085000318850A4D
:100DC0008008031D032FD11CED2E5408D5000230DE
:100DD000D60020007D24F32E21005408D5000130D8
:100DE000D60020007D2400302100D1180130D5002C
:100DF0005408D6005508D7002030D9000430D80058
:100E00002000502E2100D30AA82E6430D5002030B7
:100E1000850085308400000803191C2F0530F80078
:100E2000F701F70B112FF80B102F2E30F700F70BEF
:100E3000172F1A2F800B0E2FD20AA32E2000552F0A
:100E400072303026941E222F290011082100CB0079
:100E5000723020003026941E2B2F2900110821000B
:100E6000CC0072302000302621004B08C9004C080D
:100E7000C8002000552F72303026941E3D2F2900C7
:100E800011082100CB00723020003026941E462F1E
:100E9000290011082100CC007230200030262100EA
:0E0EA0004B08C7004C08C60020008831C2284D
:101000007A30210099002900971119309300A630F9
:1010100096009030950002302100C7005830C6007D
:101020000230C9005830C800F00171102F00910142
:101030009201980199019A019B019C019D01230055
:101040008C01900128008C018D01220092019101F8
:10105000732832344034243400341A3480346934F0
:101060000034683400346B3400346A340034733430
:1010700000347434003477340034723400347D34F6
:1010800000347C3400347F3400347E3400347134D6
:10109000003426340034A034703400346534003415
:1010A000643400347B3400347A34003479340034CE
:1010B00078340034633400346234003461340034F2
:1010C000603400348734003486340034853400348E
:1010D000843400346334143462341434613414348A
:1010E00060341434003408308500293084008517BA
:1010F0001200F700003A03198D281200F800F81BBF
:1011000085280F39870012008600781B1200781F8F
:1011100012001E00F70B8728782800306500C030C9
:1011200066000030670021008F009000F03026003C
:101130008C00E4308D000D1227000D1226008D1159
:1011400027008D152100101122001015803120007C
:10115000232C88318031C52D88318031D62D8831BE
:10116000C0308B042100941611302300910004300C
:10117000920080312000E02D8831711CC828711048
:101180008031732E883107089412210094162000B4
:04119000BD28630013
:020000040001F9
:04000E000408FC1EC8
:00000001FF
;PIC16F1946
;CRC=05B6  CREATED="25-Kas-14 18:21"
