:100000008031A228000020308500113084000008D3
:10001000031917280A30F800F701F70B0D28F80B21
:100020000C285F30F700F70B1328800B0A28080014
:1000300083181D2885013A308400F701F801F90181
:10004000FA01BA01BB01BC01BD013908380437040B
:10005000360403195B282030BE000310B20DB30D27
:10006000B40DB50DBA0DBB0DBC0DBD0D39083D026B
:10007000031D442838083C02031D442837083B026E
:10008000031D442836083A02031C55283608BA02D4
:100090003708031C370FBB023808031C380FBC029B
:1000A0003908031C390FBD020314F70DF80DF90DC3
:1000B000FA0DBE0B2D283A0880003B08813F3C0812
:1000C000823F3D08833F8031EA282030BC00B801E0
:1000D000B901BA01BB013308FA003208F90031084E
:1000E000F8003008F7000310771C84283408B8079C
:1000F00035080318350FB90736080318360FBA0745
:1001000037080318370FBB07BB0CBA0CB90CB80C77
:10011000FA0CF90CF80CF70CBC0B73288031FD2895
:100120000230B102031CA128203085001130840068
:1001300000080319A1289F289D289E280000800BF5
:100140009C280800850184011F308305F4302100BC
:10015000990013302000A1008830A000A501A4015F
:100160000130A3009030A200A701A601AB01AA01B3
:10017000A901A80123008C018D01220092019101A7
:1001800094019301243021008C00C6308D008D1124
:1001900022008D1102302000B000FA30B10003209F
:1001A000B00BCD280310200DF900210DFA007908BD
:1001B000B0007A08B1008310B5010F30B4004230AE
:1001C000B3004030B200B901B8017A08B70079082D
:1001D000B60018287808A7007708A600B301B20176
:1001E0000330B1002030B0002508B7002408B60065
:1001F0002308B5002208B40065287A08AB00790806
:10020000AA007808A9007708A80021000C15200092
:100210000C1D382AAF01AE01AD01AC0121008D11DA
:1002200022008D1521008C1122008C112000AF01BD
:10023000AE010730AD00D030AC00AF08031D2D2952
:10024000AE08031D2D2927082D02031C5829031D64
:100250002D292C0826020318582921000D102200F0
:100260000D1420002D08B000B00AB00303193C297A
:10027000FF30B100902035292C08B10090202100DA
:100280000D1022000D1020002D08B000B00AB003A0
:1002900003194E29FF30B100902047292C08B100E6
:1002A00090200530AC020030AD3BAE3BAF3B1D298A
:1002B000AF01AE01AD01AC012F082B02031C9F2939
:1002C000031D72292E082A02031C9F29031D72296F
:1002D0002D082902031C9F29031D722928082C02BE
:1002E00003189F2921000D1022000D14200027085B
:1002F000B000B00AB00303198129FF30B10090208B
:100300007A292608B100902021000D1022000D103E
:1003100020002708B000B00AB00303199329FF306A
:10032000B10090208C292608B10090200130AC0744
:100330000318AD0A0319AE0A0319AF0A5C2921009C
:100340008C1122008C1502302000B000FA30B10070
:100350000320B00BA629AF01AE010730AD00D030AD
:10036000AC00AF08031DC129AE08031DC129270831
:100370002D02031CEC29031DC1292C082602031899
:10038000EC2921000D1022000D1420002D08B000D2
:10039000B00AB0030319D029FF30B1009020C92959
:1003A0002C08B100902021000D1022000D1020001B
:1003B0002D08B000B00AB0030319E229FF30B100E4
:1003C0009020DB292C08B10090200530AC020030D1
:1003D000AD3BAE3BAF3BB129AF01AE01AD01AC01CE
:1003E0002F082B02031C332A031D062A2E082A027B
:1003F000031C332A031D062A2D082902031C332A55
:10040000031D062A28082C020318332A21000D1088
:1004100022000D1420002708B000B00AB003031911
:10042000152AFF30B10090200E2A2608B100902036
:1004300021000D1022000D1020002708B000B00A86
:10044000B0030319272AFF30B1009020202A260884
:10045000B10090200130AC070318AD0A0319AE0AB1
:100460000319AF0AF02921008D1122008D112000FF
:0404700005296300F7
:020000040001F9
:04000E00440E131277
:00000001FF
;PIC16F1826
;CRC=510A  CREATED="16-Nis-14 11:09"
