:060000008031052D000017
:0800080083018A012000770842
:10001000A0007808A1007908A2007A08A300850151
:1000200091308400801E1628911A1F282008F7009E
:100030002108F8002208F9002308FA000900241416
:100040009112803116288A06D332743A6532202301
:10005000F232F13A6537E33CA0306E32A029F43039
:10006000F432A037661045376131EC320914E914D7
:1000700000008A06C737A02AF03B6139E439201412
:10008000ED36291DA004A83A29008A06C737202288
:10009000EF3BEE3B6139E4392014ED36291DA00415
:1000A000283229004639E538F532EE31791DA012A3
:1000B000CC3A8A06290045376131EC32A029F43068
:1000C000F4323A10A53A8A0629005538F7307232D0
:1000D0007310C434733A6137E33220143310C330E1
:1000E000F230633A65397310A836ED14291DA01457
:1000F00000018A064639E538F532E33C202B6136AB
:10010000F5322014351043346139E131F432F239DB
:10011000291DA01400018A0645376131EC32A0295F
:10012000F430F432201431106F392018291DA01436
:100130000001C4377737F73072327310C434733A22
:100140006137E3322014331043346139E131F43242
:10015000F2392014ED36A9143A1029008A064639DE
:10016000E538F532E33C202B6136F53220143510AA
:1001700043346139E131F432F239291DA014000110
:100180008A0645376131EC32A029F430F43220146C
:1001900031106F392018291DA0140001DF2FDF2F27
:1001A000DF2FDF2FDF2FDF2FDF2FDF2FDF2FDF2FDF
:1001B000DF2FDF2FDF2FDF2FDF2FDF2FDF2FDF2FCF
:1001C000DF2FDF2FDF2FDF2FDF2FDF2FDF2FDF2FBF
:1001D000DF2FDF2FDF2FDF2FDF2F8A0600010A0539
:1001E0008D264F22C529C9292026C1294529202825
:1001F000CF29492AC927CE24CE23A029D929D42200
:100200004D058A0600015039E5397310A7312710D2
:10021000E6377210E337ED3661376410EC34733A29
:100220000A050D00203085001830840000080319ED
:1002300026290A30F800F701F70B1C29F80B1B29B7
:100240005F30F700F70B2229800B192908002100E5
:100250008D1022008D100830F8002E290000F817AC
:100260004129F8132000C10C220003188D14031C2F
:100270008D10781741297813F80B32293F29000097
:100280008D143E308400840B43294629F81B312904
:10029000781B3B2920000800230095171514000047
:1002A000000013087F3903198A292000B8002300B1
:1002B00011082000B900230012082000BA003808F5
:1002C000C100272139082300910020003A082300AB
:1002D00092009517151400000000130D140D7F39BE
:1002E00003198A292000B800230011082000B90052
:1002F000230012082000BA003808C100272139085D
:100300002300910020003A0823009200910A03196B
:10031000920A4D292000080021008D1420008D181C
:100320008F290830F700C201F717A429F713A42971
:1003300003108D180314C20C7717A4297713F70B39
:1003400098294208F800AF293F30F71B1130F80018
:10035000F80BA829F71B9629771B9E2998290800D6
:10036000230095171514000000000318D92913085D
:100370007F392000BA00230011082000BB002300B1
:1003800012082000BC003A08C10027213B082300C6
:10039000910020003C0823009200951715140000DE
:1003A00000002000B90BD529D7292300D929F72926
:1003B0002300130D140D7F392000BA00230011080B
:1003C0002000BB00230012082000BC003A08C10036
:1003D00027213B082300910020003C0823009200C5
:1003E000910A0319920A03102000B90BB0290800E2
:1003F0003C08F8013B020318002A3B08F7000C2ACE
:10040000F7010830BD00BB0DF70D3C08770203185B
:10041000F700F80DBD0B032A0800F701F8014008AA
:1004200003104118F707F70CF80CC118F707F70C81
:10043000F80C4119F707F70CF80CC119F707F70C7E
:10044000F80C411AF707F70CF80CC11AF707F70C6C
:10045000F80C411BF707F70CF80CC11BF707F70C5A
:10046000F80C08001030C400F701FA01C10CC00CF0
:10047000031C402A4208F7070318FA0A4308FA0740
:10048000FA0CF70CF90CF80CC40B362A0800B8016A
:10049000B8013808043C031C6E2A19303807840060
:1004A000203085000318850A0508C1000408C00033
:1004B0008C2141088500400884003030780280009B
:1004C000193038078400203085000318850A303041
:1004D0000007BE00C1002721B80A492AC101390816
:1004E000C0002730C3001030C20032227908BF009C
:1004F0007808BE00C1013908C0000330C300E830ED
:10050000C20032227908FA007808BE077908BF3D98
:100510003908C0006430C1000D227808BE070030E1
:10052000BF3D3908C0000A30C1000D227808BE075F
:100530000030BF3D39083E07A50000303F3DA60012
:100540000310250DF900260DFA007908BE007A087F
:10055000BF000330C100E830C0003F08C3003E08C0
:10056000C200F801F901F701FA014308031DBB2A93
:1005700042080319D52A1030C4000310C00DC10D64
:10058000F70DFA0D43087A02031DC82A42087702C4
:10059000031CD12A4208F702031CFA034308FA029B
:1005A0000314F80DF90DC40BBD2A7908A8007808CA
:1005B000A7000800B801B801B808031D002B1930C6
:1005C00038078400203085000318850A0508BD001F
:1005D0000408BC008C213D0885003C0884003030B4
:1005E0007802800019303807840020308500031815
:1005F000850A30300007BA00C1002721B80ADC2A7A
:10060000A4103918A414A41C0B2B21008C10220058
:100610008C140F2B200021008C1022008C10200045
:1006200008008C217808B7003708633A0319222B99
:100630000A3A0319412B1C3A03190F2C113A0319DA
:10064000892C032D233023009100003092002000DC
:100650004C213930230091000030920020004C21C1
:100660004530230091000030920020004C210A30D8
:10067000C10027210A30C10027210D30C1002721E8
:10068000032D5230230091000030920003100B30F4
:100690002000B900B021103084002608B9002508D8
:1006A000B8000508C0000408BF00390EF038BB00D0
:1006B000BB07E23EBC00323EBE0039080F39BC0722
:1006C000BC07BE07E93EBD00BD07BD07380E0F39A8
:1006D000BD07BE07BD0DBE0DBE09BE0D38080F39E2
:1006E000BE07BB0D0730BA000A30BE07BD03031CAE
:1006F000752BBD07BC03031C792BBC07BB03031C74
:100700007D2BBB07BA03031C812B85013A30840083
:1007100007303F053F1384073E30040203193F179B
:100720000008F700031D9C2B3F1B9C2B3F1AAB2B93
:10073000BF199C2B20309F2BBF153F123030F7077D
:100740000508B9000408B8007708C1002721390856
:10075000850038088400840A3F1F8C2B0A30C100B2
:1007600027210D30C10027212930C1002721003069
:10077000A4180130B8005B302300910000309200D3
:1007800003100E302000B900B0213808B9001B302A
:10079000BA003908BB006430BC00F8217708B90002
:1007A00078083030031DDB2BBA1CE22BBA19E22B80
:1007B0003A1A2030DE2BBA113A123A14F8077808A8
:1007C000C10027213908BB000A30BC00F821770896
:1007D000B90078083030031DF32BBA19F72B3A1CF7
:1007E000F72B3A1A2030F8077808C100272130305B
:1007F000B9073908C10027210A30C10027210D306F
:10080000C10027212930C10027210A30C10027213A
:100810000A30C10027210D30C1002721032D65308A
:10082000230091000030920020004C21B801B80153
:100830003808023C031C3D2C193038078400203056
:1008400085000318850A0508BF000408BE008C2136
:100850003F0885003E08840030307802800019305F
:1008600038078400203085000318850A30300007DF
:10087000BC00C1002721B80A182C3908C000643018
:10088000C1000D227808BC003908C0000A30C10040
:100890000D2278083C073907A900AA012A08C100DF
:1008A0002908C0006430C300C2013222B401B30180
:1008B0007908B2007808B10024150A30C100272158
:1008C0000A30C10027210D30C100272179302300D3
:1008D00091000030920020004C2147220A30C100D4
:1008E00027210A30C10027210D30C10027218B307C
:1008F000230091000030920020004C21DA220A30BF
:10090000C10027210A30C10027210D30C100272155
:10091000032D9930230091000030920020004C21DB
:10092000B801B8013808023C031CB72C193038074D
:100930008400203085000318850A0508BF000408DC
:10094000BE008C213F0885003E08840030307802CC
:100950008000193038078400203085000318850A8C
:1009600030300007BC00C1002721B80A922C39089A
:10097000C0006430C1000D227808BC003908C000F6
:100980000A30C1000D2278083C073907AB00AC01E2
:100990002C08C1002B08C0006430C300C201322201
:1009A000B001AF017908AE007808AD00A4150A3097
:1009B000C10027210A30C10027210D30C1002721A5
:1009C000AE30230091000030920020004C214722DD
:1009D0000A30C10027210A30C10027210D30C10093
:1009E0002721C030230091000030920020004C21CC
:1009F000DA220A30C10027210A30C10027210D3038
:100A0000C1002721032D80315F2D850184011F3016
:100A10008305F430210099008D1022008D142000F0
:100A20002410A601A501A801A701A410AA01A901EB
:100A3000AC01AB012411A411B001AF01AE01AD01B5
:100A4000B401B301B201B10123008C018D01220078
:100A50009201910194019301E03021008C00B230A9
:100A60008D0091168C1122008C1502302000B700E9
:100A7000FA30B8001221B70B382D0A30C1002721F7
:100A80000D30C1002721CE302300910000309200AC
:100A900020004C21EF302300910000309200200014
:100AA0004C210330230091000130920020004C21A2
:100AB000241C632D2100911220002410112B070803
:100AC000210091162000A41CE92DA508031D6B2D03
:100AD000A6080319E82D241DAA2D2100911220003B
:100AE000B501B501B408031D7F2DB308031D7F2D8B
:100AF000B208031D7F2D310835020318A52D2100F2
:100B00000C1022000C1420002808B700B70AB70305
:100B100003198E2DFF30B8001221872D2708B80049
:100B2000122121000C1022000C1020002808B70010
:100B3000B70AB7030319A02DFF30B8001221992D71
:100B40002708B8001221B50A722D24112100911630
:100B5000E72D2000A41DE82D210091122000B601F0
:100B6000B601B008031DBE2DAF08031DBE2DAE0893
:100B7000031DBE2D2D0836020318E42D21000C1094
:100B800022000C1420002808B700B70AB703031985
:100B9000CD2DFF30B8001221C62D2708B800122134
:100BA00021000C1022000C1020002808B700B70A02
:100BB000B7030319DF2DFF30B8001221D82D270805
:100BC000B8001221B60AB12DA411210091162000FF
:060BD000632D582D6300A7
:020000040001F9
:04000E00440E131277
:00000001FF
;PIC16F1826
;CRC=E01E  CREATED="29-Mar-14 11:38"
