:100000008031612A000022001D179D1680312000DA
:100010007C2A2400951215129511151195141510AE
:10002000941314179516803120007D2A2030850006
:1000300011308400000803192A280A30F800F7015B
:10004000F70B2028F80B1F285F30F700F70B262846
:10005000800B1D28080021008C1322008C13210026
:100060000C1122000C1121008C1022008C10210098
:100070000C1222000C1221000C1022000C108031F6
:1000800020008A2A21008C1322008C1703302000C4
:10009000A1003030A2002400920120002108240099
:1000A00091002000911D52289111240092012000FE
:1000B0002208240091002000911D5C28911121004C
:1000C0008C1322008C130A302000B100162021006E
:1000D0008C1322008C1710302000A300C830A4001D
:1000E0002400920120002308240091002000911D8B
:1000F0007728911124009201200024082400910007
:100100002000911D8128911121008C1322008C1355
:100110000A302000B100162021008C1322008C1719
:1001200020302000A5000C30A60024009201200001
:100130002508240091002000911D9C289111240085
:10014000920120002608240091002000911DA6287D
:10015000911121008C1322008C130A302000B10071
:10016000162021008C1322008C1731302000A700AC
:100170009130A8002400920120002708240091005B
:100180002000911DC128911124009201200028080F
:10019000240091002000911DCB28911121008C1387
:1001A00022008C130A302000B100162021008C138D
:1001B00022008C1745302000A9002930AA00240015
:1001C000920120002908240091002000911DE628BA
:1001D00091112400920120002A082400910020009F
:1001E000911DF028911121008C1322008C130A30EC
:1001F0002000B100162021008C1322008C175930EA
:100200002000AB001430AC002400920120002B0829
:10021000240091002000911D0B29911124009201CE
:1002200020002C08240091002000911D1529911117
:1002300021008C1322008C130A302000B1001620FC
:1002400021008C1322008C176F302000AD00A030ED
:10025000AE002400920120002D082400910020000F
:10026000911D302991112400920120002E082400B4
:1002700091002000911D3A29911121008C13220038
:100280008C130A302000B100162021008C132200AC
:100290008C1770302000AF00B001240092012000C4
:1002A0002F08240091002000911D54299111240051
:1002B000920120003008240091002000911D5E2949
:1002C000911121008C1322008C130A302000B10000
:1002D00016206430B100162021008C1322008C17E8
:1002E0002000A1013030A20024009201200021084A
:1002F000240091002000911D7B299111240092017E
:1003000020002208240091002000911D85299111D0
:1003100021008C1322008C130A302000B10016201B
:1003200080318B2A21000D142000A0100D18A0147C
:1003300021008C15200020108C19201421008D150F
:1003400020008D1D322AA01521008C1322008C174D
:1003500003302000A1003130A200240092012000CF
:100360002108240091002000911DB429911124003E
:10037000920120002208240091002000911DBE2936
:10038000911121008C1322008C130A302000B1003F
:10039000162021008C1322008C172000A10131307F
:1003A000A2002400920120002108240091002000D6
:1003B000911DD829911124009201200022082400C7
:1003C00091002000911DE229911121008C1322003F
:1003D0008C130A302000B100162021008D1520005A
:1003E0008D1D312A003020180130A50021008C1508
:1003F000003020008C19013025020319112A210038
:100400008C1520008C19082A22000C120A2A2000C0
:1004100022000C1621000C128C15200020108C19C3
:1004200020140030A0180130A50021000D14003068
:1004300020000D18013025020319302A21000D1467
:1004400020000D18272A22000C10292A2000220043
:100450000C1421000C100D142000A0100D18A01475
:10046000ED295E2A21008D1520008D195E2AA01D20
:100470005E2A21008C1322008C172000A30130304B
:10048000A4002400920120002308240091002000F1
:10049000911D482A91112400920120002408240073
:1004A00091002000911D522A911121008C132200ED
:1004B0008C130A302000B1001620A0119E29803133
:1004C0008C2A850184011F308305F43021009900B6
:1004D00020002010A0102011A01523008C018D01F8
:1004E00022009201910194019301283021008C0097
:1004F000CF308D0020000328092821000C11220094
:100500000C1502302000A100FA30B1001620A10B1A
:0A051000842A2B2842289229630058
:020000040001F9
:04000E00040E1012BA
:00000001FF
;PIC16F1826
;CRC=7583  CREATED="16-Haz-14 15:33"
