:0800000064410400000000004F
:040088005C13000005
:0400B8003A130000F7
:100200003220EF006307200083015000040031001A
:1002100003122000008041001000BA000000060018
:100220000012200083814100808141003380BA00A8
:100230009381BA00C819DD0000807100000006003B
:10024000D00782003C0300007C02810018020000FD
:10025000D8018000AB01000089017E006D01000023
:1002600057017D004501000035017C002701000099
:100270001B017B001001000007017A00FE00000056
:10028000F6007900EF000000E9007800E2000000CD
:10029000DD007700D8000000D3007600CE0000001B
:1002A000CA007500C6000000C2007400BF00000054
:1002B000BB007300B8000000B5007200B20000007F
:1002C000AF007100AD000000AA007000A80000009F
:1002D000A6006F00A3000000A1006E009F000000B8
:1002E0009D006D009B00000099006C0098000000CC
:1002F00096006B009400000093006A0091000000DB
:10030000900069008E0000008D0068008B000000E6
:100310008A006700890000008700660086000000F0
:100320008500650084000000830000003220EF009B
:10033000231A2000008041001040BA000160EF0045
:10034000000006000A0D0000095600006F6C000056
:1003500074610000676500002044000065730000C0
:1003600069720000656400003A20000025750000F5
:10037000000000003220EF00631C200000804100DC
:100380001040BA000160EF00000006000A0D0000F6
:1003900009540000617000002044000065730000F3
:1003A00069720000656400003A20000025750000B5
:1003B000000000003220EF00631E2000008041009A
:1003C0001040BA000160EF00000006000A0D0000B6
:1003D000095600006F6C0000746100006765000042
:1003E0002043000075720000726500006E7400000A
:1003F0003A20000025750000000000003220EF00C8
:10040000A3202000008041001040BA000160EF00EE
:10041000000006000A0D0000095400006170000091
:100420002043000075720000726500006E740000C9
:100430003A20000025750000000000003220EF0087
:10044000A3222000008041001040BA000160EF00AC
:10045000000006000A0D0000095600006F6C000045
:1004600074610000676500002044000069660000B8
:1004700066650000726500006E630000653A00006A
:1004800020250000750000003220EF000325200029
:10049000008041001040BA000160EF00000006003B
:1004A0000A0D00004954000045520000415400006C
:1004B000494F00004E3A0000202500007500000062
:1004C0003220EF00C3262000008041001040BA0017
:1004D0000160EF00000006000A0D00000956000050
:1004E0006F6C00007461000067650000204300002D
:1004F00075720000726500006E740000203A000002
:1005000020250000750000003220EF0003292000A4
:10051000008041001040BA000160EF0000000600BA
:100520000A0D00004974000065720000617400004B
:10053000696F00006E2000006C6900006D690000AA
:1005400074200000726500006163000068650000AF
:10055000640000003220EF00632B20000080410087
:100560001040BA000160EF00000006000A0D000014
:10057000464F0000554E00004421000000000000DE
:100580003220EF00C32C2000008041001040BA0050
:100590000160EF00000006000A0D00000954000091
:1005A0006170000020430000757200007265000059
:1005B0006E740000203A0000202500007500000045
:1005C0003220EF00C32E2000008041001040BA000E
:1005D0000160EF00000006000A0D00000950000055
:1005E00065720000636500006E7400002043000027
:1005F00075720000726500006E7400003A20000001
:10060000257500000A0D0000000000003220EF00F8
:1006100023312000008041001040BA000160EF004B
:10062000000006000A0D000009500000657200007D
:10063000636500006E7400002044000065730000D4
:1006400069720000656400003A0000003220EF008B
:1006500023332000008041001040BA000160EF0009
:10066000000006005365000072690000616C000024
:10067000204E00006F3A0000000000003220EF0022
:10068000A3342000008041001040BA000160EF0058
:10069000000006004D6F0000766500006D650000EB
:1006A0006E74000020520000616E0000676500005B
:1006B0003A20000025750000206D00006D0A000042
:1006C0000D0000003220EF00E336200000804100E2
:1006D0001040BA000160EF0000000600486F000003
:1006E0006D65000020440000697300007461000023
:1006F0006E630000653A00002025000075200000B0
:10070000636F0000756E0000747300000A0D000036
:10071000000000003220EF0063392000008041001B
:100720001040BA000160EF0000000600456E0000B6
:10073000642000004469000073740000616E0000D2
:10074000636500003A20000025750000206300006A
:100750006F7500006E740000730A00000D00000049
:100760003220EF00C33B2000008041001040BA005F
:100770000160EF0000000600436F00006E7600008D
:1007800065720000736900006F6E00002043000076
:100790006F6E000073740000616E0000743A000018
:1007A00020250000752000000A0D00000000000058
:1007B0003220EF00433E2000008041001040BA008C
:1007C0000160EF000000060042610000636B000062
:1007D0006C610000736800003A200000257500007D
:1007E000206300006F7500006E740000730A000043
:1007F0000D0000003220EF00634020000080410027
:100800001040BA000160EF0000000600436F0000D6
:100810006D6D0000756E000069630000617400007A
:10082000696F00006E2000005479000070650000C0
:100830003A20000050610000726100006C6C000002
:10084000656C0000205000006F720000740A000008
:100850000D0000003220EF006343200000804100C3
:100860001040BA000160EF0000000600436F000076
:100870006D6D0000756E000069630000617400001A
:10088000696F00006E200000547900007065000060
:100890003A2000005365000072690000616C00009E
:1008A000205000006F720000740A00000D0000006C
:1008B0003220EF0043462000008041001040BA0083
:1008C0000160EF0000000600436F00006D6D000046
:1008D000756E00006963000061740000696F0000BC
:1008E0006E20000054790000706500003A2000007E
:1008F000556E000064650000666900006E650000CA
:10090000640A00000D0000003220EF0003492000BF
:10091000008041001040BA000160EF0000000600B6
:100920004C61000073740000205000006F730000E1
:1009300069740000696F00006E3A00002025000015
:10094000752000006D6D00000A0D00000000000021
:100950003220EF00434B2000008041001040BA00DD
:100960000160EF0000000600496E000064650000B1
:10097000783A000020250000752C0000205000006F
:100980006F73000069740000696F00006E3A000028
:1009900020250000752000006D6D00000A0D00008C
:1009A000000000003220EF00E34D200000804100F5
:1009B0001040BA000160EF00000006004D4F00003B
:1009C0004445000053490000532000004C41000002
:1009D0005345000052200000504F000053490000D2
:1009E000544900004F4E0000494E000047200000CF
:1009F0005359000053540000454D00000A0A0000FE
:100A00000D0000003220EF0003042000830150009D
:100A100005003100E3512000008041001040BA0081
:100A20000160EF0000000600E051200083814100DA
:100A3000808141001380BA00000006000A0D6F009B
:100A4000496E7600766165006C696D006420650012
:100A5000656E6E0074727400793A2000204D720049
:100A60006F766100656D6E00656E670074206500CD
:100A7000726120006E676900652073006361200069
:100A80006E6E73006F746500206274006520200034
:100A9000736D7400616C6F006C652000722034000F
:100AA00074683000616E30002034200030306D00FA
:100AB000206D6D006D2E2E00204D00003220EF00C5
:100AC000230420008301500005003100A3572000BB
:100AD000008041001040BA000160EF0000000600F5
:100AE000A057200083814100808141001380BA001B
:100AF000000006000A0D6500496E6D007661650014
:100B00006C696E0064207400656E2000747272005F
:100B1000793A6100204D6E006F766700656D650063
:100B2000656E200074206900726173006E6720009A
:100B300065207300636165006E6E74006F74200041
:100B40002062740065206F006C61200072673200C3
:100B50006572300020743000686130006E20200023
:100B600032306D0030306D00206D2E006D2E000093
:100B7000204D00006F7600003220EF00A30320001C
:100B80008301500005003100835D2000008041009A
:100B90001040BA000160EF0000000600805D2000F8
:100BA00083814100808141001380BA00000006006B
:100BB0000A0D4800496E6F0076616D006C69650032
:100BC00064202000656E700074726F00793A7300C3
:100BD000204869006F6D740065206900706F6F00B8
:100BE00073696E00746920006F6E69002063730082
:100BF000616E20006E6F6E0074206F00626574007D
:100C0000207320006D6163006C6C68006572610088
:100C100020746E00686167006E20650031306400EA
:100C20002E2000003220EF006304200083015000DA
:100C300005003100E3622000008041001040BA004E
:100C40000160EF0000000600E062200083814100A7
:100C5000808141001380BA00000006000A0D640084
:100C6000496E2000766170006C696F00642073002B
:100C7000656E690074727400793A690020456F00EE
:100C80006E646E00207020006F73690069747300D9
:100C9000696F20006E207300636165006E6E7400E2
:100CA0006F7420002062740065206F00736D200057
:100CB000616C69006C6574007220730074682000B8
:100CC000616E6400206865006F6D660065206100DC
:100CD000706F750073696C00746974006F6E2E001C
:100CE0002E200000456E00003220EF000368200037
:100CF000008041001040BA000160EF0000000600D3
:100D0000436F0000756E0000743A0000202500005B
:100D100075200000636F0000756E000074730000A2
:100D20000A0D0000000000003220EF00036A2000DE
:100D3000008041001040BA000160EF000000060092
:100D400053740000657000003A2000002575000013
:100D50002073000074650000707300000A0D00002D
:100D6000000000003220EF00E36B20000080410013
:100D70001040BA000160EF0000000600436F000061
:100D80006E76000065720000736900006F6E0000EF
:100D9000204300006F6E000073740000616E00005D
:100DA000743A00002025000075200000636F0000E9
:100DB000756E0000747300000A0D00000000000052
:100DC0003220EF00C36E2000008041001040BA00C6
:100DD0000160EF0000000600517500006164000032
:100DE000726100007475000072650000204500000B
:100DF0006E6300006F64000065720000204900000F
:100E00006E69000074690000616C0000697A00007E
:100E1000656400000A0A00000D0000003220EF00A7
:100E2000A3712000008041001040BA000160EF0073
:100E3000000006005175000061640000726100004E
:100E40007475000072650000204500006E630000AC
:100E50006F64000065720000204300006F750000A1
:100E60006E74000020530000657400003A200000FA
:100E7000257500000A0A00000D0000003220EF0076
:100E8000E30120008301500005003100A37520001C
:100E9000008041001040BA000160EF000000060031
:100EA000A075200083814100808141001380BA0039
:100EB0000000060051756E006164740072612000CC
:100EC0007475530072656500204574006E633A00C6
:100ED0006F64200065722500204D750061780A005E
:100EE000696D0A00756D0D00204300006F750000EC
:100EF0003220EF0043782000008041001040BA000B
:100F00000160EF0000000600505700004D20000077
:100F10004D6F0000647500006C6500002049000002
:100F20006E69000074690000616C0000697A00005D
:100F3000656400000A0A00000D0000003220EF0086
:100F4000A37A2000008041001040BA000160EF0049
:100F500000000600505700004D20000044690000CA
:100F600073610000626C0000656400000A0D0000FF
:100F7000000000003220EF00637C20000080410070
:100F80001040BA000160EF00000006004469000054
:100F9000737000006C610000636500006D65000007
:100FA0006E7400003A200000257500000A0D000054
:100FB000000000003220EF00637E2000008041002E
:100FC0001040BA000160EF0000000600416300001D
:100FD000636500006C6500007261000074690000C8
:100FE0006F6E0000204C0000696D00006974000005
:100FF0003A200000257500000A0D000000000000E6
:101000003220EF00C3802000008041001040BA0071
:101010000160EF0000000600446500006365000009
:101020006C65000072610000746900006F6E000062
:10103000204C0000696D0000697400003A20000037
:10104000257500000A0D0000000000003220EF00AE
:1010500023832000008041001040BA000160EF00AF
:101060000000060044650000636500006C65000038
:1010700072610000746900006F6E00002043000080
:101080006F7500006E7400003A20000025750000A6
:101090000A0D0000000000003220EF0023052000B0
:1010A000830150000500310083862000008041004C
:1010B0001040BA000160EF000000060080862000AA
:1010C00083814100808141001380BA000000060046
:1010D000496E7700766169006C696C0064206C0071
:1010E000656E200074726D00793A6F0020537600AF
:1010F00079736500746520006D20740063616F0072
:101100006E6E20006F746D00206D61006F76780048
:1011100065206900746F6D002061750020706D009E
:101120006F73200069747000696F6F006E20730028
:1011300062657300796F69006E64620020746C00F0
:1011400068656500206D20006F766400656D69003C
:10115000656E730074207400726161006E676E00CA
:10116000652E63002053650079732E0074650000BE
:101170006D2000003220EF00E304200083015000C6
:1011800005003100638D2000008041001040BA004E
:101190000160EF0000000600608D200083814100A7
:1011A000808141001380BA0000000600496E6C0087
:1011B000766120006C696D0064206F00656E7600BA
:1011C00074726500793A20002053740079736F00BF
:1011D000746520006D206D00636169006E6E6E00A5
:1011E0006F746900206D6D006F76750065206D006D
:1011F000746F20002061700020706F006F737300A7
:1012000069747300696F69006E206200736D6C0011
:10121000616C65006C652000722064007468690070
:10122000616E730020257400752061006D6D6E0085
:101230002E2063005379650073742E00656D0000E5
:1012400020770000696C00003220EF00039320003B
:10125000008041001040BA000160EF00000006006D
:101260000A0D000054610000726700006574000000
:10127000205000006F73000069740000696F000067
:101280006E3A000020250000752000006D6D000002
:101290000A0D0000000000003220EF0083952000BE
:1012A000008041001040BA000160EF00000006001D
:1012B000496E000069740000696100006C20000044
:1012C00045720000726F0000723A00002025000095
:1012D000640A00000D0000003220EF008397200018
:1012E000008041001040BA000160EF0000000600DD
:1012F0005461000072670000657400002045000022
:101300006E6300006F6400006572000020630000DF
:101310006F7500006E7400003A2000002575000013
:101320000A0D0000000000003220EF00039A2000A8
:10133000008041001040BA000160EF00000006008C
:101340004375000072720000656E0000742000009A
:10135000456E0000636F00006465000072200000AD
:10136000636F0000756E0000743A000020250000D5
:10137000750A00000D0000003220EF00839C200061
:10138000008041001040BA000160EF00000006003C
:101390004E7500006D62000065720000206F000055
:1013A000662000004974000065720000617400004E
:1013B000696F00006E7300003A2000002575000080
:1013C0000A0D0000000000003220EF00039F200003
:1013D000008041001040BA000160EF0000000600EC
:1013E00045720000726F0000723A00002025000074
:1013F000640A00000D0000003220EF0083A02000EE
:10140000008041001040BA000160EF0000000600BB
:10141000486F00006D6900006E6700002E2E00000E
:101420002E0A00000D0000003220EF0003A2200071
:10143000008041001040BA000160EF00000006008B
:101440004D6F0000766900006E670000204C0000C0
:101450006173000074200000506F00007369000089
:10146000746900006F6E00003A20000025750000CE
:10147000206D00006D0A00000D0000003220EF001A
:10148000A3A42000008041001040BA000160EF00DA
:101490000000060053740000726F000062650000D7
:1014A0002072000065630000656900007665000039
:1014B000640A00000D0000003220EF0083A6200027
:1014C000008041001040BA000160EF0000000600FB
:1014D00053740000726F000062650000207300000A
:1014E000696700006E6100006C20000072650000FA
:1014F0006A65000063740000656400000A0D000066
:10150000000000003220EF00E3A82000008041002E
:101510001040BA000160EF000000060053740000A4
:10152000726F000062650000206300006F6E0000B3
:1015300066690000726D0000656400000A0D00001D
:10154000000000003220EF00E3AA200000804100EC
:101550001040BA000160EF0000000600506F00006C
:1015600073690000746900006F6E00002073000052
:1015700065740000202D00003E200000696E000010
:1015800064650000783A0000202500007520000006
:10159000706F000073690000746900006F6E0000D6
:1015A0003A200000257500000A0D00000000000030
:1015B0003220EF00C30120008301500005003100FC
:1015C00043AF2000008041001040BA000160EF00EE
:1015D0000000060040AF200083814100808141006F
:1015E0001380BA00000006004D6F6F00766573002F
:1015F000205069006F73740069746900696F6F002F
:101600006E206E002D3E3A00206920006E64250099
:10161000657875003A200A0025750D0020700000DD
:101620003220EF00C3B12000008041001040BA001A
:101630000160EF0000000600456D000065720000CB
:10164000676500006E63000079200000537400009D
:101650006F700000204300006F6D00006D6100009E
:101660006E6400000A0D0000000000003220EF0050
:1016700023B42000008041001040BA000160EF0058
:1016800000000600486F00006D6900006E670000F2
:10169000204300006F6D00006D6100006E6400006B
:1016A0000A0D0000000000003220EF0003B6200009
:1016B000008041001040BA000160EF000000060009
:1016C0004C61000073650000722000004F6600004E
:1016D00066200000436F00006D6D0000616E000029
:1016E000640A00000D0000003220EF0003B8200063
:1016F000008041001040BA000160EF0000000600C9
:101700004C61000073650000722000004F6E000005
:10171000204300006F6D00006D6100006E640000EA
:101720000A0D0000000000003220EF0003BA200084
:10173000008041001040BA000160EF000000060088
:101740005365000074200000506F000073690000B2
:10175000746900006F6E0000204300006F6D000090
:101760006D6100006E6400000A0D000000000000C2
:101770003220EF0043BC2000008041001040BA003E
:101780000160EF00000006000A0D0000434F00005A
:101790004D4D0000414E0000442000004C49000027
:1017A000535400000A0D0000000000003220EF003A
:1017B00023BE2000008041001040BA000160EF000D
:1017C000000006000A0D00005365000074200000B0
:1017D0005365000072690000616C0000204E00003B
:1017E000756D00006265000072090000287300003A
:1017F000290000003220EF0063C02000008041007B
:101800001040BA000160EF00000006000A0D000061
:1018100053650000742000004D6F000076650000E5
:1018200020520000616E0000676500002009000082
:101830000928000072290000000000003220EF009B
:10184000A3C22000008041001040BA000160EF00F8
:10185000000006000A0D000053650000742000001F
:10186000486F00006D6900006E67000020440000B2
:1018700069730000746100006E6300006520000061
:101880000928000068290000000000003220EF0055
:1018900023C52000008041001040BA000160EF0025
:1018A000000006000A0D00005365000074200000CF
:1018B000456E00006420000044690000737400005D
:1018C000616E0000636500002009000028650000CB
:1018D000290000003220EF0063C720000080410093
:1018E0001040BA000160EF00000006000A0D000081
:1018F0005365000074200000436F00006E76000006
:1019000065720000736900006F6E000020430000E4
:101910006F6E000073740000616E000074090000B7
:1019200028760000290000003220EF0003CA2000C2
:10193000008041001040BA000160EF000000060086
:101940000A0D000053650000742000004261000091
:10195000636B00006C6100007368000020090000E8
:101960000928000062290000000000003220EF007A
:1019700023CC2000008041001040BA000160EF003D
:10198000000006000A0D00005365000074200000EE
:10199000436F00006D6D0000756E0000696300000C
:1019A00061740000696F00006E200000547900002F
:1019B0007065000020090000287400002900000064
:1019C0003220EF00C3CE2000008041001040BA005A
:1019D0000160EF00000006000A0D000047650000EE
:1019E000742000005379000073740000656D0000DE
:1019F00020440000617400006120000009280000FC
:101A000069290000000000003220EF0003D120000F
:101A1000008041001040BA000160EF0000000600A5
:101A20000A0D00004765000074200000506F0000A0
:101A300073690000746900006F6E0000204C0000A4
:101A40006973000074200000092800006D2900005F
:101A5000000000003220EF0063D32000008041002E
:101A60001040BA000160EF00000006000A0D0000FF
:101A70004D6F000076650000205400006F200000CC
:101A8000506F000073690000746900006F6E000001
:101A90002009000028780000290000003220EF0013
:101AA000A3D52000008041001040BA000160EF0083
:101AB000000006000A0D00005365000074200000BD
:101AC00054610000626C0000652000004461000069
:101AD000746100002009000009280000712900003D
:101AE000000000003220EF00E3D72000008041001A
:101AF0001040BA000160EF00000006000A0D00006F
:101B0000546500007374000020520000756E0000E0
:101B1000202800006C6F0000772000007265000034
:101B20007329000020090000286F00002900000030
:101B30003220EF0043DA2000008041001040BA005C
:101B40000160EF00000006000A0D0000546500006F
:101B50007374000020520000756E00002028000001
:101B6000686900006768000020720000657300006B
:101B700029200000092800006C2900000000000056
:101B80003220EF00C3DC2000008041001040BA008A
:101B90000160EF00000006000A0D00005365000020
:101BA000742000004465000062750000672000009A
:101BB00053740000617400006520000009280000D3
:101BC00064290000000000003220EF0003DF200045
:101BD000008041001040BA000160EF0000000600E4
:101BE0000A0D00004765000074200000456E0000EB
:101BF000636F00006465000072200000436F000006
:101C0000756E00007420000009280000772900008C
:101C1000000000003220EF0063E12000008041005E
:101C20001040BA000160EF00000006000A0D00003D
:101C30005374000061720000742000004D650000C4
:101C40006D6F000072790000205400006573000081
:101C500074200000092800007A290000000000001C
:101C60003220EF00C3E32000008041001040BA00A2
:101C70000160EF00000006000A0D0000436C000048
:101C800065610000722000004D6500006D6F00006E
:101C90007279000020090000092800006629000070
:101CA000000000003220EF00E3E52000008041004A
:101CB0001040BA000160EF00000006000A0D0000AD
:101CC0005365000074200000536500007269000035
:101CD000616C0000204E0000756D00006265000020
:101CE000722000002831000033200000436800000B
:101CF000617200006163000074650000727300008F
:101D0000293A0000200000003220EF0003E9200003
:101D1000008041001040BA000160EF0000000600A2
:101D20000A0D000053650000742000004D6F000094
:101D30007665000020520000616E000067650000BB
:101D4000206900006E2000006D6D0000202800005A
:101D50007878000078780000293A00002000000020
:101D60003220EF00C3EB2000008041001040BA0099
:101D70000160EF00000006000A0D0000536500003E
:101D800074200000486F00006D6900006E6700005D
:101D90002044000069730000746100006E6300005D
:101DA00065200000696E0000206300006F75000070
:101DB0006E7400007320000028780000787800001E
:101DC000782900003A200000000000003220EF00D7
:101DD00023EF2000008041001040BA000160EF00B6
:101DE000000006000A0D000053650000742000008A
:101DF000456E000064200000446900007374000018
:101E0000616E000063650000206900006E20000024
:101E1000636F0000756E00007473000020280000DE
:101E20007878000078780000782900003A200000D7
:101E3000000000003220EF0063F22000008041002B
:101E40001040BA000160EF00000006000A0D00001B
:101E50005365000074200000436F00006E760000A0
:101E600065720000736900006F6E0000204300007F
:101E70006F6E000073740000616E0000742000003B
:101E8000287800007878000078780000293A00006F
:101E9000200000003220EF0063F5200000804100A8
:101EA0001040BA000160EF00000006000A0D0000BB
:101EB000536500007420000042610000636B000065
:101EC0006C61000073680000202800007878000032
:101ED000293A0000200000003220EF000302200019
:101EE000830150000500310083F82000008041008C
:101EF0001040BA000160EF000000060080F82000EA
:101F000083814100808141001380BA0000000600F7
:101F10000A0D610053656C0074206C00436F65000E
:101F20006D6D6C00756E2C0069632000617431006A
:101F3000696F3A006E20200054795200706553009A
:101F400020283200303A3300205032006172000005
:101F50003220EF0043FB2000008041001040BA0017
:101F60000160EF00000006000A0D00004765000058
:101F700074200000506F0000736900007469000055
:101F80006F6E0000204C0000697300007428000090
:101F9000303C00003D5800003C3D00003929000065
:101FA0003A200000000000003220EF0003FE200075
:101FB000008041001040BA000160EF000000060000
:101FC0000A0D00004D6F00007665000020540000EF
:101FD0006F280000303C00003D5800003C3D0000F0
:101FE0003939000039390000293A0000200000008A
:101FF0003220EF0043002100008041001040BA0071
:102000000160EF00000006000A0D0000456E0000B0
:10201000746500007220000054610000626C0000D2
:1020200065200000496E0000646500007820000013
:1020300028780000782900003A2000000000000005
:102040003220EF00C3022100008041001040BA009E
:102050000160EF00000006000A0D0000496E00005C
:1020600064650000783A000020250000750000003B
:102070003220EF0043042100008041001040BA00EC
:102080000160EF00000006000A0D0000456E000030
:102090007465000072200000506F0000736900003A
:1020A000746900006F6E000020280000787800003E
:1020B00078780000293A0000200000003220EF006C
:1020C000A3062100008041001040BA000160EF002B
:1020D000000006000A0D0000506F00007369000048
:1020E000746900006F6E00003A2000002575000042
:1020F000000000003220EF00630821000080410052
:102100001040BA000160EF00000006000A0D000058
:10211000537000006565000064200000287800000E
:1021200078780000782900003A20000000000000C4
:102130003220EF00430A2100008041001040BA0025
:102140000160EF00000006000A0D0000536500006A
:1021500074200000646500006275000067200000C4
:102160007374000061740000650A00000D00000037
:102170003220EF00430C2100008041001040BA00E3
:102180000160EF000000060044690000676900007C
:10219000746100006C200000706F00007465000026
:1021A0006E740000696F00006D65000074650000CA
:1021B0007220000028610000292800003020000063
:1021C0006F72000020310000293A0000200A000050
:1021D0000D0000003220EF00630F2100008041005D
:1021E0001040BA000160EF000000060050610000DE
:1021F000726100006C6C0000656C000020700000D3
:102200006F720000742000002020000020200000D9
:102210002020000020200000286200002928000063
:10222000302000006F72000020310000293A0000C9
:10223000200A00000D0000003220EF008312210070
:10224000008041001040BA000160EF00000006006D
:1022500046520000414D00002020000020200000D8
:10226000202000002020000020200000202000006E
:102270002020000020200000202000002863000013
:1022800029280000302000006F720000203100007B
:10229000293A0000200A00000D0000003220EF0063
:1022A000A3152100008041001040BA000160EF003A
:1022B000000006004D6F0000746F000072200000E7
:1022C0006472000069760000657200002020000042
:1022D00020200000202000002020000020200000FE
:1022E0002864000029280000302000006F720000E0
:1022F00020310000293A0000200A00000D000000F3
:102300003220EF00C3182100008041001040BA00C5
:102310000160EF0000000600456E0000636F0000E2
:1023200064650000722000002020000020200000D2
:10233000202000002020000020200000202000009D
:10234000202000002865000029280000302000001F
:102350006F72000020310000293A0000200A0000BE
:102360000D0000003220EF00E31B2100008041003F
:102370001040BA000160EF00000006005057000056
:102380004D2000004D6F0000647500006C6500007A
:10239000202000002020000020200000202000003D
:1023A00020200000202000002866000029280000CE
:1023B000302000006F72000020310000293A000038
:1023C000200A00000D0000003220EF00031F210052
:1023D000008041001040BA000160EF0000000600DC
:1023E000416C00006C2000004D6F0000646500002F
:1023F000732000002020000020200000202000008A
:10240000202000002020000020200000286700007D
:1024100029280000302000006F72000020310000E9
:10242000293A0000200A00000D0000003220EF00D1
:1024300023222100008041001040BA000160EF001B
:1024400000000600536500006C6500006374000026
:10245000696F00006E2000002878000078290000D5
:102460003A200000000000003220EF000324210089
:10247000008041001040BA000160EF00000006003B
:10248000496E0000766100006C6900006420000065
:10249000456E000074720000790A00000D00000013
:1024A0003220EF00C3252100008041001040BA0017
:1024B0000160EF00000006000A0D0000456E0000FC
:1024C000636F00006465000072200000636F00000D
:1024D000756E00007420000025340000750A0000AD
:1024E0000D0000003220EF00C301200083015000E6
:1024F00005003100E3282100008041001040BA00AF
:102500000160EF0000000600E02821008381410007
:10251000808141001380BA00000006000A0D3100DE
:1025200053742C006172200074204E004D656F00C2
:102530006D6F200072792D0020543E0065732000DD
:10254000742030002859290065733A00202D20009E
:102550003E2000003220EF00632B2100008041006C
:102560001040BA000160EF00000006000A0D0000F4
:10257000436C000065610000722000004D650000A2
:102580006D6F00007279000020280000596500007E
:10259000732000002D3E0000203100002C200000A0
:1025A0004E6F0000202D00003E200000302900006A
:1025B0003A200000000000003220EF00832E2100AE
:1025C000008041001040BA000160EF0000000600EA
:1025D0000A0A00000D4D00004F4400004553000062
:1025E00049530000204C00004153000045520000B8
:1025F000205000004F53000049540000494F000094
:102600004E4900004E47000020530000595300007F
:10261000544500004D0A00000A0D000000000000B3
:102620003220EF00C3312100008041001040BA0089
:102630000160EF00000006005072000065730000AA
:10264000732000002763000027200000666F000051
:1026500072200000636F00006D6D0000616E00006D
:10266000642000006C690000737400000A0A000016
:102670000D0000004200F8003600F800801F7800CE
:10268000200020000C000900B01F7800B0C8AF0087
:1026900001003700FC08A8008880A900A0012000E4
:1026A0000C0009004F1078004F0078003600F90048
:1026B0004200F900004006004200F8003600F80031
:1026C000801F7800200020000C000900B01F780057
:1026D000FC68A8008700A900A00120000C000900E8
:1026E0004F1078004F0078003600F9004200F900E2
:1026F000004006000000E0004220AF000600370066
:102700002B35090000000000FE3F0900000000001A
:102710000000E900FAFF3A00000006002301A900CA
:102720002321A9002341A90023E1A90023A1A90095
:1027300022E1A90022C1A90022A1A9002261A900C9
:102740002281A9002241A9002221A9002201A90079
:102750002501A90024E1A80024C1A80024A1A80003
:102760002481A8002621EF0028A1EF002341A80022
:102770002321A8002301A800B0A8AE000C00370058
:1027800001002000010078000160EF00E006020077
:10279000000000008100E8001922AF00FEFF3700B2
:1027A0001AA2B700000220000008E600F5FF37007B
:1027B000000006007809E20004003A00C021A900E8
:1027C000C001A900F013040000000000C44B800009
:1027D0006120E10002003A00C021A900C001A80068
:1027E00000000600C1E1A900C0E1A900C0C1A90024
:1027F000C0A1A900C081A900C061A900C041A90071
:102800007829EF00DA13020000000000C901A800D7
:10281000C881A800CA41A90090E0A900C421EF0026
:10282000D621EF00B068AE000C0037000100200098
:10283000010078000160EF0078070200000000004E
:102840008100E8001922AF00FEFF37001AA2B7008E
:10285000800120000008E600F5FF370000000600B8
:10286000E522A900E922A800E502A900E902A900E1
:1028700000000600851F7800C50020000300090045
:10288000B51F7800800378008404780004F0A1006C
:102890000400E00006003A0009F0A700020037003B
:1028A000050020000F003700050020000D00370054
:1028B000E64252000A0039000003200009F0A60099
:1028C000000220001922AF00FEFF37001AA2B70055
:1028D0008502E900FBFF3B005500200001003700A6
:1028E000840278006400200005E0A00009F0A70041
:1028F00005F0A00008712200110009008883D800AB
:10290000B41402000000000081037800883E20001B
:10291000110009008883D800B414020000000000F0
:102920008103780048062000110009008883D80040
:10293000B41402000000000081037800A800200009
:10294000110009008883D800B414020000000000C0
:102950000003200000C040001922AF00FEFF370036
:102960001AA2B70017003700060320000000E0009D
:102970000E003A0005E0A6000D0037000402E90051
:102980000524E100020032004200AF000000060012
:102990000000E00005003A0005E0A6000400370052
:1029A00005F0A600060220000100370005E0A100A6
:1029B000004043001922AF00FEFF37001AA2B70003
:1029C000000006002501200003000900CF12780056
:1029D000CF02780000000600851F7800C5002000A7
:1029E00003000900B51F78000202B8000303B80015
:1029F0004200A9008502430060844B00020BB8002E
:102A000085024B0008844B00030BB8000804430008
:102A10000780B00087017800080178008500780001
:102A2000040078002501200003000900CF1278007F
:102A3000CF02780000000600851F7800C500200046
:102A400003000900B51F7800090020004300AF0013
:102A500019002000891F78000002EB008002EB00C3
:102A60000003EB008003EB00030469001100320057
:102A7000080220004200A9000080D2008180D2001C
:102A80000482D2008582D2000328E10001003A00CE
:102A900002A0E100030039000202520083825A00C2
:102AA0004200A8000683D2008783D2000804E90010
:102AB000F0FF3A008700780006007800CF04780025
:102AC0000900E000010032000400BE0025012000E2
:102AD00003000900CF127800CF0278000000060042
:102AE00090458000C44C80000020E10002003600C8
:102AF000B208F8009809F900E502A900E902A80067
:102B00001C00090000000000E522A900E922A9003C
:102B10001C000900000000009A29EF00D04C800042
:102B2000C44C80000020E1000F003600E502A9003F
:102B3000E902A9001C00090000000000E502A9004C
:102B4000E902A8001C00090000000000E502A9003D
:102B5000E902A9001C000900000000009A29EC000D
:102B60008E15040000000000E522A900E922A8005B
:102B70000000060090458000C44C80000020E10069
:102B800002003600B208F8009809F900E502A90031
:102B9000E902A9001C00090000000000E522A900CC
:102BA000E922A9001C000900000000009A29EF009A
:102BB000D04C8000C44C80000020E1000B003600A7
:102BC000E502A900E902A8001C00090000000000BD
:102BD000E502A900E902A9001C00090000000000AC
:102BE0009A29EC00D815040000000000E522A90095
:102BF000E922A80000000600851F780034002000AC
:102C0000044C88008229EF00F4002000244C880046
:102C1000F44B8000934580000320B80080027800C8
:102C200005027800A3458000110009000382D80046
:102C3000304C8800A002A900A022A800A002AE008B
:102C4000FEFF37008002F8008809F900F44B80008D
:102C5000434C80008302520005007800554C8800E8
:102C6000B008AE00620037000100200001007800CB
:102C70000160EF0096010200000000008100E80002
:102C80001922AF00FEFF37001AA2B7003001200062
:102C90000008E600F5FF3700F04B8000040020003C
:102CA0003A1402000000000094458000F34B8000BD
:102CB0000320B8008002780005027800A345800058
:102CC000110009000382D800800278000100200072
:102CD000010078000160EF00BA010200000000006E
:102CE0008100E8001922AF00FEFF37001AA2B700EA
:102CF000F00020000008E600F5FF3700050078002E
:102D0000040020003A14020000000000010020002E
:102D1000010078000160EF00DA010200000000000D
:102D20008100E8001922AF00FEFF37001AA2B700A9
:102D3000300120000008E600F5FF3700404C80001D
:102D4000040020003A1402000000000094458000B6
:102D5000434C80000320B800800278000502780010
:102D6000A3458000110009000382D800800278008A
:102D700001002000010078000160EF00FE01020068
:102D8000000000008100E8001922AF00FEFF3700BC
:102D90001AA2B700F00020000008E600F5FF370097
:102DA00005007800040020003A1402000000000032
:102DB00001002000010078000160EF001E02020007
:102DC000000000008100E8001922AF00FEFF37007C
:102DD0001AA2B700600120000008E600F5FF3700E6
:102DE000504C8000040020003A1402000000000053
:102DF000204C8000544C80000020E100B2003600DE
:102E0000104C8000044C80000020E1009D00360042
:102E10008229EC0094458000434C80000320B800D8
:102E20008002780005027800A345800011000900A7
:102E30000382D800604C8800604C8000344C8000D5
:102E40000020E10008003600344C8000634C800014
:102E500083025200C54C880070150200000000007B
:102E60006817040000000000304C8000644C8000B3
:102E70000020E10008003600644C8000334C8000E4
:102E800083025200C54C8800BA1502000000000001
:102E90006817040000000000404C8000F44B8000E4
:102EA0000020E1000600360014002000C44C880019
:102EB0007015020000000000681704000000000008
:102EC00014002000C44C8800BA1502000000000065
:102ED0005E2A090000000000FF3F0900000000001A
:102EE000FF3F090000000000FF3F09000000000054
:102EF000A002A900A022A800A002AE00FEFF370099
:102F00008002F8008809F900404C8000F44B8000F2
:102F10000020E10006003600F44B8000434C8000A6
:102F200003005200504C8800A0170400000000006D
:102F3000444C8000F34B800003005200504C88004A
:102F4000B008AE004D0037000100200001007800FD
:102F50000160EF0044020200000000008100E80070
:102F60001922AF00FEFF37001AA2B700C0002000F0
:102F70000008E600F5FF3700104C80000400200038
:102F80003A1402000000000094458000434C800089
:102F90000320B8008002780005027800A345800075
:102FA000110009000382D80080027800010020008F
:102FB000010078000160EF00FE0102000000000047
:102FC0008100E8001922AF00FEFF37001AA2B70007
:102FD000F00020000008E600F5FF3700050078004B
:102FE000040020003A14020000000000010020004C
:102FF000010078000160EF006002020000000000A4
:103000008100E8001922AF00FEFF37001AA2B700C6
:10301000400120000008E600F5FF3700404C80002A
:10302000040020003A14020000000000F44B80006D
:10303000434C80008302520005007800010020000C
:10304000010078000160EF001E0202000000000095
:103050008100E8001922AF00FEFF37001AA2B70076
:10306000600120000008E600F5FF37000500780049
:10307000040020003A140200000000006018040060
:1030800000000000B008AE000C0037000100200076
:10309000010078000160EF008402020000000000DF
:1030A0008100E8001922AF00FEFF37001AA2B70026
:1030B000800120000008E600F5FF370056003700C9
:1030C000F816040000000000B008AE0052003700FF
:1030D00001002000010078000160EF00AA02020058
:1030E000000000008100E8001922AF00FEFF370059
:1030F0001AA2B700700020000008E600F5FF3700B4
:1031000094458000434C80000320B8008002780082
:1031100005027800A3458000110009000382D80051
:103120008002780001002000010078000160EF00BB
:10313000C0020200000000008100E8001922AF0078
:10314000FEFF37001AA2B700000120000008E600C9
:10315000F5FF370005007800040020003A14020053
:1031600000000000A002A900A022A800A002AE005A
:10317000FEFF3700051480000100200001007800E8
:103180000160EF0060020200000000008100E80022
:103190001922AF00FEFF37001AA2B700400120003D
:1031A0000008E600F5FF3700050078000400200065
:1031B0003A14020000000000A002A900A022A8000A
:1031C000A002AE00FEFF370000148000F44B800028
:1031D0008002520005007800010020000100780004
:1031E0000160EF001E020200000000008100E80004
:1031F0001922AF00FEFF37001AA2B70060012000BD
:103200000008E600F5FF3700050078000400200004
:103210003A14020000000000CF027800000006000F
:10322000851F7800861F7800A002A900A022A800B0
:10323000A002AE00FEFF37008002F8007E09F90010
:10324000F04B80000100200000017800810178002F
:103250004006200001002000EC14020000000000E5
:1032600080027800010378004300A900050078007F
:1032700086007800B2458000030020001C15020083
:103280000000000080A9B700B008AE0018003700A9
:1032900001002000010078000160EF00E002020060
:1032A000000000008100E8001922AF00FEFF370097
:1032B0001AA2B700300120000008E600F5FF370031
:1032C000004C8000040020003A14020000000000BE
:1032D0001922AF00FEFF3700A4002000D4108800A0
:1032E0001922AF00FEFF3700D4002000D410880060
:1032F0008009F8000000F9004F037800CF02780041
:1033000000000600851F7800861F7800C44B8000EF
:10331000430620000418E1000200310044062000AA
:10332000C44B8800B008AE00100037000100200038
:10333000010078000160EF000603020000000000B9
:103340008100E8001922AF00FEFF37001AA2B70083
:10335000200120000008E600F5FF3700C04B800088
:10336000040020003A14020000000000C54B800059
:10337000060020000500780086007800B245800035
:1033800003002000EC14020000000000800278001E
:10339000010378004300A90005007800860078004A
:1033A00042062000030020001C150200000000005F
:1033B0007AA9B7007A09F8007E09F900FC15020025
:1033C00000000000101902000000000000A0B7007B
:1033D0004F037800CF02780000000600BA08F8001A
:1033E0007809F9008219020000000000D802A90043
:1033F000DC02A800D862A900DC62A800DE22A900D5
:10340000E222A900D882A900DC82A800DE02A9007D
:10341000E202A800D2E2A900D6E2A800D842A900A0
:10342000DC42A900D822A900DC22A9000000060085
:10343000E4E2A900E8E2A800E4C2A900E8C2A90009
:10344000D8C2A900DCC2A900D8A2A900DCA2A900A8
:103450000000060030C0B30087E9B70080C9BF0094
:1034600082E9B70081C9BF0083E9B70087C9BF00FF
:1034700084E9B700E4E2A900E8E2A9001C00090021
:10348000000000008569EF00244C80004822DE0027
:103490007824E100190031004200A90082A9D60079
:1034A00084E9D60002003100DCC2A9000100370027
:1034B000DCC2A800D8C2A9001C000900000000005E
:1034C000D8A2A900DCA2A8001C000900000000008E
:1034D000D8C2A900DCC2A9001C000900000000003D
:1034E000D8A2A900DCA2A9001C000900000000006D
:1034F0008569EC00441A0400000000008569EF00B3
:10350000244C80004822DE006824E10016003100CF
:103510001C00090000000000D8E2A800DAE2AF00B9
:10352000020037004200A900010037004200A80055
:1035300086E9D600D8A2A900DCA2A8001C000900D8
:10354000000000001C00090000000000D8A2A90033
:10355000DCA2A9001C000900000000008569EC0045
:10356000801A040000000000E4E2A900E8E2A800DC
:103570001C0009000000000086C9BF0000E0B70081
:1035800000000600851F78007209F8008009F90024
:103590002A1A02000000000076E9B7007769EF0000
:1035A000944B80006102420084027800054C880040
:1035B0002A1A02000000000078E9B7007969EF00DC
:1035C00078C9BF000BE0B7008042EB00050078002F
:1035D0007609B400A04B88007409F8000000F900D7
:1035E000CF02780000000600E408F8007209F90034
:1035F000C21A0200000000005CA9B700B048AE008B
:103600001C00370001002000010078000160EF007D
:103610003E030200000000008100E8001922AF0014
:10362000FEFF37001AA2B700F00020000008E600F5
:10363000F5FF3700E04A8000040020003A14020041
:103640000000000021012000010078000160EF006F
:103650003E030200000000008100E8001922AF00D4
:10366000FEFF37001AA2B700600120000008E60044
:10367000F5FF37005C09F8000000F90000000600C3
:10368000E608F8007209F900C21A02000000000002
:1036900070A9B700B048AE001C0037000100200040
:1036A000010078000160EF006203020000000000EA
:1036B0008100E8001922AF00FEFF37001AA2B70010
:1036C000E00020000008E600F5FF3700804B800096
:1036D000040020003A140200000000001101200044
:1036E000010078000160EF006203020000000000AA
:1036F0008100E8001922AF00FEFF37001AA2B700D0
:10370000900120000008E600F5FF37007009F8007E
:103710000000F90000000600E808F8007209F9004E
:10372000C21A0200000000005CA9B700B048AE0059
:103730001C00370001002000010078000160EF004C
:103740008A030200000000008100E8001922AF0097
:10375000FEFF37001AA2B700D00020000008E600E4
:10376000F5FF3700E04A8000040020003A14020010
:103770000000000001012000010078000160EF005E
:103780008A030200000000008100E8001922AF0057
:10379000FEFF37001AA2B700800120000008E600F3
:1037A000F5FF37005C09F8000000F9000000060092
:1037B000EC08F8007209F900C21A020000000000CB
:1037C0005CA9B700B048AE001C0037000100200023
:1037D000010078000160EF00D80302000000000043
:1037E0008100E8001922AF00FEFF37001AA2B700DF
:1037F000900020000008E600F5FF3700E04A800056
:10380000040020003A14020000000000C100200063
:10381000010078000160EF00D80302000000000002
:103820008100E8001922AF00FEFF37001AA2B7009E
:10383000400120000008E600F5FF37005C09F800B1
:103840000000F900000006000609F8002801F90050
:10385000B0A8AE001C003700010020000100780075
:103860000160EF003E070200000000008100E80058
:103870001922AF00FEFF37001AA2B7005002200045
:103880000008E600F5FF3700304880000400200003
:103890003A140200000000001922AF00FEFF3700BA
:1038A000A4002000D41088001922AF00FEFF3700CA
:1038B000A4002000D41088001922AF00FEFF3700BA
:1038C000D4002000D410880000000600EA08F800A8
:1038D0007209F900C21A0200000000005CA9B700DA
:1038E000E44A800003EE22000418E10004003E00D8
:1038F000E44A8000832C23000418E1000200310018
:10390000440D2300E44A8800B048AE001C00370094
:1039100001002000010078000160EF00B003020008
:10392000000000008100E8001922AF00FEFF370010
:103930001AA2B700400120000008E600F5FF37009A
:10394000E04A8000040020003A1402000000000059
:103950001922AF00FEFF370004022000D4108800B7
:103960001922AF00FEFF3700A4002000D410880009
:103970001922AF00FEFF3700D4002000D4108800C9
:103980005C09F8000000F90000000600851F7800BF
:103990007A09E20003003A007C29EF00DC1C0400F5
:1039A00000000000D44B80007E20B8008002780028
:1039B00061805200E04B8800CA01A8007C09F80031
:1039C000C401F9007C09F800D601F900CA01A90078
:1039D000CF027800000006000000E0004220AF00A7
:1039E0000400370019000900000000000000E90091
:1039F000FCFF3A0000000600D621EF00200E8000F8
:103A0000EC1C020000000000C1E1A900C401F800A4
:103A1000D601F900B088AE000C003700010020008C
:103A2000010078000160EF009E0702000000000026
:103A30008100E8001922AF00FEFF37001AA2B7008C
:103A4000D00020000008E600F5FF37000000060067
:103A50007809F8002601F900B0A8AE001C00370074
:103A600001002000010078000160EF000E07020055
:103A7000000000008100E8001922AF00FEFF3700BF
:103A80001AA2B700D00120000008E600F5FF3700B9
:103A9000C04B8000040020003A1402000000000027
:103AA0001922AF00FEFF3700A4002000D4108800C8
:103AB0001922AF00FEFF3700A4002000D4108800B8
:103AC0001922AF00FEFF3700D4002000D410880078
:103AD000000006002601F8000000F90000000600C2
:103AE000851F78008F00A900C1E1A8007009A80017
:103AF0007229EF007009AE001601370088E0AE00B1
:103B00001201370088E0A9007229EC00B1C8BF009B
:103B10000160EF000080B200090032001080B200A6
:103B20005B0032002080B2008E0032001080B200B4
:103B30009C0032006080B200BF00320003013700F9
:103B4000FC48AF003F003700FC28AF0027003700DB
:103B5000D362A800D562AE0018003700904B8000F9
:103B6000F44780000020E1000C0036007209F800E4
:103B7000D608F900904B80004100DD0000010200F2
:103B80000000000080027800D54B8800C61C0200AF
:103B900000000000DA1D040000000000FE08F8002C
:103BA000D608F900D008F8007A09F900C61C02000E
:103BB00000000000F21D040000000000FC28A80026
:103BC000D628ED00B04680004100DD000001020073
:103BD0000000000080027800D54B8800C61C02005F
:103BE000000000001E1E040000000000D608E200D5
:103BF00009003A00FC48A800D882A900DC82A9008C
:103C0000843E2000D44B8800C61C02000000000047
:103C10001E1E040000000000D628ED00B046800003
:103C20004100DD0000010200000000008002780079
:103C3000D54B8800C61C020000000000441E040092
:103C400000000000D362A800D562AE000E0037006D
:103C5000FC1C0200000000007009A90020032000E5
:103C60007A13020000000000C608F8007809F90085
:103C7000281D020000000000BA08F8007809F900C9
:103C80008219020000000000A61F040000000000CE
:103C9000A0468000944B80000020E10027003900FE
:103CA000904B8000D208E3000D003A00D628ED00CA
:103CB000B04680004100DD0000010200000000006D
:103CC00080027800D54B8800C61C0200000000006E
:103CD00020C0B300B1E8B7009A1E04000000000045
:103CE00094468000934B8000830252006228E100DA
:103CF0000A003100904B80004100DD00000102000D
:103D00000000000080027800D54B8800C61C02002D
:103D1000000000009A1E040000000000D008F80017
:103D20007A09F900C61C02000000000030C0B30090
:103D3000B1E8B700AE1E040000000000904B800008
:103D40004100DD0000010200000000008002780058
:103D5000D54B8800C61C020000000000A61F04000E
:103D600000000000904B8000D208E3000B003A00F6
:103D7000D628ED00B04680004100DD0000010200C1
:103D80000000000080027800D54B8800C61C0200AD
:103D90000000000020C0B300B1E8B700A61F040077
:103DA00000000000D608E20018003A00FC1C0200E7
:103DB00000000000D828EF0040C0B300B1E8B70011
:103DC000200320007A130200000000006A1D020098
:103DD000000000005446800000005200D0468800D9
:103DE000D44680006120E10004003400D882A9009C
:103DF000DC82A900021F040000000000D882A90094
:103E0000DC82A800181F040000000000D628ED0086
:103E1000B04680004100DD0000010200000000000B
:103E200080027800D54B8800C61C0200000000000C
:103E3000A61F040000000000D828EC00200320008A
:103E40007A13020000000000FC88AE000900370071
:103E5000FC88A900200320007A1302000000000063
:103E60007209F800DE08F9006A1D02000000000077
:103E7000E0A8B700D44680006120E10008003D00C2
:103E80006A1D020000000000800278005446800095
:103E900004805200A04B88005A1F0400000000005C
:103EA0006A1D02000000000054468000000052001D
:103EB000A04B8800A44B80006120E1000400350085
:103EC000C4468000230320000418E10009003100EB
:103ED000FC1C0200000000007009A900BA08F800EC
:103EE0007809F9008219020000000000A21F0400F6
:103EF000000000006A1D020000000000544680001F
:103F00000020E10004003600D882A900DC82A9006C
:103F1000901F040000000000D882A900DC82A800E5
:103F2000843E2000D44B8800C61C02000000000024
:103F300014002000C44B8800DA13020000000000C7
:103F4000C1E1A800A61F0400000000007A1D0400C3
:103F50000000000003000900E01080008700A900B5
:103F60008F00A800FC68A900CF02780000000600BE
:103F700001002000010078000160EF00FC09020050
:103F8000000000008100E8001922AF00FEFF3700AA
:103F90001AA2B700A00020000008E600F5FF3700D5
:103FA000B168EF00D628EF00FC28A900FC48A90062
:103FB000D882A900DC82A800B808F8007809F900C6
:103FC0008219020000000000047D2000D44B88000C
:103FD000C61C0200000000007829EF00DA1302007E
:103FE00000000000701D020000000000000006003C
:103FF000F008F8007209F900C21A0200000000007F
:104000005CA9B700B048AE001C00370001002000DA
:10401000010078000160EF0084040200000000004D
:104020008100E8001922AF00FEFF37001AA2B70096
:10403000E00020000008E600F5FF3700E04A8000BD
:10404000040020003A1402000000000011012000CA
:10405000010078000160EF0084040200000000000D
:104060008100E8001922AF00FEFF37001AA2B70056
:10407000500120000008E600F5FF37005C09F80059
:104080000000F9000000060060C0B30084E9B7003A
:1040900020C0B30085E9B70040C0B30086E9B7008F
:1040A0007EC9BF0080E9B7007CC9BF0081E9B700C5
:1040B0007DC9BF0082E9B70085C9BF0083E9B700A9
:1040C000E4E2A900E8E2A9001C00090000000000E9
:1040D0007F69EF00F44B80004822DE006824E10095
:1040E000180031004200A90084E9D6000200310026
:1040F000DCC2A90001003700DCC2A800D8C2A900B8
:104100001C00090000000000D8A2A900DCA2A80041
:104110001C00090000000000D8C2A900DCC2A900F0
:104120001C00090000000000D8A2A900DCA2A90020
:104130001C000900000000007F69EC006A200400F8
:10414000000000001C00090000000000E4E2A900DB
:10415000E8E2A8001C00090000000000E4E2A90059
:10416000E8E2A9001C000900000000007F69EF00E0
:10417000F44B80004822DE0003022000041CE10012
:10418000190036004200A90080A9D60082A9D600F5
:1041900002003100DCC2A90001003700DCC2A80027
:1041A000D8C2A9001C00090000000000D8A2A90084
:1041B000DCA2A8001C00090000000000D8C2A90071
:1041C000DCC2A9001C00090000000000D8A2A90060
:1041D000DCA2A9001C000900000000007F69EC00BF
:1041E000B8200400000000001C00090000000000CE
:1041F000E4E2A900E8E2A8001C00090000000000B9
:10420000E4E2A900E8E2A9001C00090000000000A7
:104210007F69EF00F44B80004822DE006824E10053
:10422000180031004200A90086E9D60002003100E2
:10423000DCC2A90001003700DCC2A800D8C2A90076
:104240001C00090000000000D8A2A900DCA2A80000
:104250001C00090000000000D8C2A900DCC2A900AF
:104260001C00090000000000D8A2A900DCA2A900DF
:104270001C000900000000007F69EC000A21040016
:10428000000000001C00090000000000E4E2A9009A
:10429000E8E2A8001C000900000000000000060081
:1042A000851F780072C9BF0075E9B7000160EF0093
:1042B00073C9BF0074E9B70075C9BF007EE9B700D4
:1042C0007009F8007C09F900442002000000000099
:1042D000844B8000610242008402780074C9BF00F0
:1042E0007EE9B700E54B8800442002000000000092
:1042F000CF02780000000600F008F8007009F9000D
:104300006809F8007209F90050210200000000005D
:1043100000000600851F7800861F7800E108200055
:104320000000E0001200320000F0A7000400370097
:104330004200A9000080D2008100E900FAFF3700A6
:104340000180FD004200A9008180D30000F0A1009F
:104350000080FD00814068000040B2000700370087
:10436000014078000170A0000140B2000300370056
:104370000000EB008000EB00000037004F037800E6
:10438000CF02780000000600851F7800C5002000DD
:1043900004000900B51F78008004EB0083846800E6
:1043A000010378008002780003047800820378001B
:1043B0008180D2000180FD008180FB000100E000CF
:1043C0004E0032008381D2000380FD008381FB0018
:1043D0000300E000490032000000EB0003C0500081
:1043E00003003900F047B0004400310003003700FB
:1043F0001048B100410039004000320085007800CB
:10440000060178000270A000F20FB200F80FB200AF
:104410000870A0009A0120008001EB000002EB0070
:104420008780500008015900020033000400310069
:1044300004003A008780400008014900010037006D
:104440000400A0000A05E900070032004200A900AC
:104450008180D2000281D2004200A9000482D200F1
:104460008381D200EEFF37000005EB000380A70038
:1044700001003700060037004200A9008381D30005
:104480000370A1000482D3000A85D2000200370025
:104490000000E900190032000AF0A7000500390009
:1044A0008180D2000281D20087805000080159002B
:1044B000090039000402E80007003A008301E8001F
:1044C00005003A000000E8000C003200020037004E
:1044D0000000E900090032000080FD008080D30068
:1044E00001F0A00009F0A60001F0A1000370A100F6
:1044F00081C069000400780003003700000020003C
:1045000001002000000037004501200004000900E0
:10451000CF127800CF02780000000600851F7800D7
:10452000C500200004000900B51F780000027800D3
:104530008102780083037800020378004200A9001A
:104540004220A9008180D2000180FD00F10FB2005D
:104550000100E0004B0032004200A9004220A90007
:104560008381D2000380FD00F30FB2000300E0005E
:10457000440032000080FB0001C041000400310013
:10458000F007B1003F0032003E0039000200370062
:104590001048B0003B00310007856A004200A900C6
:1045A0004220A900F50FB2000570A0004200A9004A
:1045B000F70FB2000770A0000621B800062CB80063
:1045C00083014C00890078004200AF008100E800C0
:1045D0004200A900043CB80083014C0081804C00DB
:1045E000072CB80081004C000000E8000100E0004A
:1045F0004220AF0001003700030037000300E00055
:104600004220AF000500370001F0A700030037008B
:104610008381D2008180D2000000E900010178008E
:104620004200A9000370A6000900370007F02F0020
:10463000878161000310B000600149000200E000C2
:1046400003003A000300E00001003A000000E80027
:104650000080FD004200A9004220A9008080D30014
:104660000AF0A70001F0A00002F0A1000280FD0006
:10467000814069000380FD0003417800020078005A
:104680000300370000002000010020000000370078
:104690004501200004000900CF127800CF02780005
:1046A00000000600851F7800C500200003000900F7
:1046B000B51F78008004EB00080028004300AF001D
:1046C00083016C000000E00003003A00FAFF2700BD
:1046D0000A8560004220AE00010578008A856900E5
:1046E0000103780083037800030678004220A900C4
:1046F0004200A9000683D2000680FD00F60FB2003A
:104700000600E000A10032004220A9004200A900FA
:104710008783D2000780FD00F70FB2000700E0009A
:104720009F0032004220A9004200A9000638E100A3
:104730009C003200A30033000900A1000910A00072
:104740000684530007037800F10FB2000170A00047
:10475000F30FB2000370A000870220000838E100C8
:10476000110033004220A9004200A9008180D3003B
:104770000080D3000804E900FAFF3A000D0037007A
:10478000870220000838E100090033004220A90018
:104790004200A9008381D3000281D3000804E9000C
:1047A000FAFF3A000F00370002007800830078001B
:1047B000430037000BF0A600110037000940A700A6
:1047C0008C0578000000EA000200320081C0EA0097
:1047D000010037008100EA000940A7002B003700E4
:1047E000070037000BF0A600050037000201EA00C1
:1047F0000200320083C1EA00010037008301EA00B1
:10480000F50FB2004220A9004200A90002004000BA
:1048100083C048004200AF000930A0000900A70093
:10482000090037000910A700010037000B0037000E
:104830000BF0A700150037000930A700290037004A
:104840000960A0001E0037000BF0A7000F00370022
:104850000930A70023003700190037000920A10004
:104860000BF0A700040037008A0578000930A70084
:104870001C003700360037000940A00001C8B20014
:104880000170A700CDFF37008A057800F10FB20054
:10489000810370000A0032000170A7000800370091
:1048A0004220A9004200A9000080D2008180D200ED
:1048B0000603E9004220AF0031003700F6FF370061
:1048C0000900A7008A0578000910A7008C05780068
:1048D0000950A6001A0037000AF0A7000080A000C7
:1048E0001B0037004200A80081C0D3000080D30025
:1048F0004200AF000950A0000603E800200032008B
:104900000950A600080037000000E80006003A0041
:104910008140E80004003A0081C0D3000080D30049
:104920000603E800160032000900A7008A05780097
:104930000910A7008C0578004220AF001000370056
:104940000960A7008A0578000970A7008C05780027
:1049500001017000230032000170A1000680FD00FB
:104960004220A9004200A9000683D30081006B0009
:1049700001F0A0000BF0A60001F0A1001900370023
:104980000000200001002000160037000AF0A700F8
:1049900083016C000200780083007800110037006A
:1049A00010003700F30FB2000370A000F10FB20047
:1049B0000170A0000BF0A7000370A1000920A00067
:1049C00088FF370007045300F10FB2000170A00008
:1049D000F30FB2000370A0000910A1000900A000AD
:1049E00067FF37002501200003000900CF1278007F
:1049F000CF027800000006000001780081017800F5
:104A0000014078000080FD0000F0A0008180D2000D
:104A10000180FD008180FB00E408200081405200FD
:104A2000060032000000E000040032004200A9004D
:104A30000080D3008100E900FAFF3A0003F0A600ED
:104A4000020037000000EA00000037000000060006
:104A5000851F7800C500200003000900B51F7800FD
:104A60000202B80003F0A600020037000383B90079
:104A7000010037000303B8004200A900850243008B
:104A800060844B0001F0A60002003700028BB900E1
:104A900001003700020BB80085024B0008844B0070
:104AA0000980B000038BB90008044B0087834C00D9
:104AB00087017800080178008500780004007800FC
:104AC0002501200003000900CF127800CF027800F2
:104AD00000000600851F7800C500200003000900C3
:104AE000B51F7800090020004300AF001900200026
:104AF000891F78008384680001F0A6000300370056
:104B00008180EA000000EA00E080480003F0A6008F
:104B1000030037008381EA000201EA00E0814900D6
:104B200003026900150032000002EB008002EB0076
:104B30000003EB008003EB00080220004200A90004
:104B40000080D2008180D2000482D2008582D2000F
:104B50000328E10001003A0002A0E100030039004F
:104B60000202520083825A004200A8000683D2004B
:104B70008783D2000804E900F0FF3A0009F0A6009C
:104B8000070037000600EA000100320002003A0088
:104B90008700EA00050037008780EA00030037003D
:104BA000870078000600780000003700CF04780006
:104BB0000900E000010032000400BE0025012000D1
:104BC00003000900CF127800CF0278000000060031
:104BD000851F7800861F78006A1D02000000000013
:104BE0006CA9B7006809F800CA08F900604B80009A
:104BF000544680000020E10008003600D882A90059
:104C0000DC82A90054468000634B80000300520000
:104C1000504B88001A26040000000000D882A9002A
:104C2000DC82A800644B80005346800003005200E1
:104C3000504B8800554B800006002000050078008E
:104C4000860078000271220003002000282502005F
:104C50000000000080027800010378004300A900F2
:104C60000500780086007800E245800003002000FF
:104C70006A250200000000006AA9B700B088AE00F3
:104C80001800370001002000010078000160EF00EB
:104C9000BA070200000000008100E8001922AF00FE
:104CA000FEFF37001AA2B700D00020000008E6007F
:104CB000F5FF3700504B8000040020003A1402003A
:104CC000000000001922AF00FEFF3700A400200002
:104CD000D41088001922AF00FEFF3700D400200056
:104CE000D41088006A09E20001003A0099003700F8
:104CF000554B8000060020000500780086007800F3
:104D000072468000030020002825020000000000F9
:104D1000800278000103780060468000CE08B4006D
:104D20004300A900860078000001780003002000FD
:104D3000050078006A25020000000000D4A8B70032
:104D4000D408E20002003A0014002000A4468800C3
:104D5000F0478000A44680000020E1001A003900DE
:104D6000FE08F800D408F900F5478000060020008E
:104D7000050078008600780062468000030020006D
:104D8000282502000000000080027800010378005E
:104D90004300A90005007800860078007246800074
:104DA000030020006A25020000000000D6A8B7001A
:104DB000544B8000B34680000300520090468800A8
:104DC000F026040000000000544B8000A346800041
:104DD0000300520090468800D408F800D608F90075
:104DE000D208E20002003A00140020009446880035
:104DF000B088AE00480037000100200001007800B4
:104E00000160EF00DA070200000000008100E80006
:104E10001922AF00FEFF37001AA2B70030012000B0
:104E20000008E600F5FF3700A046800004002000DF
:104E30003A140200000000001922AF00FEFF370004
:104E4000A4002000D41088001922AF00FEFF370014
:104E5000D4002000D4108800010020000100780058
:104E60000160EF0000080200000000008100E8007F
:104E70001922AF00FEFF37001AA2B7003001200050
:104E80000008E600F5FF370090468000040020008F
:104E90003A140200000000001922AF00FEFF3700A4
:104EA000A4002000D41088001922AF00FEFF3700B4
:104EB000D4002000D41088000100200001007800F8
:104EC0000160EF0026080200000000008100E800F9
:104ED0001922AF00FEFF37001AA2B70030012000F0
:104EE0000008E600F5FF3700B0468000040020000F
:104EF0003A140200000000001922AF00FEFF370044
:104F0000A4002000D41088001922AF00FEFF370053
:104F1000D4002000D410880010C0B300B1E8B7005E
:104F2000B808F8007809F9008219020000000000B2
:104F3000047D2000D44B8800C61C02000000000045
:104F40007829EF00DA13020000000000701D020053
:104F5000000000004F037800CF0278000000060038
:104F6000851F7800C500200003000900B51F7800E8
:104F700000F0A6000C0037000000EA000480A0004A
:104F800004F0A60008003700801F7800D00220003F
:104F90001922AF00FEFF37001AA2B7004F007800B9
:104FA0000480A1000860ED008002EB00800378001F
:104FB0008404780004F0A1000404E00006003A0034
:104FC00009F0A70002003700050020000F0037009D
:104FD000050020000D003700E64252000A003900AB
:104FE0000003200009F0A600000220001922AF00F3
:104FF000FEFF37001AA2B7008502E900FBFF3B0065
:105000005500200001003700840278006400200071
:105010000580A7000402E80005E0A00009F0A70051
:1050200005F0A00008712200110009008883D80053
:105030005C2802000000000081037800883E200008
:10504000110009008883D8005C28020000000000DD
:105050008103780048062000110009008883D800E9
:105060005C2802000000000081037800A8002000F6
:10507000110009008883D8005C28020000000000AD
:105080000980A60005003700D00220001922AF00D9
:10509000FEFF37001AA2B7000980A100000320001C
:1050A00000C04000500188001922AF00FEFF370009
:1050B0001AA2B70020003700060320000000E0001D
:1050C0000E003A0005E0A600160037000402E900D1
:1050D0000524E100020032004200AF00000006009B
:1050E0000000E00005003A0005E0A6000D003700D2
:1050F00005F0A600060220000A00370005E0A10026
:105100000980A6000700370000057800D0022000C3
:105110001922AF00FEFF37001AA2B7000980A100D4
:105120000A007800004043001922AF00FEFF37005C
:105130001AA2B700000006002501200003000900A4
:10514000CF127800CF02780000000600851F78009B
:10515000C500200004000900B51F7800F04580005C
:10516000144B80000020E10012003600BE08F80059
:105170006209F900B068AE000C00370001002000A1
:10518000010078000160EF004C0802000000000000
:105190008100E8001922AF00FEFF37001AA2B70015
:1051A000800720000008E600F5FF370022290400F0
:1051B00000000000104B8000444680000020E10009
:1051C00020003600C808F8006209F900B068AE0097
:1051D0001C00370001002000010078000160EF0092
:1051E000BA080200000000008100E8001922AF00A8
:1051F000FEFF37001AA2B700C00320000008E60037
:10520000F5FF370040468000040020003A140200F9
:1052100000000000F1032000010078000160EF00B1
:10522000BA080200000000008100E8001922AF0067
:10523000FEFF37001AA2B700100720000008E600A2
:10524000F5FF370001002000010078000160EF0049
:1052500024090200000000008100E8001922AF00CC
:10526000FEFF37001AA2B700200120000008E60068
:10527000F5FF3700104B8000040020003A140200B4
:105280000000000051012000010078000160EF00E3
:1052900024090200000000008100E8001922AF008C
:1052A000FEFF37001AA2B700900120000008E600B8
:1052B000F5FF37006209F8006809F9007C21020057
:1052C00000000000144B80004346800003005200A1
:1052D0008A210200000000008002780001037800AB
:1052E00005007800860078000200200003002400FA
:1052F000C421020000000000800278000103780051
:105300001446800003468000030052008A210200F8
:10531000000000008003780001047800F44580005C
:1053200043468000030052008A2102000000000072
:105330008004780001057800090078008A00780070
:105340000200200003002400C4210200000000002D
:10535000000178008101780007007800880078005B
:10536000C4210200000000000001780081017800E3
:1053700005007800860078008E2202000000000000
:105380008002780001037800104680008A21020024
:10539000000000004300A8000501780086017800A5
:1053A0005223020000000000FC2402000000000064
:1053B00064A9B7006A1D02000000000080027800A6
:1053C000244B80000520E10004003600244B8000BF
:1053D000E346800003005200204B88006409F80077
:1053E0006809F900E82502000000000040062000DE
:1053F0007A13020000000000B068AE007B003700A6
:1054000001002000010078000160EF004C0902005B
:10541000000000008100E8001922AF00FEFF370005
:105420001AA2B700E00020000008E600F5FF3700F0
:10543000D046800004002000B027020000000000D9
:105440001922AF00FEFF3700A4002000D41088000E
:105450001922AF00FEFF3700D4002000D4108800CE
:1054600001002000010078000160EF006C090200DB
:10547000000000008100E8001922AF00FEFF3700A5
:105480001AA2B700500120000008E600F5FF37001F
:1054900050468000040020003A1402000000000082
:1054A0001922AF00FEFF3700A4002000D4108800AE
:1054B0001922AF00FEFF3700D4002000D41088006E
:1054C0006A1D020000000000800278000100200038
:1054D000010078000160EF00940902000000000064
:1054E0008100E8001922AF00FEFF37001AA2B700C2
:1054F000600120000008E600F5FF37000500780095
:10550000040020003A140200000000001922AF003D
:10551000FEFF3700A4002000D41088001922AF003D
:10552000FEFF3700D4002000D410880001002000C6
:10553000010078000160EF00BC09020000000000DB
:105540008100E8001922AF00FEFF37001AA2B70061
:10555000500120000008E600F5FF3700C04680003B
:10556000040020003A140200000000001922AF00DD
:10557000FEFF3700A4002000D41088001922AF00DD
:10558000FEFF3700D4002000D41088000100200066
:10559000010078000160EF004C09020000000000EB
:1055A0008100E8001922AF00FEFF37001AA2B70001
:1055B000E00020000008E600F5FF3700D04680003C
:1055C00004002000B0270200000000001922AF00F4
:1055D000FEFF3700A4002000D41088001922AF007D
:1055E000FEFF3700D4002000D41088006A1D02009E
:1055F000000000008002780054468000848252003F
:1056000001002000010078000160EF00E4090200C1
:10561000000000008100E8001922AF00FEFF370003
:105620001AA2B700600020000008E600F5FF37006E
:105630000500780004002000B027020000000000F0
:105640001922AF00FEFF3700A4002000D41088000C
:105650001922AF00FEFF3700D4002000D4108800CC
:105660004501200004000900CF127800CF02780025
:1056700000000600851F7800F41A020000000000F8
:10568000BEA8B700401B020000000000C0A8B70081
:105690008C1B020000000000C2A8B700D81B02004B
:1056A00000000000DCA8B70010468000C408B40069
:1056B0008002780035488800241C020000000000A9
:1056C000661C020000000000BCA8B700F445800082
:1056D000037D20000418E10002003A008407200046
:1056E00044468800B81F020000000000401F200050
:1056F0007A13020000000000B068AE001F003700FF
:10570000F81F020000000000800278000100200065
:10571000010078000160EF00140A020000000000A0
:105720008100E8001922AF00FEFF37001AA2B7007F
:10573000500120000008E600F5FF37000500780062
:10574000040020003A140200000000008101200043
:10575000010078000160EF00140A02000000000060
:105760008100E8001922AF00FEFF37001AA2B7003F
:10577000C00120000008E600F5FF3700F81F020016
:105780000000000080027800154B8800A628020067
:1057900000000000CF02780000000600EE08F800CC
:1057A0008009F9002A1A0200000000005CE9B70035
:1057B000B048AE00310037005CC9BF000160EF00A7
:1057C0000080B200030032001080B2000F003200EF
:1057D0001C00370001002000010078000160EF008C
:1057E000FA030200000000008100E8001922AF0067
:1057F000FEFF37001AA2B700200220000008E600D2
:10580000F5FF37003E2C04000000000001002000DE
:10581000010078000160EF002A040200000000008F
:105820008100E8001922AF00FEFF37001AA2B7007E
:10583000000220000008E600F5FF37003E2C0400BF
:105840000000000001002000010078000160EF006E
:1058500058040200000000008100E8001922AF0097
:10586000FEFF37001AA2B700E00120000008E600A2
:10587000F5FF37003E2C0400000000005CC9BF00AB
:1058800000E0B70000000600851F7800861F780042
:105890005C69EF005C69EF00E44A80006D24E10080
:1058A00028003100E44A80000960EF00E395200001
:1058B000830242001802AE00FEFF3700E0108000B5
:1058C0000043B1000160EF00804A7800E44A8000A4
:1058D0000960EF001347800084824100E44A8000A1
:1058E0000960EF00E39520000300420010437800B8
:1058F0007E09F800E6FF9F007E09F900E54B88006D
:105900004420020000000000E44A80000960EF002B
:10591000E39520000300420004032000904178003A
:1059200084C24100054078001922AF00FEFF370015
:105930001AE2B7001B62EF005C69EC004C2C04001B
:10594000000000004F037800CF027800000006003E
:10595000851F7800861F78005C69EF005C69EF00A6
:10596000E44A80006424E1001A0031005CC9BF00F1
:105970000160EF004100DD00E4952000840240005A
:105980001802AE00FEFF3700E01080000043B100B7
:105990000160EF00800A78005CC9BF000160EF0081
:1059A0004100DD00E49520000400400090027800F2
:1059B0000503B000054078001922AF00FEFF370054
:1059C0001AE2B7001B62EF005C69EC00B02C040027
:1059D00000000000843E2000F34A80000320B8004D
:1059E0008002780044062000034B80000320B800AA
:1059F00085024000144B80006A20B80085024000F8
:105A0000050078006409B400304B8800344B8000F6
:105A1000031920000418E1001000360001002000E6
:105A2000010078000160EF000205020000000000A4
:105A30008100E8001922AF00FEFF37001AA2B7006C
:105A4000E00520000008E600F5FF370004192000FB
:105A5000344B8800522D040000000000344B8000BD
:105A6000037D20000418E1000E0031000100200039
:105A7000010078000160EF005E05020000000000F8
:105A80008100E8001922AF00FEFF37001AA2B7001C
:105A9000F00520000008E600F5FF3700047D200037
:105AA000344B8800344B8000037D20000418E10053
:105AB00004003A008407200044468800662D040054
:105AC000000000006404200044468800E408F80058
:105AD0007009F9006609F8007209F9005021020006
:105AE000000000006609F800BE08F9004F037800C6
:105AF000CF02780000000600851F7800861F78001E
:105B00005C69EF005C69EF00E44A80006424E10016
:105B10001A0031005CC9BF000160EF004100DD00E8
:105B2000E4952000840240001802AE00FEFF37001A
:105B3000E01080000043B1000160EF00800A7800AF
:105B40005CC9BF000160EF004100DD00E49520006A
:105B500004004000900278000503B0000540780082
:105B60001922AF00FEFF37001AE2B7001B62EF00F8
:105B70005C69EC00842D040000000000843E2000DD
:105B8000F34A80000320B800800278004406200019
:105B9000034B80000320B80085024000144B8000B6
:105BA0006A20B80085024000050078006409B4004E
:105BB000304B8800344B80006A20E1000D0031003A
:105BC00001002000010078000160EF00BC05020028
:105BD000000000008100E8001922AF00FEFF37003E
:105BE0001AA2B700500520000008E600F5FF3700B4
:105BF00008003700E608F8007009F9006609F800A7
:105C00007209F90050210200000000006609F80046
:105C1000C008F9004F037800CF02780000000600AA
:105C2000851F7800861F78005C69EF005C69EF00D3
:105C3000E44A80006524E1001A0031005CC9BF001D
:105C40000160EF004100DD00E49520008402400087
:105C50001802AE00FEFF3700E01080000043B100E4
:105C60000160EF00800A78005CC9BF000160EF00AE
:105C70004100DD00E495200004004000900278001F
:105C80000503B000054078001922AF00FEFF370081
:105C90001AE2B7001B62EF005C69EC00182E0400EA
:105CA0000000000004712200F34A80000320B800C5
:105CB00080027800843E2000034B80000320B8005F
:105CC0008502400044062000134B80000320B800EA
