:060000008031B42D000068
:0800080083018031200077081C
:10001000A0007808A1007908A2007A08A300850151
:1000200091308400801E1628911A16292008F700A6
:100030002108F8002208F9002308FA000900432AE1
:1000400052262029E533E939F432F2043A1000004F
:10005000432A52262029E533E939F432F2043A10D2
:100060000000432A52262029E533E939F432F2040C
:100070003A100000432A52262029E533E939F432A8
:10008000F2043A100000432A52262029E533E939C8
:10009000F432F2043A100000432A52262029E533B4
:1000A000E939F432F2043A100000432A522620299A
:1000B000E533E939F432F2043A100000432A5226BB
:1000C0002029E533E939F432F2043A100000D4274C
:1000D000D228D5222029E533E939F432F2043A1046
:1000E0000000D427D228D5222029E533E939F4327B
:1000F000F2043A100000D427D228D5222029E53373
:10010000E939F432F2043A100000D42746232029BA
:10011000E533E939F432F2043A100000D4274623DB
:100120002029E533E939F432F2043A100000D427EB
:1001300046232029E533E939F432F2043A1000006D
:10014000422641274B10D232E734733A6539091DF4
:100150002000422641274B10D232E734733A6539EA
:10016000091D2000422641274B10D232E734733A52
:100170006539091D2000C422C3205910D232E7344A
:10018000733A6539091D2000C422C3205910D232A8
:10019000E734733A6539091D2000C422C320591081
:1001A000D232E734733A6539091D2000532A4126BB
:1001B0004C10D232E734733A6539091D2000532AB6
:1001C00041264C10D232E734733A6539091D2000BC
:1001D000532A41264C10D232E734733A6539091D4F
:1001E0002000532A41264C10D232E734733A653945
:1001F000091D20004429492B4510D232E734733AB7
:100200006539091D2000532A412AD5292029E533C3
:10021000E939F432F2043A1000004439693B653997
:1002200020226531F5333A10A53A00000708210075
:10023000911201302000B500911280311628203033
:10024000850084000008031932290A30F800F701FC
:10025000F70B2829F80B27295F30F700F70B2E2919
:10026000800B2529080022001D179D1680312000D3
:10027000E82D2400951215129511151195141510DD
:1002800094131417951680312000E92D21008C134A
:1002900022008C1321008C1022008C1021000C12E3
:1002A00022000C1221000C1022000C1080312000C2
:1002B000EA2D0B08BE008B132300951715140000C0
:1002C000000013087F390319A0292000BF00230074
:1002D00011082000C000230012082000C1003F08C0
:1002E000111E702923009A0020004008230091006D
:1002F000200041082300920095171514000000000B
:10030000130D140D7F390319A0292000BF0023000D
:1003100011082000C000230012082000C1003F087F
:10032000111E902923009A0020004008230091000C
:100330002000410823009200910A0319920A5D29C6
:100340002000BE1B8B17080040080F3C0318AC2987
:100350000030F800F900FB294008103C4102031965
:10036000B729031CB7290030F800F900FB29C401A4
:10037000410844020318F7294308FA004208F9002B
:100380004408F7000319C829FA36F90CF70BC429F9
:100390007908791CDE2944084007C500FA010130BC
:1003A000F9004508F7000319D929F935FA0DF70BBB
:1003B000D5297908BE047A08BF04F5294408400706
:1003C000C500FA010130F9004508F7000319EC29CE
:1003D000F935FA0DF70BE8297908FF3AF700FF30F5
:1003E000FA067708BE057A08BF05C40AB8293E0890
:1003F000F8003F08F900080024009201200041089D
:10040000240091002000911D032A91110800341C42
:10041000732A103084003F08C1003E08C000050860
:10042000C8000408C700410EF038C300C307E23E0D
:10043000C400323EC60041080F39C407C407C607CE
:10044000E93EC500C507C507400E0F39C507C607F9
:10045000C50DC60DC609C60D40080F39C607C30D28
:100460000730C2000A30C607C503031C332AC5077C
:10047000C403031C372AC407C303031C3B2AC30756
:10048000C203031C3F2A8501423084000730470520
:100490004713840746300402031947170008F70082
:1004A000031D5A2A471B5A2A471A642AC7195A2A6F
:1004B00020305D2AC71547123030F7077708111E24
:1004C0005F2A23009A0020000131471F4A2A0A3080
:1004D000111E682A23009A000D302000111E6E2A7A
:1004E00023009A00200021008C1322008C1720008A
:1004F0003F08C000C100FC213E08C000C100FC2133
:1005000021008C1322008C130A302000C0001F2110
:1005100008000A30B600B701B801B9010830BA00C6
:10052000BB01BC010130BD00341C9D2A1F302300DB
:1005300091000030920020005921A501A401250856
:10054000BF002408BE000F30C0000130C100C3014D
:10055000C201A4217908A5007808A4002508BF00DD
:100560002408BE000C30C0000330C100C301C2012A
:10057000A4217908A5007808A4002508BF00240854
:10058000BE000A30C0000230C100C3013708C200FB
:10059000A4217908A5007808A4002508BF00240834
:1005A000BE000830C0000230C100C3013808C200DC
:1005B000A4217908A5007808A4002508BF00240814
:1005C000BE000730C0000130C100C3013908C200BD
:1005D000A4217908A5007808A4002508BF002408F4
:1005E000BE000330C0000430C100C3013A08C2009D
:1005F000A4217908A5007808A4002508BF002408D4
:10060000BE000230C0000130C100C3013B08C2007F
:10061000A4217908A5007808A4002508BF002408B3
:10062000BE000130C000C100C3013C08C200A421CB
:100630007908A5007808A4002508BF002408BE009A
:10064000C0010130C100C3013D08C200A4217908E6
:10065000A5007808A4002508BF002408BE000722D2
:10066000B7013230B800341C3C2B673023009100B6
:100670000030920020005921A701A6012708BF00E1
:100680002608BE000F30C0000130C100C301C20106
:10069000A4217908A7007808A6002708BF0026082B
:1006A000BE000C30C0000330C100C3010130C200E5
:1006B000A4217908A7007808A6002708BF0026080B
:1006C000BE000830C0000330C100C3013708C200BB
:1006D000A4217908A7007808A6002708BF002608EB
:1006E000BE00C0010830C100C3013808C200A42107
:1006F0007908A7007808A6002708BF002608BE00D2
:100700000722B7010A30B800341C8D2B8530230036
:1007100091000030920020005921A901A801290868
:10072000BF002808BE000F30C0000130C100C30167
:10073000C201A4217908A9007808A8002908BF00EF
:100740002808BE000C30C0000330C100C3010230D5
:10075000C200A4217908A9007808A8002908BF00D0
:100760002808BE000830C0000130C100C3013708AE
:10077000C200A4217908A9007808A8002908BF00B0
:100780002808BE00C0010830C100C3013808C200FB
:10079000A4217908A9007808A8002908BF00280822
:1007A000BE0007220130B7005A30B800341CDF2BDE
:1007B000A030230091000030920020005921AB01AD
:1007C000AA012B08BF002A08BE000F30C00001306C
:1007D000C100C301C201A4217908AB007808AA00B6
:1007E0002B08BF002A08BE000C30C0000330C10037
:1007F000C301C200A4217908AB007808AA002B0825
:10080000BF002A08BE000830C0000130C100C3018B
:100810003708C200A4217908AB007808AA002B0889
:10082000BF002A08BE00C0010830C100C30138085B
:10083000C200A4217908AB007808AA002B08BF00E9
:100840002A08BE0007220330B7000A30B800341C63
:10085000302CBB3023009100003092002000592141
:10086000AD01AC012D08BF002C08BE000F30C00048
:100870000130C100C301C201A4217908AD0078088C
:10088000AC002D08BF002C08BE000C30C0000330A7
:10089000C100C3010430C200A4217908AD0078086A
:1008A000AC002D08BF002C08BE000830C00003308B
:1008B000C100C3013708C200A4217908AD0078083F
:1008C000AC002D08BF002C08BE00C0010830C100DC
:1008D000C3013808C200A4217908AD007808AC0033
:1008E0002D08BF002C08BE0007220230B7000130DF
:1008F000B8001430B900341C842CD6302300910089
:100900000030920020005921AF01AE012F08BF0036
:100910002E08BE000F30C0000130C100C301C2016B
:10092000A4217908AF007808AE002F08BF002E0878
:10093000BE000C30C0000330C100C3010530C2004E
:10094000A4217908AF007808AE002F08BF002E0858
:10095000BE000A30C0000230C100C3013708C20027
:10096000A4217908AF007808AE002F08BF002E0838
:10097000BE000830C0000230C100C3013808C20008
:10098000A4217908AF007808AE002F08BF002E0818
:10099000BE00C0010830C100C3013908C200A42153
:1009A0007908AF007808AE002F08BF002E08BE00FF
:1009B0000722B701B8010230B900BA00BB01BC017F
:1009C000341CE92CFA302300910000309200200002
:1009D0005921B101B0013108BF003008BE000F300D
:1009E000C0000130C100C301C201A4217908B100D7
:1009F0007808B0003108BF003008BE000C30C000DD
:100A00000330C100C3010630C200A4217908B1003F
:100A10007808B0003108BF003008BE000A30C000BE
:100A20000230C100C3013708C200A4217908B10017
:100A30007808B0003108BF003008BE000830C000A0
:100A40000230C100C3013808C200A4217908B100F6
:100A50007808B0003108BF003008BE000630C00082
:100A60000230C100C3013908C200A4217908B100D5
:100A70007808B0003108BF003008BE000430C00064
:100A80000230C100C3013A08C200A4217908B100B4
:100A90007808B0003108BF003008BE000230C00046
:100AA000C100C3013B08C200A4217908B100780845
:100AB000B0003108BF003008BE00C0010230C100E4
:100AC000C3013C08C200A4217908B1007808B00035
:100AD0003108BF003008BE000722341C762D0330D9
:100AE000230091000130920020005921B301B2018E
:100AF0003308BF003208BE000F30C0000130C10013
:100B0000C301C201A4217908B3007808B2003308F8
:100B1000BF003208BE000C30C0000330C100C3016A
:100B20000730C200A4217908B3007808B200330866
:100B3000BF003208BE0007226430C0001F21803190
:100B4000EB2D0230B802031CB22D20308500183086
:100B5000840000080319B22DB02DAE2DAF2D00007A
:100B6000800BAD2D8031082EF0302100990022003D
:100B70001E149D1723009F110C309B00A2309E0075
:100B800090309D002000A501A401A701A601A901A4
:100B9000A801AB01AA01AD01AC01AF01AE01B101E9
:100BA000B001B301B2013414B5011E30B600230008
:100BB0008C018D01220092019101940193010A3070
:100BC0002000C0001F212C306500CF306600332983
:100BD00039294629892AC0308B04210091168D15A8
:100BE00020008D19082E21000C1022000C140C304E
:100BF000F700F70BF92DFC2D000021000C1022004E
:100C00000C10053020003602B7003708B800A12DBF
:060C10002100EF2D63003E
:020000040001F9
:04000E00040EFC1AC6
:00000001FF
;PIC16F1826
;CRC=3A0C  CREATED="18-Eyl-14 11:34"
