:1000000080312B2D0000FB0000307A078A007B082E
:100010000C3E03188A0A820028340A3428340A3431
:1000200028340A3427340A3426340A3425340A346E
:1000300024340A3423340A3421340A341F340A3471
:100040001E340A341C340A3419340A3417340A347E
:1000500014340A3412340A340F340A340C340A3497
:1000600009340A3405340A3402340A34FE340934BB
:10007000FA340934F6340934F2340934EE340934EC
:10008000E9340934E5340934E0340934DB34093423
:10009000D6340934D1340934CC340934C634093463
:1000A000C1340934BB340934B5340934AF340934AC
:1000B000A9340934A33409349C34093496340934FE
:1000C0008F34093488340934813409347A3409345A
:1000D000733409346C340934643409345D340934BC
:1000E000553409344D340934453409343D34093428
:1000F000353409342D340934243409341C3409349A
:10010000133409340B34093402340934F934083413
:10011000F0340834E7340834DE340834D434083496
:10012000CB340834C1340834B8340834AE3408341D
:10013000A43408349A3408349034083486340834AB
:100140007C34083472340834683408345D3408343C
:1001500053340834483408343D34083433340834D4
:10016000283408341D340834123408340734083471
:10017000FC340734F1340734E5340734DA34073417
:10018000CF340734C3340734B8340734AC340734BD
:10019000A034073495340734893407347D34073468
:1001A0007134073465340734593407344D34073417
:1001B0004134073435340734293407341C340734C8
:1001C0001034073404340734F7340634EB3406347F
:1001D000DE340634D2340634C5340634B83406343A
:1001E000AC3406349F3406349234063486340634F4
:1001F000793406346C3406345F34063452340634B1
:1002000045340634393406342C3406341F3406346D
:100210001234063405340634F8340534EB3405342E
:10022000DD340534D0340534C3340534B6340534F4
:10023000A93405349C3405348F34053482340534B4
:1002400075340534673405345A3405344D34053477
:100250004034053433340534263405341834053439
:100260000B340534FE340434F1340434E4340434FF
:10027000D7340434CA340434BD340434B0340434C0
:10028000A234043495340434883404347B34043484
:100290006E34043461340434543404344834043443
:1002A0003B3404342E340434213404341434043400
:1002B00007340434FB340334EE340334E1340334C0
:1002C000D4340334C8340334BB340334AF3403347C
:1002D000A234033496340334893403347D34033434
:1002E0007134033464340334583403344C340334E9
:1002F0004034033434340334283403341C3403349A
:100300001034033404340334F8340234ED3402344A
:10031000E1340234D5340234CA340234BE340234F7
:10032000B3340234A83402349C340234913402349D
:10033000863402347B34023470340234653402343F
:100340005A34023450340234453402343A340234DC
:1003500030340234253402341B3402341134023474
:1003600007340234FD340134F3340134E934013408
:10037000DF340134D5340134CC340134C234013497
:10038000B9340134AF340134A63401349D3401341E
:10039000943401348B340134823401347A3401349E
:1003A0007134013468340134603401345834013418
:1003B0005034013448340134403401343834013489
:1003C0003034013429340134213401341A340134F5
:1003D000133401340C34013405340134FE34003458
:1003E000F7340034F1340034EA340034E4340034B7
:1003F000DE340034D8340034D2340034CC34003409
:10040000C7340034C1340034BC340034B734003451
:10041000B2340034AD340034A8340034A434003491
:100420009F3400349B3400349734003493340034C8
:100430008F3400348B3400348834003484340034F6
:10044000813400347E3400347B3400347934003419
:100450007634003474340034713400346F34003432
:100460006E3400346C3400346A340034693400343F
:100470006834003467340034663400346534003442
:100480006534003465340034643400342030850031
:1004900018308400000803195A2A0A30F800F701BE
:1004A000F70B502AF80B4F2A5F30F700F70B562A4C
:1004B000800B4D2A080022001D179D168031200058
:1004C000482D24009512151295111511951415102B
:1004D00094131417951680312000492D21008C1398
:1004E00022008C1321008C1022008C1080312000FF
:1004F0004A2D330BA12A21008C1322008C170C30BB
:100500002000B4001930B500240092012000340806
:10051000240091002000911D8B2A9111240092014A
:1005200020003508240091002000911D952A91118A
:1005300021008C1322008C130A302000B8004622C0
:10054000C92AB308031DC92A21008C1322008C1765
:100550000C302000B6001830B700240092012000B3
:100560003608240091002000911DB42A9111240026
:10057000920120003708240091002000911DBE2A1E
:10058000911121008C1322008C130A302000B80036
:1005900046220800B301792221000C1222000C1619
:1005A00021000C1022000C1421008C1322008C1747
:1005B0000C302000A3001830A40024009201200079
:1005C0002308240091002000911DE42A91112400A9
:1005D000920120002408240091002000911DEE2AA1
:1005E000911121008C1322008C130A302000B800D6
:1005F000462221008C1322008C1710302000A50009
:10060000B730A600240092012000250824009100A4
:100610002000911D092B9111240092012000260831
:10062000240091002000911D132B911121008C13A7
:1006300022008C130A302000B800462221008C13BF
:1006400022008C1720302000A7007930A800240059
:10065000920120002708240091002000911D2E2BDC
:10066000911124009201200028082400910020000C
:10067000911D382B911121008C1322008C130A300C
:100680002000B800462221008C1322008C17313044
:100690002000A9009630AA00240092012000290819
:1006A000240091002000911D532B911124009201F0
:1006B00020002A08240091002000911D5D2B91113B
:1006C00021008C1322008C130A302000B80046222F
:1006D00021008C1322008C1745302000AB001C3009
:1006E000AC002400920120002B082400910020007F
:1006F000911D782B91112400920120002C082400D8
:1007000091002000911D822B911121008C13220059
:100710008C130A302000B800462221008C132200DE
:100720008C1759302000AD001430AE002400920127
:1007300020002D08240091002000911D9D2B911177
:100740002400920120002E08240091002000911D19
:10075000A72B911121008C1322008C130A3020004A
:10076000B800462221008C1322008C176A3020002A
:10077000AF00A030B0002400920120002F08240018
:1007800091002000911DC22B9111240092012000A4
:100790003008240091002000911DCC2B91112100E4
:1007A0008C1322008C130A302000B800462221004E
:1007B0008C1322008C1770302000B100B20124008D
:1007C000920120003108240091002000911DE62BA9
:1007D0009111240092012000320824009100200091
:1007E000911DF02B911121008C1322008C130A30E3
:1007F0002000B80046226430B800462280314B2DDC
:100800006400A6080319082C22000C120A2C2000F0
:1008100022000C1621000C12200008000230A90250
:10082000031C1F2C203085000930840000080319A8
:100830001F2C1D2C1B2C1C2C0000800B1A2C0800BC
:10084000A401A301251021008D1520008D1D4A2C27
:1008500021000C1520000C19342C2518342CA6016D
:1008600000240130A200492C21000C1520000C1D91
:10087000492C251C492CA2080319422C2208023CB1
:10088000031D452C0330A200492C220B492C0430B7
:10089000A200802C21000D1420000D1C722C2100C0
:1008A0008C1520008C195C2C25185C2C0130A600BE
:1008B00000240130A200712C21008C1520008C1D19
:1008C000712C251C712CA20803196A2C2208023CE9
:1008D000031D6D2C0330A200712C220B712C0430EF
:1008E000A200802CA2080319792C2208023C031DC7
:1008F0007C2C0330A200802C220B802C0430A20020
:100900002208FB3E0318FA2C053E222DA00A0319EB
:10091000A10A200B972CA108031D972C2514013048
:10092000B30079220A30A4002830A300A22C2008AA
:10093000203C031DA22C2108033C031DA22CA10175
:10094000A001A201FA2C20081C3C031DAB2C210B9A
:10095000AB2C0230A2000310200DF900210DFA008B
:100960007908A6000320F700260A0320FA0077087A
:10097000A3007A08A400A00A0319A10AFA2C0130E6
:100980002002A6000030213BA7000310260DF9002D
:10099000270DFA007908A6000320F700260A032095
:1009A000FA007708A3007A08A400FA2C200803199B
:1009B000A103A00BE02CA108031DE02C0430A20031
:1009C0000310200DF900210DFA007908A60003207C
:1009D000F700260A0320FA007708A3007A08A4008B
:1009E000FA2C251CFA2C2510A401A301A101A001B9
:1009F000B3017922251C1F2D8430F700F70BFE2C44
:100A0000012D000021000C1022000C1032302000BB
:100A10002302A6000030243BA7002708A800A80A4C
:100A2000A8030319172DFF30A9000E24102D260846
:100A3000A9000E2421000C1022000C142000232CED
:100A40008031502D0A148A100A158207A32C862C97
:100A5000BF2CD62CF12CF030210099002000A101F0
:100A6000A0010430A20023008C018D01220092011C
:100A70009101940193012C306500CF306600023063
:100A80002000A300FA30B8004622A30B422D5B2AB7
:100A9000612A6E2ACA2A2530210097002000202CC6
:020AA0006300F1
:020000040001F9
:04000E005C0EFF1A6B
:00000001FF
;PIC16F1826
;CRC=E200  CREATED="07-Kas-14 15:59"
