:100000008031AA2A000022001D179D168031200091
:10001000C42A240095121512951115119514151066
:1000200094131417951680312000C52A20308500BE
:1000300011308400000803192A280A30F800F7015B
:10004000F70B2028F80B1F285F30F700F70B262846
:10005000800B1D28080021000D1122000D11210028
:100060000C1122000C1121008C1022008C10210098
:100070000C1022000C1021000C1222000C12210086
:100080008C1322008C1380312000D22A21000D1104
:1000900022000D1503302000A1004130A2002400F1
:1000A000920120002108240091002000911D562873
:1000B00091112400920120002208240091002000C8
:1000C000911D6028911121000D1122000D110A309F
:1000D0002000B100162021000D1122000D15103056
:1000E0002000A300C830A4002400920120002308AF
:1000F000240091002000911D7B2891112400920181
:1001000020002408240091002000911D85289111D1
:1001100021000D1122000D110A302000B10016201F
:1001200021000D1122000D1520302000A5004630C1
:10013000A600240092012000250824009100200040
:10014000911DA0289111240092012000260824006E
:1001500091002000911DAA28911121000D1122006B
:100160000D110A302000B100162021000D112200CF
:100170000D1531302000A7007D30A8002400920129
:1001800020002708240091002000911DC52891110E
:100190002400920120002808240091002000911DD5
:1001A000CF28911121000D1122000D110A302000DD
:1001B000B100162021000D1122000D154530200040
:1001C000A9002930AA002400920120002908240057
:1001D00091002000911DEA28911124009201200035
:1001E0002A08240091002000911DF428911121007B
:1001F0000D1122000D110A302000B100162021003F
:100200000D1122000D1559302000AB001430AC0048
:100210002400920120002B08240091002000911D51
:100220000F2991112400920120002C082400910034
:100230002000911D1929911121000D1122000D118D
:100240000A302000B100162021000D1122000D15EA
:100250006F302000AD00A030AE00240092012000DD
:100260002D08240091002000911D342991112400B3
:10027000920120002E08240091002000911D3E29AB
:10028000911121000D1122000D110A302000B10042
:10029000162021000D1122000D1570302000AF0036
:1002A000B0012400920120002F08240091002000BA
:1002B000911D58299111240092012000300824003A
:1002C00091002000911D6229911121000D11220041
:1002D0000D110A302000B100162021008C102200E0
:1002E0008C1464302000B100162021000D11220072
:1002F0000D1501302000A1004130A2002400920120
:1003000020002108240091002000911D85299111D1
:100310002400920120002208240091002000911D59
:100320008F29911121000D1122000D110A3020009A
:10033000B10016208031D32A21000D142000A01016
:100340000D18A01421008C15200020108C192014E9
:1003500021008D15200021108D1921142118192A32
:1003600021000D1122000D152000A2014130A30033
:100370002400920120002208240091002000911DF9
:10038000BF2991112400920120002308240091002C
:100390002000911DC929911121000D1122000D117C
:1003A00020002118182A003020180130A800210050
:1003B0008C15003020008C19013028020319F22915
:1003C00021008C1520008C19E92922000C12EB2940
:1003D000200022000C1621000C128C152000201089
:1003E0008C1920140030A0180130A80021000D1431
:1003F000003020000D18013028020319112A2100B5
:100400000D1420000D18082A22008C130A2A20003F
:1004100022008C1721008C130D142000A0100D1841
:10042000A01421008D15200021108D192114D1292F
:10043000A72A211C852A21000D1122000D1501304B
:100440002000A4004130A5002400920120002408CF
:10045000240091002000911D2B2A9111240092016B
:1004600020002508240091002000911D352A9111BB
:1004700021000D1122000D112000211C842A0030C2
:1004800020180130A80021008C15003020008C19A4
:100490000130280203195E2A21008C1520008C19D6
:1004A000552A22000C12572A200022000C16210087
:1004B0000C128C15200020108C1920140030A0186C
:1004C0000130A80021000D14003020000D1801306B
:1004D000280203197D2A21000D1420000D18742A0A
:1004E00022008C13762A200022008C1721008C1306
:1004F0000D142000A0100D18A01421008D1520004F
:1005000021108D1921143D2AA72A21000D11220046
:100510000D1503302000A6004130A70024009201F1
:1005200020002608240091002000911D952A911199
:100530002400920120002708240091002000911D32
:100540009F2A911121000D1122000D112000A829D0
:100550008031D42A850184011F308305F4302100C5
:10056000990020002010A010201123008C018D0183
:1005700022009201910194019301083021008C0026
:10058000CB308D0020000328092821000C11220007
:100590000C1502302000A100FA30B1001620A10B8A
:0A05A000CC2A2B2846289C29630072
:020000040001F9
:04000E00040E1012BA
:00000001FF
;PIC16F1826
;CRC=E658  CREATED="05-May-14 17:21"
