:060000008031942F000086
:0800080083018031200077081C
:10001000A0007808A1007908A2007A08A300850151
:1000200091308400801E1628911A16292008F700A6
:100030002108F8002208F9002308FA000900432AE1
:1000400052262029E533E939F432F2043A1000004F
:10005000432A52262029E533E939F432F2043A10D2
:100060000000432A52262029E533E939F432F2040C
:100070003A100000432A52262029E533E939F432A8
:10008000F2043A100000432A52262029E533E939C8
:10009000F432F2043A100000432A52262029E533B4
:1000A000E939F432F2043A100000432A522620299A
:1000B000E533E939F432F2043A100000432A5226BB
:1000C0002029E533E939F432F2043A100000D4274C
:1000D000D228D5222029E533E939F432F2043A1046
:1000E0000000D427D228D5222029E533E939F4327B
:1000F000F2043A100000D427D228D5222029E53373
:10010000E939F432F2043A100000D42746232029BA
:10011000E533E939F432F2043A100000D4274623DB
:100120002029E533E939F432F2043A100000D427EB
:1001300046232029E533E939F432F2043A1000006D
:10014000422641274B10D232E734733A6539091DF4
:100150002000422641274B10D232E734733A6539EA
:10016000091D2000422641274B10D232E734733A52
:100170006539091D2000C422C3205910D232E7344A
:10018000733A6539091D2000C422C3205910D232A8
:10019000E734733A6539091D2000C422C320591081
:1001A000D232E734733A6539091D2000532A4126BB
:1001B0004C10D232E734733A6539091D2000532AB6
:1001C00041264C10D232E734733A6539091D2000BC
:1001D000532A41264C10D232E734733A6539091D4F
:1001E0002000532A41264C10D232E734733A653945
:1001F000091D20004429492B4510D232E734733AB7
:100200006539091D2000532A412AD5292029E533C3
:10021000E939F432F2043A1000004439693B653997
:1002200020226531F5333A10A53A00000708210075
:10023000911201302000B500911280311628203033
:100240008500273084000008031933290A30F8009C
:10025000F701F70B2929F80B28295F30F700F70B76
:100260002F29800B2629080022001D179D1680319A
:100270002000C82F24009512151295111511951400
:10028000151094131417951680312000C92F2100E2
:100290008C1322008C1321008C1022008C10210062
:1002A0000C1222000C1221000C1022000C108031C4
:1002B0002000CA2F0B08C5008B13230095171514B7
:1002C0000000000013087F390319A1292000C6008F
:1002D000230011082000C700230012082000C800D6
:1002E0004608111E712923009A00200047082300A8
:1002F0009100200048082300920095171514000073
:100300000000130D140D7F390319A1292000C60028
:10031000230011082000C700230012082000C80095
:100320004608111E912923009A0020004708230047
:1003300091002000480823009200910A0319920AB4
:100340005E292000C51B8B17080047080F3C0318C7
:10035000AD290030F800F900FC294708103C48029C
:100360000319B829031CB8290030F800F900FC294A
:10037000CB0148084B020318F8294A08FA0049083B
:10038000F9004B08F7000319C929FA36F90CF70BE5
:10039000C5297908791CDF294B084707CC00FA01E9
:1003A0000130F9004C08F7000319DA29F935FA0D84
:1003B000F70BD6297908C5047A08C604F6294B0834
:1003C0004707CC00FA010130F9004C08F700031987
:1003D000ED29F935FA0DF70BE9297908FF3AF7000D
:1003E000FF30FA067708C5057A08C605CB0AB92991
:1003F0004508F8004608F900080024009201200092
:100400004808240091002000911D042A9111080041
:10041000341C742A103084004608C8004508C70000
:100420000508CF000408CE00480EF038CA00CA07FD
:10043000E23ECB00323ECD0048080F39CB07CB0758
:10044000CD07E93ECC00CC07CC07470E0F39CC07CF
:10045000CD07CC0DCD0DCD09CD0D47080F39CD07FA
:10046000CA0D0730C9000A30CD07CC03031C342A5B
:10047000CC07CB03031C382ACB07CA03031C3C2A36
:10048000CA07C903031C402A85014930840007308C
:100490004E054E1384074D30040203194E17000811
:1004A000F700031D5B2A4E1B5B2A4E1A652ACE19E4
:1004B0005B2A20305E2ACE154E123030F7077708BF
:1004C000111E602A23009A00200001314E1F4B2A82
:1004D0000A30111E692A23009A000D302000111ED7
:1004E0006F2A23009A00200021008C1322008C1711
:1004F00020004608C700C800FD214508C700C80005
:10050000FD2121008C1322008C130A302000C7002B
:100510001F210800B7010130B800B9010830BA0046
:10052000BB01BC010130BD00341C9D2A1F302300DB
:1005300091000030920020005A21A501A401250855
:10054000C6002408C5000F30C7000130C800CA012A
:10055000C901A5217908A5007808A4002508C600CE
:100560002408C5000C30C7000330C800CA01C90107
:10057000A5217908A5007808A4002508C60024084C
:10058000C5000A30C7000230C800CA013708C900D8
:10059000A5217908A5007808A4002508C60024082C
:1005A000C5000830C7000230C800CA013808C900B9
:1005B000A5217908A5007808A4002508C60024080C
:1005C000C5000730C7000130C800CA013908C9009A
:1005D000A5217908A5007808A4002508C6002408EC
:1005E000C5000330C7000430C800CA013A08C9007A
:1005F000A5217908A5007808A4002508C6002408CC
:10060000C5000230C7000130C800CA013B08C9005C
:10061000A5217908A5007808A4002508C6002408AB
:10062000C5000130C700C800CA013C08C900A521A7
:100630007908A5007808A4002508C6002408C5008C
:10064000C7010130C800CA013D08C900A5217908C9
:10065000A5007808A4002508C6002408C5000822C3
:100660000130B7004130B800341C3D2B6730230007
:1006700091000030920020005A21A701A60127080E
:10068000C6002608C5000F30C7000130C800CA01E7
:10069000C901A5217908A7007808A6002708C60087
:1006A0002608C5000C30C7000330C800CA0101305D
:1006B000C900A5217908A7007808A6002708C60068
:1006C0002608C5000830C7000330C800CA01370833
:1006D000C900A5217908A7007808A6002708C60048
:1006E0002608C500C7010830C800CA013808C9007B
:1006F000A5217908A7007808A6002708C6002608C3
:10070000C5000822B7011230B800341C8E2B85308A
:10071000230091000030920020005A21A901A80175
:100720002908C6002808C5000F30C7000130C800DE
:10073000CA01C901A5217908A9007808A8002908DB
:10074000C6002808C5000C30C7000330C800CA0125
:100750000230C900A5217908A9007808A800290855
:10076000C6002808C5000830C7000130C800CA010B
:100770003708C900A5217908A9007808A800290828
:10078000C6002808C500C7010830C800CA013808DB
:10079000C900A5217908A9007808A8002908C60081
:1007A0002808C50008220130B7007D30B800341C8D
:1007B000E02BA030230091000030920020005A214D
:1007C000AB01AA012B08C6002A08C5000F30C700DC
:1007D0000130C800CA01C901A5217908AB00780819
:1007E000AA002B08C6002A08C5000C30C700033039
:1007F000C800CA01C900A5217908AB007808AA0081
:100800002B08C6002A08C5000830C7000130C80000
:10081000CA013708C900A5217908AB007808AA00E9
:100820002B08C6002A08C500C7010830C800CA0145
:100830003808C900A5217908AB007808AA002B0860
:10084000C6002A08C50008220530B7000630B800E7
:10085000341C312CBB30230091000030920020006A
:100860005A21AD01AC012D08C6002C08C5000F307F
:10087000C7000130C800CA01C901A5217908AD002F
:100880007808AC002D08C6002C08C5000C30C70045
:100890000330C800CA010430C900A5217908AD00A1
:1008A0007808AC002D08C6002C08C5000830C70029
:1008B0000330C800CA013708C900A5217908AD0076
:1008C0007808AC002D08C6002C08C500C701083008
:1008D000C800CA013808C900A5217908AD00780808
:1008E000AC002D08C6002C08C50008220230B70055
:1008F000B8013C30B900341C842CD6302300910060
:100900000030920020005A21AF01AE012F08C6002E
:100910002E08C5000F30C7000130C800CA01C90148
:10092000A5217908AF007808AE002F08C6002E0870
:10093000C5000C30C7000330C800CA010530C9002B
:10094000A5217908AF007808AE002F08C6002E0850
:10095000C5000A30C7000230C800CA013708C90004
:10096000A5217908AF007808AE002F08C6002E0830
:10097000C5000830C7000230C800CA013808C900E5
:10098000A5217908AF007808AE002F08C6002E0810
:10099000C500C7010830C800CA013908C900A5212F
:1009A0007908AF007808AE002F08C6002E08C500F1
:1009B0000822B701B8010230B900BA00BB01BC017E
:1009C000341CE92CFA302300910000309200200002
:1009D0005A21B101B0013108C6003008C5000F30FE
:1009E000C7000130C800CA01C901A5217908B100BA
:1009F0007808B0003108C6003008C5000C30C700C8
:100A00000330C800CA010630C900A5217908B10029
:100A10007808B0003108C6003008C5000A30C700A9
:100A20000230C800CA013708C900A5217908B10001
:100A30007808B0003108C6003008C5000830C7008B
:100A40000230C800CA013808C900A5217908B100E0
:100A50007808B0003108C6003008C5000630C7006D
:100A60000230C800CA013908C900A5217908B100BF
:100A70007808B0003108C6003008C5000430C7004F
:100A80000230C800CA013A08C900A5217908B1009E
:100A90007808B0003108C6003008C5000230C70031
:100AA000C800CA013B08C900A5217908B10078082F
:100AB000B0003108C6003008C500C7010230C800C8
:100AC000CA013C08C900A5217908B1007808B00026
:100AD0003108C6003008C5000822341C762D0330CA
:100AE000230091000130920020005A21B301B2018D
:100AF0003308C6003208C5000F30C7000130C800F7
:100B0000CA01C901A5217908B3007808B2003308E9
:100B1000C6003208C5000C30C7000330C800CA0147
:100B20000730C900A5217908B3007808B20033085E
:100B3000C6003208C50008226430C7001F2180317A
:100B4000CB2FF701F801450803104618F707F70CFB
:100B5000F80CC618F707F70CF80C4619F707F70C4E
:100B6000F80CC619F707F70CF80C461AF707F70C3C
:100B7000F80CC61AF707F70CF80C461BF707F70C2A
:100B8000F80CC61BF707F70CF80C08004808F8012A
:100B900047020318CE2D4708F700DA2DF701083079
:100BA000C900C70DF70D480877020318F700F80DC4
:100BB000C90BD12D0800911EDB2D23001908200040
:100BC000B700B8013708533A0319F02D173A031943
:100BD000162E0B3A0319B82E0D3A03191C2F7F2F2E
:100BE000B8013808023C031C052E19303807840070
:100BF000203085000318850A911EFC2D230019085A
:100C0000D03E80002000B80AF12D6430C5003908BC
:100C1000C600A1257808C4000A30C5003A08C600FD
:100C2000A125780844073B07B6007F2F0130B406A2
:100C3000003034180130C4000D3023009100013021
:100C4000920003100E302000C5000B08C6008B1365
:100C5000230095171514000000000318542E1308E4
:100C60007F392000C700230011082000C80023009E
:100C700012082000C9004708111E3C2E23009A00CC
:100C8000200048082300910020004908230092001A
:100C900095171514000000002000C50B502E522E91
:100CA0002300542E752E2300130D140D7F392000C0
:100CB000C700230011082000C800230012082000EC
:100CC000C9004708111E622E23009A002000480820
:100CD000230091002000490823009200910A031983
:100CE000920A03102000C50B282EC61B8B17440840
:100CF000C5001B30C6004508C7006430C800C625C3
:100D00007708C50078083030031D8D2EC61C972E3D
:100D1000C619972E461A2030902EC6114612461438
:100D2000F8077808111E922E23009A00200045082B
:100D3000C7000A30C800C6257708C50078083030DB
:100D4000031DA82EC619AF2E461CAF2E461A203002
:100D5000F8077808111EAA2E23009A0020003030D0
:100D6000C5074508111EB22E23009A0020007F2FD0
:100D7000B8013808023C031CCD2E1C303807840013
:100D8000203085000318850A911EC42E23001908FF
:100D9000D03E80002000B80AB92E6430C5003C085F
:100DA000C600A1257808C4000A30C5003D08C60069
:100DB000A125780844073E07BF003F08C400341C43
:100DC000E82E9730230091000030920020005A2135
:100DD0002908C6002808C5000F30C7000130C80028
:100DE000CA01C901A5217908A9007808A800290825
:100DF000C6002808C5000C30C7000330C800CA016F
:100E00000230C900A5217908A9007808A80029089E
:100E1000C6002808C500C7010830C800CA01440838
:100E2000C900A5217908A9007808A8002908C600EA
:100E30002808C50008227F2FB8013808023C031C8F
:100E4000312F203038078400203085000318850AB0
:100E5000911E282F23001908D03E80002000B80AD8
:100E60001D2F6430C5004008C600A1257808C400C5
:100E70000A30C5004108C600A1257808440742078A
:100E8000C3004308C400341C4C2FB230230091002F
:100E90000030920020005A212B08C6002A08C50005
:100EA0000F30C7000130C800CA01C901A521790867
:100EB000AB007808AA002B08C6002A08C5000C3031
:100EC000C7000330C800CA01C900A5217908AB00DA
:100ED0007808AA002B08C6002A08C500C7010830F8
:100EE000C800CA014408C900A5217908AB007808E8
:100EF000AA002B08C6002A08C50008227F2F8031CF
:100F0000D82F0230B802031C922F203085001830F1
:100F1000840000080319922F902F8E2F8F2F00002E
:100F2000800B8D2F8031F02FF030210099002200AE
:100F30001E149D1723009F110C309B00A2309E00B1
:100F400090309D002000A501A401A701A601A901E0
:100F5000A801AB01AA01AD01AC01AF01AE01B10125
:100F6000B001B301B2013414B5011430B60023004E
:100F70008C018D01220092019101940193010A30AC
:100F80002000C7001F212C306500CF3066003429B7
:100F90003A2947298A2AC0308B0421009116200063
:100FA000B5080319DC2F210091122000B501DB2DBB
:100FB00021009116F12F200021000C1022000C14AA
:100FC0001A30F700F70BE22F000021000C1022006E
:100FD0000C100A3020003602B7003708B800812F05
:060FE0002100CF2F630089
:020000040001F9
:04000E00040EFC1AC6
:00000001FF
;PIC16F1826
;CRC=2D32  CREATED="11-Eyl-14 18:26"
