:060000008031762F0000A4
:0800080083018031200077081C
:10001000A0007808A1007908A2007A08A3007B0854
:10002000A400850191308400801E1828911A842A2A
:100030002008F7002108F8002208F9002308FA0038
:100040002408FB000900FB0000307A078A007B08C7
:100050002C3E03188A0A82006434643464346434A5
:1000600064346434643464346434643464346434D0
:1000700064346434643464346434643464346434C0
:1000800064346434643464346434643464346434B0
:1000900064346434643464346434643464346334A1
:1000A0006334633463346334633463346334633498
:1000B000633463346334633463346334623462348A
:1000C0006234623462346234623462346234623480
:1000D0006234623461346134613461346134613476
:1000E000613461346134613460346034603460346C
:1000F000603460346034603460345F345F345F3463
:100100005F345F345F345F345F345E345E345E345A
:100110005E345E345E345E345E345D345D345D3452
:100120005D345D345D345D345C345C345C345C344B
:100130005C345C345C345B345B345B345B345B3444
:100140005B345A345A345A345A345A345A3459343F
:10015000593459345934593459345834583458343A
:100160005834583458345734573457345734573434
:100170005734563456345634563456345534553430
:10018000553455345534553454345434543454342B
:100190005434533453345334533453345234523428
:1001A0005234523452345134513451345134513424
:1001B000503450345034503450344F344F344F3422
:1001C0004F344F344E344E344E344E344D344D341F
:1001D0004D344D344D344C344C344C344C344C341C
:1001E0004B344B344B344B344A344A344A344A341B
:1001F0004A34493449344934493448344834483419
:100200004834473447344734473447344634463417
:100210004634463445344534453445344434443416
:100220004434443444344334433443344334423414
:100230004234423442344134413441344134403414
:100240004034403440343F343F343F343F343E3414
:100250003E343E343E343E343D343D343D343D3412
:100260003C343C343C343C343B343B343B343B3412
:100270003A343A343A343A34393439343934393412
:100280003834383438343834373437343734373412
:100290003634363436343634353435343534353412
:1002A0003434343434343434333433343334333412
:1002B0003234323432343234313431343134313412
:1002C00030343034303430342F342F342F342F3412
:1002D0002E342E342E342E342D342D342D342D3412
:1002E0002C342C342C342C342B342B342B342B3412
:1002F0002A342A342A342A34293429342934293412
:100300002834283428342834273427342734273411
:10031000273426342634263426342534253425340F
:10032000253424342434243424342334233423340F
:10033000233422342234223422342134213421340F
:100340002134213420342034203420341F341F340D
:100350001F341F341E341E341E341E341E341D340C
:100360001D341D341D341C341C341C341C341B340B
:100370001B341B341B341B341A341A341A341A3409
:100380001934193419341934193418341834183408
:100390001834183417341734173417341634163405
:1003A0001634163416341534153415341534153402
:1003B0001434143414341434143413341334133400
:1003C00013341334123412341234123412341134FC
:1003D00011341134113411341034103410341034F9
:1003E000103410340F340F340F340F340F340E34F4
:1003F0000E340E340E340E340E340D340D340D34F0
:100400000D340D340D340C340C340C340C340C34E9
:100410000C340B340B340B340B340B340B340A34E4
:100420000A340A340A340A340A34093409340934DF
:1004300009340934093409340834083408340834D8
:1004400008340834083407340734073407340734D1
:1004500007340734073406340634063406340634C9
:1004600006340634063405340534053405340534C1
:1004700005340534053405340434043404340434B8
:1004800004340434043404340434043403340334AE
:1004900003340334033403340334033403340334A4
:1004A000033403340234023402340234023402349A
:1004B000023402340234023402340234023402348C
:1004C0000234013401340134013401340134013483
:1004D0000134013401340134013401340134013474
:1004E0000134013401340134013401340134013464
:1004F0000134013401340134013401340134013454
:1005000001340134013401342100911220002914F6
:1005100091128031182822001D179D16803120006D
:10052000A72F240095121512951115119514151069
:1005300094131417951680312000A82F21008C13D6
:1005400022008C1321008C1022008C1021000C1230
:1005500022000C1221000C1022000C10803120000F
:10056000A92F2400920120006B0824009100200094
:10057000911DB82A91110800203085004A3084006E
:1005800000080319D02A0A30F800F701F70BC62A31
:10059000F80BC52A5F30F700F70BCC2A800BC32A73
:1005A000080021008C1322008C1720006908EA0043
:1005B000EB00B1226808EA00EB00B12221008C13A5
:1005C00022008C130A302000EA00BC220800A9187F
:1005D000EE2AE9012930E800D122F22AE90141306E
:1005E000E800D1221030E9003230E800D12220307A
:1005F000E9005030E800D1223130E9007D30E800D8
:10060000D1224530E9002830E800D1225930E900F4
:100610001430E800D1226030E900A030E800D12297
:100620000A30EA00BC228031AA2F111E152B2300AC
:100630009A00200008000230EF02031C2C2B20300F
:1006400085004F308400000803192C2B2A2B282BFF
:10065000292B0000800B272B08001030E900D63032
:10066000E800D1224430E9002830E800D1224D30A2
:10067000152321000C1222000C1264302000EA0025
:10068000BC22B501B401B501B40135083102031C27
:10069000832B031D4F2B300834020318832B2100BA
:1006A0000C1022000C1421000C1520000C1D5B2BDB
:1006B0004C3015233C2C0730F700F70B5D2B602BDB
:1006C00021000C1022000C1020003508FA0034081C
:1006D00023202C07B60000302D3DB7000330B602B2
:1006E0000030B73B3708B800B80AB80303197C2BB1
:1006F000FF30EF001B23752B3608EF001B23B40AD5
:100700000319B50A452B21008D1520008D1DB22B34
:1007100021000C1022000C1421000C1520000C1DCF
:10072000942B4C3015233C2C0730F700F70B962BFD
:10073000992B21000C1022000C10033020002C02F9
:10074000B60000302D3BB7003708B800B80AB80330
:100750000319AE2BFF30EF001B23A72B3608EF0049
:100760001B23832B3108B5003008B400B408031DE7
:10077000BC2BB5080319F72B21000C1022000C1418
:1007800021000C1520000C1DC82B4C3015233C2CCF
:100790000730F700F70BCA2BCD2B21000C102200DD
:1007A0000C10013020003402B6000030353BB70099
:1007B0003708FA00360823202C07B80000302D3DFA
:1007C000B9000330B8020030B93B3908BA00BA0AA0
:1007D000BA030319EF2BFF30EF001B23E82B380877
:1007E000EF001B2334080319B503B403B62B210013
:1007F0000C1222000C1602302000B600FA30EA007B
:10080000BC22B60BFE2B2F08B5002E08B400B4088E
:10081000031D0D2CB50803192C2C21000C102200EF
:100820000C1421000C1520000C1D192C4C30152324
:100830003C2C1430F700F70B1B2C1E2C0000210061
:100840000C1022000C1001302000EA00BC223408F9
:100850000319B503B403072CA801A701A601A5013C
:100860001030E9003230E800D1224530E90028306C
:10087000E800D1225230152308002030E800E401BE
:10088000E501E601E7015F08FA005E08F9005D088E
:10089000F8005C08F7000310771C5C2C6008E40784
:1008A00061080318610FE50762080318620FE60785
:1008B00063080318630FE707E70CE60CE50CE40C8C
:1008C000FA0CF90CF80CF70CE80B4B2C0800103064
:1008D000E900D630E800D1224430E9002830E800B1
:1008E000D1220A30EA00BC224D30152341301523B5
:1008F000E701E601E501E4010310300DF900310DD7
:10090000FA007908F800E308031D932CE208031DA0
:10091000932C7A086102031C802D031D932C780808
:100920006002031C802D0310300DF900310DFA0018
:100930007908E0027A08E13B0030E23BE33BE70163
:10094000E601E501E401E708031DE42CE608031DC8
:10095000E42C65083102031CE42C031DB32C300881
:1009600064020318E42C21000C1022000C14073040
:10097000F700F70BB92CBC2C21000C1022000C1036
:1009800020006508FA00640823202C07E8000030E6
:100990002D3DE9000330E8020030E93B6908EA0038
:1009A000EA0AEA030319D82CFF30EF001B23D12CED
:1009B0006808EF001B230130E4070318E50A031958
:1009C000E60A0319E70AA32CE701E601E501E401C1
:1009D00067086302031C302D031DFE2C66086202AB
:1009E000031C302D031DFE2C65086102031C302DF5
:1009F000031DFE2C600864020318302D21000C102A
:100A000022000C1421000C1520000C1D0A2D4C3066
:100A10001523CA2D0730F700F70B0C2D0F2D2100E1
:100A20000C1022000C10033020002C02E8000030D3
:100A30002D3BE9006908EA00EA0AEA030319242DBC
:100A4000FF30EF001B231D2D6808EF001B23013032
:100A5000E4070318E50A0319E60A0319E70AE82C74
:100A6000E701E6013108E5003008E400E408031D71
:100A7000422DE508031D422DE608031D422DE7081F
:100A800003197F2D21000C1022000C140730F700F1
:100A9000F70B482D4B2D21000C1022000C100130BB
:100AA00020006402E8000030653BE9000030663B4E
:100AB000EA000030673BEB006908FA006808232071
:100AC0002C07EC0000302D3DED000330EC0200302F
:100AD000ED3B6D08EE00EE0AEE030319732DFF30B7
:100AE000EF001B236C2D6C08EF001B23FF30E40785
:100AF000031CE507031CE607031CE707362DBC2D86
:100B0000E701E601E501E40167086302031CBC2D6F
:100B1000031D9A2D66086202031CBC2D031D9A2D2D
:100B200065086102031CBC2D031D9A2D6008640238
:100B30000318BC2D21000C1022000C1421000C15F0
:100B400020000C1DA62D4C301523CA2D0730F700B0
:100B5000F70BA82DAB2D21000C1022000C106130DA
:100B60002000EF001B230130E4070318E50A0319F6
:100B7000E60A0319E70A842D443015235230152361
:100B80001030E9003230E800D1224530E900283049
:100B9000E800D1220800911ECB2D23001908200067
:100BA000B400B5013408473A0319DA2D143A031991
:100BB000052F742FB5013508063C031CFA2D350DA1
:100BC000F700F70DFC30F7057708183E8400203059
:100BD00085000318850A911EEB2D23001908D03ECD
:100BE000800001318001013180010131800120004C
:100BF000B50ADB2DDF010F30DE004230DD00403072
:100C0000DC003B08E3003A08E2003908E10038085C
:100C1000E0003D247A08DB007908DA007808D90082
:100C20007708D800DF010130DE008630DD00A0301B
:100C3000DC003F08E3003E08E2003D08E1003C081C
:100C4000E0003D247708D8077808D93D7908DA3DD7
:100C50007A08DB3DDF01DE012730DD001030DC00EB
:100C60004308E3004208E2004108E1004008E000D8
:100C70003D247708D8077808D93D7908DA3D7A0805
:100C8000DB3DDF01DE010330DD00E830DC0047083A
:100C9000E3004608E2004508E1004408E0003D2486
:100CA0007708D8077808D93D7908DA3D7A08DB3D1E
:100CB000DF01DE01DD016430DC004B08E3004A089F
:100CC000E2004908E1004808E0003D247708D80721
:100CD0007808D93D7908DA3D7A08DB3DDF01DE018D
:100CE000DD010A30DC004F08E3004E08E2004D0849
:100CF000E1004C08E0003D247708D8077808D93D8A
:100D00007908DA3D7A08DB3D50085807D4005108CD
:100D1000593DD50052085A3DD60053085B3DD700D7
:100D20005708DB005608DA005508D9005408D800E7
:100D300028085B02031CC82E031DAE2E27085A028A
:100D4000031CC82E031DAE2E26085902031CC82EF4
:100D5000031DAE2E580825020318C82E21000C12C0
:100D600022000C16200025085802DC002608593BFA
:100D7000DD0027085A3BDE0028085B3BDF00E3006C
:100D80005E08E2005D08E1005C08E0006724FC2EDC
:100D90005B082802031CF82E031DDE2E5A082702CA
:100DA000031CF82E031DDE2E59082602031CF82E04
:100DB000031DDE2E250858020318F82E21000C1200
:100DC00022000C12200058082502DC005908263B9E
:100DD000DD005A08273BDE005B08283BDF00E3000C
:100DE0005E08E2005D08E1005C08E0006724FC2E7C
:100DF0004D301523523015235B08A8005A08A70070
:100E00005908A6005808A500742FA918732FB5011A
:100E10003508023C031C272F350DF700F70DFC3079
:100E2000F7057708183E8400203085000318850AEE
:100E3000911E182F23001908D03E80000131800137
:100E400001318001013180012000B50A082FDF0146
:100E5000DE01DD016430DC003B08E3003A08E2001B
:100E60003908E1003808E0003D247A08DB00790801
:100E7000DA007808D9007708D800DF01DE01DD014B
:100E80000A30DC003F08E3003E08E2003D08E100D4
:100E90003C08E0003D247708D8077808D93D790858
:100EA000DA3D7A08DB3D40085807AC004108593D5F
:100EB000AD002D08063C0318692FFF3A031D642F6F
:100EC0002C08D03C0318692F0730AD00D030AC009F
:100ED000732FAD08031D732F2C081D3C031C732FAB
:100EE000AD011E30AC00742F8031EB2FF0302100AB
:100EF000990022001E149D1723009F110C309B00A7
:100F0000A2309E0090309D002000A801A701A601FC
:100F1000A5012910A9101930AB00AA01AD011E309E
:100F2000AC000F30AF00A030AE000230B10058303E
:100F3000B00023008C018D012200920191019401E7
:100F400093012C306500CF30660020008B2A912A57
:100F50009E2AE72A2D23C0308B04210091160C1500
:100F600020000C1DE72F210091120C1210302200DE
:100F70008C0602302000B400FA30EA00BC22B40B28
:100F8000BC2FB301B20133082B02031CE22F031D57
:100F9000CD2F32082A02031CE22F21000C10220060
:100FA0000C141A30F700F70BD32F000021000C109F
:100FB00022000C1001302000EA00BC22B20A031902
:100FC000B30AC32F2D230708210091162000291CE6
:100FD000EF2F2910CB2D07082100911620002100AA
:040FE000AF2F6300CC
:020000040001F9
:04000E00040EFC1AC6
:00000001FF
;PIC16F1826
;CRC=3427  CREATED="23-Eyl-14 15:43"
