:100000008031762C00000B0091340934F73403342E
:100010000B34033490340234423402340B3402344F
:10002000E1340134BF340134A43401348D3401345B
:100030007A340134693401345A3401344D34013492
:1000400042340134373401342E3401342534013440
:100050001D340134153401340F34013408340134B3
:1000600002340134FD340034F7340034F334003406
:10007000EE340034EA340034E5340034E234003441
:10008000DE340034DA340034D7340034D43400346D
:10009000D1340034CE340034CB340034C83400348E
:1000A000C5340034C3340034C0340034BE340034AA
:1000B000BC340034BA340034B8340034B6340034BC
:1000C000B4340034B2340034B0340034AE340034CC
:1000D000AC340034AB340034A9340034A7340034D9
:1000E000A6340034A4340034A3340034A2340034E1
:1000F000A03400349F3400349D3400349C340034E8
:100100009B3400349A3400349834003497340034EB
:1001100096340034953400349434003493340034ED
:100120009234003491340034903400348F340034ED
:100130008E3400348D3400348C3400348B340034ED
:100140008A340034893400348834003487340034ED
:1001500086340034853400348434003483340034ED
:100160008234003481340034803400347F340034ED
:100170007E3400347D3400347C3400347B340034ED
:100180007A340034793400347834003477340034ED
:1001900076340034753400347434003473340034ED
:1001A0007234003471340034703400346F340034ED
:1001B0006E3400346D3400346C3400346B340034ED
:1001C0006A340034693400346834003467340034ED
:1001D00066340034653400346434003420308500E3
:1001E000163084000008031903290530F800F701D0
:1001F000F70BF828F80BF7282E30F700F70BFE283E
:100200000129800BF528080022001D179D1680315A
:100210002000912C2400951215129511151195149A
:10022000151094131417951680312000922C21007C
:100230008C1322008C1321008C1022008C10803132
:100240002000932C310B4A2921008C1322008C179B
:100250000C302000B2001930B300240092012000BD
:100260003208240091002000911D342991112400AE
:10027000920120003308240091002000911D3E29A6
:10028000911121008C1322008C130A302000B6003B
:10029000EE207229B108031D722921008C1322005F
:1002A0008C170C302000B4001830B50024009201E7
:1002B00020003408240091002000911D5D29911137
:1002C0002400920120003508240091002000911D97
:1002D0006729911121008C1322008C130A30200011
:1002E000B600EE200800B101222121000C122200EC
:1002F0000C1621000C1022000C1421008C1322007B
:100300008C170C302000A1001830A20024009201AC
:1003100020002108240091002000911D8D299111B9
:100320002400920120002208240091002000911D49
:100330009729911121008C1322008C130A30200080
:10034000B600EE2021008C1322008C171030200004
:10035000A300B730A4002400920120002308240049
:1003600091002000911DB2299111240092012000DA
:100370002408240091002000911DBC299111210026
:100380008C1322008C130A302000B600EE202100CE
:100390008C1322008C1720302000A5007930A60095
:1003A0002400920120002508240091002000911DC6
:1003B000D7299111240092012000260824009100E1
:1003C0002000911DE129911121008C1322008C1332
:1003D0000A302000B600EE2021008C1322008C177A
:1003E00031302000A7009630A800240092012000A0
:1003F0002708240091002000911DFC299111240060
:10040000920120002808240091002000911D062A56
:10041000911121008C1322008C130A302000B600A9
:10042000EE2021008C1322008C1745302000A900FB
:100430001C30AA0024009201200029082400910009
:100440002000911D212A91112400920120002A08E8
:10045000240091002000911D2B2A911121008C1362
:1004600022008C130A302000B600EE2021008C13ED
:1004700022008C1759302000AB001430AC0024004F
:10048000920120002B08240091002000911D462A93
:1004900091112400920120002C08240091002000DA
:1004A000911D502A911121008C1322008C130A30C7
:1004B0002000B600EE2021008C1322008C176A3039
:1004C0002000AD00A030AE002400920120002D08D5
:1004D000240091002000911D6B2A911124009201AB
:1004E00020002E08240091002000911D752A9111F2
:1004F00021008C1322008C130A302000B600EE205D
:1005000021008C1322008C1770302000AF00B00146
:100510002400920120002F08240091002000911D4A
:100520008F2A9111240092012000300824009100AC
:100530002000911D992A911121008C1322008C1307
:100540000A302000B600EE206430B600EE20803184
:10055000942CAB080319B02A22000C12B22A2000F6
:1005600022000C1621000C12200008000330AE02FD
:10057000031CC52A203085000E30840000080319B2
:10058000C52AC32A0000800BC22A0800A201A101CB
:10059000A401A3012510A901A801A701A60121001A
:1005A0008D1520008D1D472B21000C1520000C19E6
:1005B000312B2518312BAB01A9220130B1002221AA
:1005C000A901A801A701A601A908031D182BA808C5
:1005D000031D182BA708031D182B2608013C031C1C
:1005E000182B21000C1022000C1402302000B60041
:1005F000EE200230AB00DF30AE00B622AB0BFB2AA0
:1006000021000C1022000C1002302000B600EE2059
:100610000230AB00DF30AE00B622AB0B0A2B01304C
:10062000A6070318A70A0319A80A0319A90AE42AA6
:10063000B1012221C830B600EE2021008D15200026
:100640008D1D302B0230AB009630B600EE20AB0B88
:10065000242B21008D1520008D1D302B0130A00092
:10066000462B21000C1520000C1D462B251C462B6B
:10067000A00803193F2B2008023C031D422B033026
:10068000A000462B200B462B0430A000CE2B2100CF
:100690000D1420000D1CC02B21008C1520008C197E
:1006A000AA2B2518AA2B0130AB00A9220130B100DA
:1006B0002221A901A801A701A601A908031D912BC8
:1006C000A808031D912BA708031D912B2608013CA8
:1006D000031C912B21000C1022000C14023020006E
:1006E000B600EE200230AB00DF30AE00B622AB0B1E
:1006F000742B21000C1022000C1002302000B600D8
:10070000EE200230AB00DF30AE00B622AB0B832B05
:100710000130A6070318A70A0319A80A0319A90A92
:100720005D2BB1012221C830B600EE2021000D144E
:1007300020000D1CA92B0230AB009630B600EE2035
:10074000AB0B9D2B21000D1420000D1CA92B01309B
:10075000A000BF2B21008C1520008C1DBF2B251C59
:10076000BF2BA0080319B82B2008023C031DBB2B8C
:100770000330A000BF2B200BBF2B0430A000CE2BDA
:10078000A0080319C72B2008023C031DCA2B033005
:10079000A000CE2B200BCE2B0430A0002008FB3E67
:1007A0000318462C053E6D2CA10A0319A20A210B41
:1007B000E52BA208031DE52B25140130B1002221F1
:1007C0000930A4009130A300F02B2108203C031D28
:1007D000F02B2208033C031DF02BA201A101A00174
:1007E000462C2108743C031DFA2BA208031DFA2B8A
:1007F0000230A0000310210DF900220DFA00790843
:10080000AB00790A0320FA002B080320A3007A0822
:10081000A400A10A0319A20A462C01302102AB0050
:100820000030223BAC0003102B0DF9002C0DFA0018
:100830007908AB00790A0320FA002B080320A300F3
:100840007A08A400462C21080319A203A10B2D2C21
:10085000A208031D2D2C0430A0000310210DF90067
:10086000220DFA007908AB00790A0320FA002B0860
:100870000320A3007A08A400462C251C462C251032
:10088000A401A301A201A101B1012221251C6A2C0E
:100890004230F700F70B4A2C000021000C10220018
:1008A0000C10323020002302AB000030243BAC009F
:1008B0002C08AD00AD0AAD030319622CFF30AE0069
:1008C000B6225B2C2B08AE00B62221000C102200B1
:1008D0000C142000CF2A8031952C0A108A100A159A
:1008E0008207F12BD42B0D2C232C3D2C7A302100A8
:1008F000990004302000A00023008C018D0122000B
:1009000092019101940193012C306500CF30660073
:1009100002302000A100FA30B600EE20A10B8B2C93
:0C09200004290A2917297329C62A63003C
:020000040001F9
:04000E00440EFF1A83
:00000001FF
;PIC16F1826
;CRC=1036  CREATED="18-Tem-14 10:57"
