:100000008031342F00000B009134F7340B349034DE
:1000100042340B34E134BF34A4348D347A3469343F
:100020005A344D34423437342E3425341D3415348B
:100030000F3408340234FD34F734F334EE34EA3448
:10004000E534E234DE34DA34D734D434D134CE3447
:10005000CB34C834C534C334C034BE34BC34BA34F1
:10006000B834B634B434B234B034AE34AC34AB3467
:10007000A934A734A634A434A334A234A0349F34C2
:100080009D349C349B349A34983497349634953408
:10009000943493349234913490348F348E348D343C
:1000A0008C348B348A34893488348734863485346C
:1000B000843483348234813480347F347E347D349C
:1000C0007C347B347A3479347834773476347534CC
:1000D000743473347234713470346F346E346D34FC
:1000E0006C346B346A34693468346734663465342C
:1000F00022001D179D16803120004B2F24009512E1
:1001000015129511151195141510941314179516B1
:10011000803120004C2F203085001D3084000008E5
:1001200003199F280A30F800F701F70B9528F80B00
:1001300094285F30F700F70B9B28800B922808006B
:1001400021008C1322008C1321000C1122000C11B1
:1001500021008C1022008C1021000C1222000C12A5
:1001600021000C1022000C1080312000592F21009A
:100170008C1322008C1703302000A2004130A30012
:100180002400920120002208240091002000911DEB
:10019000C728911124009201200023082400910017
:1001A0002000911DD128911121008C1322008C1365
:1001B0000A302000BD008B2021008C1322008C17F8
:1001C00010302000A400C830A500240092012000B7
:1001D0002408240091002000911DEC289111240096
:1001E000920120002508240091002000911DF6288E
:1001F000911121008C1322008C130A302000BD00C5
:100200008B2021008C1322008C1720302000A600A8
:100210004630A70024009201200026082400910007
:100220002000911D1129911124009201200027081E
:10023000240091002000911D1B29911121008C1395
:1002400022008C130A302000BD008B2021008C136B
:1002500022008C1731302000A8007D30A900240036
:10026000920120002808240091002000911D3629C9
:1002700091112400920120002908240091002000FF
:10028000911D4029911121008C1322008C130A30FA
:100290002000BD008B2021008C1322008C174530DC
:1002A0002000AA002930AB002400920120002A0877
:1002B000240091002000911D5B29911124009201DE
:1002C00020002B08240091002000911D6529911128
:1002D00021008C1322008C130A302000BD008B20DB
:1002E00021008C1322008C1759302000AC001430F0
:1002F000AD002400920120002C0824009100200071
:10030000911D802991112400920120002D082400C4
:1003100091002000911D8A29911121008C13220047
:100320008C130A302000BD008B2021008C1322008A
:100330008C176F302000AE00A030AF002400920177
:1003400020002E08240091002000911DA529911164
:100350002400920120002F08240091002000911D0C
:10036000AF29911121008C1322008C130A30200038
:10037000BD008B2021008C1322008C1770302000D0
:10038000B000B10124009201200030082400910047
:100390002000911DC92991112400920120003108EB
:1003A000240091002000911DD329911121008C136C
:1003B00022008C130A302000BD008B206430BD0069
:1003C0008B2021008C1322008C172000A2012130E9
:1003D000A3002400920120002208240091002000A4
:1003E000911DF0299111240092012000230824007E
:1003F00091002000911DFA29911121008C132200F7
:100400008C130A302000BD008B2080315A2F02301F
:10041000C102031C182A2030850021308400000806
:100420000319182A162A142A152A0000800B132AE9
:100430000800A501A401A301A201A901A801A70127
:10044000A601AD01AC01AB01AA01B101B0011330AD
:10045000AF008830AE00B501B401B3013230B20054
:10046000B901B801E130B700B60121000C12220039
:100470000C160A302000BD008B20A501A401A301A9
:10048000A201A508031D832AA408031D832AA3082B
:10049000031D832A210822020318832A21000C103D
:1004A00022000C1420002208F7002308F80024087A
:1004B000F9002508FA0077080320F7000310770CED
:1004C000BC003C08C100072221000C1022000C10C7
:1004D00020002208F7002308F8002408F900250866
:1004E000FA0077080320F7000310770CBC003C08E3
:1004F000C10007220130A2070318A30A0319A40AA6
:100500000319A50A412AA501A401A301A2012508F6
:100510003902031CCA2A031D9D2A24083802031C21
:10052000CA2A031D9D2A23083702031CCA2A031D59
:100530009D2A360822020318CA2A21000C10220024
:100540000C1420003308BC00BC0ABC030319AC2AFD
:10055000FF30C1000722A52A3208C100072221006E
:100560000C1022000C1020003308BC00BC0ABC0395
:100570000319BE2AFF30C1000722B72A3208C10082
:1005800007220130A2070318A30A0319A40A0319BA
:10059000A50A872AA501A401A3012108A200A20897
:1005A000031DDB2AA308031DDB2AA408031DDB2A85
:1005B000A5080319282B21000C1022000C1401306F
:1005C00020002202BC000030233BBD000030243B51
:1005D000BE000030253BBF003C08F7003D08F80096
:1005E0003E08F9003F08FA0077080320F7000310DF
:1005F000770CC0004008C100072221000C10220027
:100600000C10013020002202BC000030233BBD0052
:100610000030243BBE000030253BBF003C08F70003
:100620003D08F8003E08F9003F08FA00770803206B
:10063000F7000310770CC0004008C1000722FF300C
:10064000A207031CA307031CA407031CA507CF2AAA
:1006500021008C1322008C1701302000BA002130B9
:10066000BB002400920120003A08240091002000E1
:10067000911D382B91112400920120003B08240089
:1006800091002000911D422B911121008C1322001A
:100690008C130A302000BD008B201430BC00FA30CF
:1006A000BD008B20BC0B4F2B21008C1322008C171C
:1006B0002000BA012130BB002400920120003A083A
:1006C000240091002000911D632B911124009201C0
:1006D00020003B08240091002000911D6D2B9111FA
:1006E00021008C1322008C130A302000BD008B20C7
:1006F000A501A401A301A201A508031DBE2BA40806
:10070000031DBE2BA308031DBE2B210822020318C4
:10071000BE2B21000C1022000C1420002208F70030
:100720002308F8002408F9002508FA0077080320B8
:10073000F7000310770CBC003C08C1000722210021
:100740000C1022000C1020002208F7002308F800EB
:100750002408F9002508FA0077080320F7000310A1
:10076000770CBC003C08C10007220130A207031827
:10077000A30A0319A40A0319A50A7C2BA501A40145
:10078000A301A20125083902031C052C031DD82B47
:1007900024083802031C052C031DD82B230837021C
:1007A000031C052C031DD82B360822020318052C28
:1007B00021000C1022000C1420003308BC00BC0ADD
:1007C000BC030319E72BFF30C1000722E02B3208DE
:1007D000C100072221000C1022000C102000330859
:1007E000BC00BC0ABC030319F92BFF30C10007226F
:1007F000F22B3208C10007220130A2070318A30A16
:100800000319A40A0319A50AC22BA501A401A30177
:100810002108A200A208031D162CA308031D162CF4
:10082000A408031D162CA5080319632C21000C1025
:1008300022000C14013020002202BC000030233BB7
:10084000BD000030243BBE000030253BBF003C080B
:10085000F7003D08F8003E08F9003F08FA00770865
:100860000320F7000310770CC0004008C1000722E6
:1008700021000C1022000C10013020002202BC00CC
:100880000030233BBD000030243BBE000030253B40
:10089000BF003C08F7003D08F8003E08F9003F089B
:1008A000FA0077080320F7000310770CC000400817
:1008B000C1000722FF30A207031CA307031CA407E3
:1008C000031CA5070A2C21008C1322008C17013071
:1008D0002000BA002130BB002400920120003A0819
:1008E000240091002000911D732C9111240092018D
:1008F00020003B08240091002000911D7D2C9111C7
:1009000021008C1322008C130A302000BD008B20A4
:100910001430BC00FA30BD008B20BC0B8A2C2100A7
:100920008C1322008C172000BA012130BB00240058
:10093000920120003A08240091002000911D9E2C75
:1009400091112400920120003B0824009100200016
:10095000911DA82C911121008C1322008C130A30B8
:100960002000BD008B2021000C1222000C120A3046
:100970002000BD008B20A501A401A301A201A508B0
:10098000031D012DA408031D012DA308031D012D26
:10099000210822020318012D21000C1022000C1442
:1009A00020002208F7002308F8002408F900250891
:1009B000FA0077080320F7000310770CBC003C080E
:1009C000C100072221000C1022000C102000220878
:1009D000F7002308F8002408F9002508FA00770832
:1009E0000320F7000310770CBC003C08C10007226D
:1009F0000130A2070318A30A0319A40A0319A50AC0
:100A0000BF2CA501A401A301A20125083902031CE2
:100A1000482D031D1B2D24083802031C482D031DDF
:100A20001B2D23083702031C482D031D1B2D3608E0
:100A300022020318482D21000C1022000C14200063
:100A40003308BC00BC0ABC0303192A2DFF30C100C7
:100A50000722232D3208C100072221000C1022009A
:100A60000C1020003308BC00BC0ABC0303193C2D49
:100A7000FF30C1000722352D3208C10007220130A6
:100A8000A2070318A30A0319A40A0319A50A052D2E
:100A9000A501A401A3012108A200A208031D592D4C
:100AA000A308031D592DA408031D592DA5080319DA
:100AB000A62D21000C1022000C140130200022026F
:100AC000BC000030233BBD000030243BBE000030A2
:100AD000253BBF003C08F7003D08F8003E08F90040
:100AE0003F08FA0077080320F7000310770CC000D6
:100AF0004008C100072221000C1022000C10013018
:100B000020002202BC000030233BBD000030243B0B
:100B1000BE000030253BBF003C08F7003D08F80050
:100B20003E08F9003F08FA0077080320F700031099
:100B3000770CC0004008C1000722FF30A207031C49
:100B4000A307031CA407031CA5074D2D21008C132C
:100B500022008C1701302000BA002130BB00240095
:100B6000920120003A08240091002000911DB62D2A
:100B700091112400920120003B08240091002000E4
:100B8000911DC02D911121008C1322008C130A306D
:100B90002000BD008B201430BC00FA30BD008B203B
:100BA000BC0BCD2D21008C1322008C172000BA0124
:100BB0002130BB002400920120003A08240091005B
:100BC0002000911DE12D91112400920120003B088D
:100BD000240091002000911DEB2D911121008C1318
:100BE00022008C130A302000BD008B20A501A40137
:100BF000A301A201A508031D3C2EA408031D3C2E41
:100C0000A308031D3C2E2108220203183C2E2100BC
:100C10000C1022000C1420002208F7002308F80012
:100C20002408F9002508FA0077080320F7000310CC
:100C3000770CBC003C08C100072221000C102200E8
:100C40000C1020002208F7002308F8002408F900FF
:100C50002508FA0077080320F7000310770CBC0082
:100C60003C08C10007220130A2070318A30A031998
:100C7000A40A0319A50AFA2DA501A401A301A20142
:100C800025083902031C832E031D562E2408380222
:100C9000031C832E031D562E23083702031C832EAC
:100CA000031D562E360822020318832E21000C1035
:100CB00022000C1420003308BC00BC0ABC0303193A
:100CC000652EFF30C10007225E2E3208C1000722C8
:100CD00021000C1022000C1020003308BC00BC0ABC
:100CE000BC030319772EFF30C1000722702E320893
:100CF000C10007220130A2070318A30A0319A40A9E
:100D00000319A50A402EA501A401A3012108A200F0
:100D1000A208031D942EA308031D942EA408031DEE
:100D2000942EA5080319E12E21000C1022000C14AA
:100D3000013020002202BC000030233BBD00003007
:100D4000243BBE000030253BBF003C08F7003D08B7
:100D5000F8003E08F9003F08FA0077080320F70082
:100D60000310770CC0004008C100072221000C10BE
:100D700022000C10013020002202BC000030233B76
:100D8000BD000030243BBE000030253BBF003C08C6
:100D9000F7003D08F8003E08F9003F08FA00770820
:100DA0000320F7000310770CC0004008C1000722A1
:100DB000FF30A207031CA307031CA407031CA507FD
:100DC000882E21008C1322008C1701302000BA00DD
:100DD0002130BB002400920120003A082400910039
:100DE0002000911DF12E91112400920120003B085A
:100DF000240091002000911DFB2E911121008C13E5
:100E000022008C130A302000BD008B201430BC005F
:100E1000FA30BD008B20BC0B082F21008C13220060
:100E20008C172000BA012130BB0024009201200061
:100E30003A08240091002000911D1C2F91112400DC
:100E4000920120003B08240091002000911D262FD4
:100E5000911121008C1322008C130A302000BD0058
:100E60008B20352A80315B2FF03021009900200043
:100E70002010A01020117430A10023008C018D01DE
:100E80002200920191019401930128306500CF3036
:100E90006600200078287E2821000C1122000C1505
:100EA00002302000A200FA30BD008B20A20B532F8D
:080EB000A028B728192A6300ED
:020000040001F9
:04000E00040EFC1AC6
:00000001FF
;PIC16F1826
;CRC=1C69  CREATED="28-Aðu-14 09:28"
