:1000000080316C2D00000B0091340934F734033437
:100010000B34033490340234423402340B3402344F
:10002000E1340134BF340134A43401348D3401345B
:100030007A340134693401345A3401344D34013492
:1000400042340134373401342E3401342534013440
:100050001D340134153401340F34013408340134B3
:1000600002340134FD340034F7340034F334003406
:10007000EE340034EA340034E5340034E234003441
:10008000DE340034DA340034D7340034D43400346D
:10009000D1340034CE340034CB340034C83400348E
:1000A000C5340034C3340034C0340034BE340034AA
:1000B000BC340034BA340034B8340034B6340034BC
:1000C000B4340034B2340034B0340034AE340034CC
:1000D000AC340034AB340034A9340034A7340034D9
:1000E000A6340034A4340034A3340034A2340034E1
:1000F000A03400349F3400349D3400349C340034E8
:100100009B3400349A3400349834003497340034EB
:1001100096340034953400349434003493340034ED
:100120009234003491340034903400348F340034ED
:100130008E3400348D3400348C3400348B340034ED
:100140008A340034893400348834003487340034ED
:1001500086340034853400348434003483340034ED
:100160008234003481340034803400347F340034ED
:100170007E3400347D3400347C3400347B340034ED
:100180007A340034793400347834003477340034ED
:1001900076340034753400347434003473340034ED
:1001A0007234003471340034703400346F340034ED
:1001B0006E3400346D3400346C3400346B340034ED
:1001C0006A340034693400346834003467340034ED
:1001D000663400346534003422001D179D168031CA
:1001E0002000822D240095121512951115119514D9
:1001F000151094131417951680312000832D20308C
:100200008500133084000008031914290530F80014
:10021000F701F70B0929F80B08292E30F700F70B27
:100220000F291229800B0629080021008C132200B7
:100230008C1321000C1122000C1121008C102200C3
:100240008C1021000C1222000C1221000C10220034
:100250000C1080312000902D21008C1322008C176F
:1002600003302000A3003130A400240092012000BC
:100270002308240091002000911D3C2991112400A5
:10028000920120002408240091002000911D46299D
:10029000911121008C1322008C130A302000B3002E
:1002A000FF2021008C1322008C1710302000A500A5
:1002B000C830A600240092012000250824009100E7
:1002C0002000911D6129911124009201200026082F
:1002D000240091002000911D6B29911121008C13A5
:1002E00022008C130A302000B300FF2021008C1361
:1002F00022008C1720302000A7000C30A80024001A
:10030000920120002708240091002000911D8629D9
:10031000911124009201200028082400910020005F
:10032000911D9029911121008C1322008C130A3009
:100330002000B300FF2021008C1322008C173130E5
:100340002000A9009130AA00240092012000290871
:10035000240091002000911DAB29911124009201ED
:1003600020002A08240091002000911DB529911138
:1003700021008C1322008C130A302000B300FF20D0
:1003800021008C1322008C1745302000AB0029304F
:10039000AC002400920120002B08240091002000D2
:1003A000911DD02991112400920120002C082400D5
:1003B00091002000911DDA29911121008C13220057
:1003C0008C130A302000B300FF2021008C13220080
:1003D0008C1759302000AD001430AE00240092017B
:1003E00020002D08240091002000911DF529911175
:1003F0002400920120002E08240091002000911D6D
:10040000FF29911121008C1322008C130A30200047
:10041000B300FF2021008C1322008C176F302000C6
:10042000AF00A030B0002400920120002F0824006B
:1004300091002000911D1A2A9111240092012000A0
:100440003008240091002000911D242A91112100E0
:100450008C1322008C130A302000B300FF202100EF
:100460008C1322008C1770302000B100B2012400E0
:10047000920120003108240091002000911D3E2AA5
:1004800091112400920120003208240091002000E4
:10049000911D482A911121008C1322008C130A30DF
:1004A0002000B300FF206430B300FF2021008C1334
:1004B00022008C172000A3013130A40024009201F7
:1004C00020002308240091002000911D652A91112D
:1004D0002400920120002408240091002000911D96
:1004E0006F2A911121008C1322008C130A302000F6
:1004F000B300FF208031912D0330AE02031C8B2A04
:10050000203085000E308400000803198B2A892AC8
:100510000000800B882A0800A401A301A801A701FC
:100520004B30A600A50121000C1222000C160A3047
:100530002000B300FF20A401A30124082202031C11
:10054000ED2A031DA72A210823020318ED2A210002
:100550000C1022000C1403102000230DF900240DB0
:10056000FA007908AB002B0A0320FA002B080320BD
:10057000AB007A08AC002C08AD00AD0AAD0303193E
:10058000C52AFF30AE007C22BE2A2B08AE007C229A
:1005900021000C1022000C1003102000230DF90084
:1005A000240DFA007908AB002B0A0320FA002B086F
:1005B0000320AB007A08AC002C08AD00AD0AAD03F7
:1005C0000319E62AFF30AE007C22DF2A2B08AE009A
:1005D0007C22A30A0319A40A9D2AA401A301A80846
:1005E000031DFF2AA708031DFF2A24082602031C57
:1005F000512B031DFF2A250823020318512B21002C
:100600000C1022000C14013020002102AB0000303D
:10061000223BAC0003102B0DF9002C0DFA007908D9
:10062000AB002B0A0320FA002B080320AB007A084A
:10063000AC002C08AD00AD0AAD030319232BFF302D
:10064000AE007C221C2B2B08AE007C2221000C105B
:1006500022000C10013020002102AB000030223BB0
:10066000AC0003102B0DF9002C0DFA007908AB003B
:100670002B0A0320FA002B080320AB007A08AC00F9
:100680002C08AD00AD0AAD0303194A2BFF30AE00B4
:100690007C22432B2B08AE007C22A30A0319A40A58
:1006A000EF2A2208A4002108A300A308031D5B2B46
:1006B000A4080319AE2B21000C1022000C140130E9
:1006C00020002302AB000030243BAC0003102B0DB4
:1006D000F9002C0DFA007908AB002B0A0320FA0070
:1006E0002B080320AB007A08AC002C08AD00AD0A43
:1006F000AD0303197F2BFF30AE007C22782B2B0833
:10070000AE007C2221000C1022000C1001302000D1
:100710002302AB000030243BAC0003102B0DF9008A
:100720002C0DFA007908AB002B0A0320FA002B08E5
:100730000320AB007A08AC002C08AD00AD0AAD0375
:100740000319A62BFF30AE007C229F2B2B08AE0096
:100750007C2223080319A403A303552B21008C1327
:1007600022008C1701302000A9003130AA0024009B
:10077000920120002908240091002000911DBE2B29
:1007800091112400920120002A08240091002000E9
:10079000911DC82B911121008C1322008C130A305B
:1007A0002000B300FF201430AB00FA30B300FF206C
:1007B000AB0BD52B21008C1322008C172000A90134
:1007C0003130AA0024009201200029082400910061
:1007D0002000911DE92B91112400920120002A088C
:1007E000240091002000911DF32B911121008C1306
:1007F00022008C130A302000B300FF2021000C12CD
:1008000022000C160A302000B300FF20A401A3012F
:1008100024082202031C582C031D122C2108230239
:100820000318582C21000C1022000C140310200077
:10083000230DF900240DFA007908AB002B0A0320E0
:10084000FA002B080320AB007A08AC002C08AD009E
:10085000AD0AAD030319302CFF30AE007C22292CE9
:100860002B08AE007C2221000C1022000C1003107B
:100870002000230DF900240DFA007908AB002B0AA3
:100880000320FA002B080320AB007A08AC002C08E8
:10089000AD00AD0AAD030319512CFF30AE007C2230
:1008A0004A2C2B08AE007C22A30A0319A40A082CA8
:1008B000A401A301A808031D6A2CA708031D6A2C24
:1008C00024082602031CBC2C031D6A2C25082302C5
:1008D0000318BC2C21000C1022000C140130200045
:1008E0002102AB000030223BAC0003102B0DF900BD
:1008F0002C0DFA007908AB002B0A0320FA002B0814
:100900000320AB007A08AC002C08AD00AD0AAD03A3
:1009100003198E2CFF30AE007C22872C2B08AE00F2
:100920007C2221000C1022000C100130200021023A
:10093000AB000030223BAC0003102B0DF9002C0D56
:10094000FA007908AB002B0A0320FA002B080320D9
:10095000AB007A08AC002C08AD00AD0AAD0303195A
:10096000B52CFF30AE007C22AE2C2B08AE007C22D2
:10097000A30A0319A40A5A2C2208A4002108A300E0
:10098000A308031DC62CA4080319192D21000C105F
:1009900022000C14013020002302AB000030243B65
:1009A000AC0003102B0DF9002C0DFA007908AB00F8
:1009B0002B0A0320FA002B080320AB007A08AC00B6
:1009C0002C08AD00AD0AAD030319EA2CFF30AE00D0
:1009D0007C22E32C2B08AE007C2221000C1022008C
:1009E0000C10013020002302AB000030243BAC008F
:1009F00003102B0DF9002C0DFA007908AB002B0A1F
:100A00000320FA002B080320AB007A08AC002C0866
:100A1000AD00AD0AAD030319112DFF30AE007C22ED
:100A20000A2D2B08AE007C2223080319A403A3037C
:100A3000C02C21008C1322008C1701302000A9004B
:100A40003130AA00240092012000290824009100DE
:100A50002000911D292D91112400920120002A08C7
:100A6000240091002000911D332D911121008C1341
:100A700022008C130A302000B300FF201430AB009A
:100A8000FA30B300FF20AB0B402D21008C13220065
:100A90008C172000A9013130AA0024009201200007
:100AA0002908240091002000911D542D911124004B
:100AB000920120002A08240091002000911D5E2D43
:100AC000911121008C1322008C130A302000B300F6
:100AD000FF20932A8031922D7A3021009900200046
:100AE0002010A2017430A10023008C018D0122008E
:100AF000920191019401930128306500CF30660086
:100B00002000EC28F22821000C1122000C150230E4
:100B10002000A300FA30B300FF20A30B8A2D152973
:060B20002C298C2A630061
:020000040001F9
:04000E00040EFC1AC6
:00000001FF
;PIC16F1826
;CRC=FBE1  CREATED="20-Kas-14 15:58"
