:08000000D045040000000000DF
:04000C00EC150000EF
:10001000A415000070150000701500007015000098
:1000200070150000701500007015000070150000BC
:1000300070150000701500007015000070150000AC
:10004000701500007015000070150000701500009C
:10005000701500007015000070150000701500008C
:10006000701500007015000070150000701500007C
:10007000701500007015000070150000701500006C
:100080007015000070150000561600007015000075
:10009000701500007015000070150000701500004C
:1000A000701500007015000070150000701500003C
:1000B0007015000070150000341600007015000067
:1000C000701500007015000070150000701500001C
:1000D000701500007015000070150000701500000C
:1000E00070150000701500007015000070150000FC
:1000F00070150000701500007015000070150000EC
:100200003220EF006307200083015000040031001A
:1002100003122000008041001000BA000000060018
:100220000012200083814100808141003380BA00A8
:100230009381BA00C819DD0000807100000006003B
:10024000D00782003C0300007C02810018020000FD
:10025000D8018000AB01000089017E006D01000023
:1002600057017D004501000035017C002701000099
:100270001B017B001001000007017A00FE00000056
:10028000F6007900EF000000E9007800E2000000CD
:10029000DD007700D8000000D3007600CE0000001B
:1002A000CA007500C6000000C2007400BF00000054
:1002B000BB007300B8000000B5007200B20000007F
:1002C000AF007100AD000000AA007000A80000009F
:1002D000A6006F00A3000000A1006E009F000000B8
:1002E0009D006D009B00000099006C0098000000CC
:1002F00096006B009400000093006A0091000000DB
:10030000900069008E0000008D0068008B000000E6
:100310008A006700890000008700660086000000F0
:100320008500650084000000830000003220EF009B
:10033000231A2000008041001040BA000160EF0045
:10034000000006000A0D0000095600006F6C000056
:1003500074610000676500002044000065730000C0
:1003600069720000656400003A20000025750000F5
:10037000000000003220EF00631C200000804100DC
:100380001040BA000160EF00000006000A0D0000F6
:1003900009540000617000002044000065730000F3
:1003A00069720000656400003A20000025750000B5
:1003B000000000003220EF00631E2000008041009A
:1003C0001040BA000160EF00000006000A0D0000B6
:1003D000095600006F6C0000746100006765000042
:1003E0002043000075720000726500006E7400000A
:1003F0003A20000025750000000000003220EF00C8
:10040000A3202000008041001040BA000160EF00EE
:10041000000006000A0D0000095400006170000091
:100420002043000075720000726500006E740000C9
:100430003A20000025750000000000003220EF0087
:10044000A3222000008041001040BA000160EF00AC
:10045000000006000A0D0000095600006F6C000045
:1004600074610000676500002044000069660000B8
:1004700066650000726500006E630000653A00006A
:1004800020250000750000003220EF000325200029
:10049000008041001040BA000160EF00000006003B
:1004A0000A0D00004954000045520000415400006C
:1004B000494F00004E3A0000202500007500000062
:1004C0003220EF00C3262000008041001040BA0017
:1004D0000160EF00000006000A0D00000956000050
:1004E0006F6C00007461000067650000204300002D
:1004F00075720000726500006E740000203A000002
:1005000020250000750000003220EF0003292000A4
:10051000008041001040BA000160EF0000000600BA
:100520000A0D00004974000065720000617400004B
:10053000696F00006E2000006C6900006D690000AA
:1005400074200000726500006163000068650000AF
:10055000640000003220EF00632B20000080410087
:100560001040BA000160EF00000006000A0D000014
:10057000464F0000554E00004421000000000000DE
:100580003220EF00C32C2000008041001040BA0050
:100590000160EF00000006000A0D00000954000091
:1005A0006170000020430000757200007265000059
:1005B0006E740000203A0000202500007500000045
:1005C0003220EF00C32E2000008041001040BA000E
:1005D0000160EF00000006000A0D00000950000055
:1005E00065720000636500006E7400002043000027
:1005F00075720000726500006E7400003A20000001
:10060000257500000A0D0000000000003220EF00F8
:1006100023312000008041001040BA000160EF004B
:10062000000006000A0D000009500000657200007D
:10063000636500006E7400002044000065730000D4
:1006400069720000656400003A0000003220EF008B
:1006500023332000008041001040BA000160EF0009
:10066000000006005365000072690000616C000024
:10067000204E00006F3A0000000000003220EF0022
:10068000A3342000008041001040BA000160EF0058
:10069000000006004D6F0000766500006D650000EB
:1006A0006E74000020520000616E0000676500005B
:1006B0003A20000025750000206D00006D0A000042
:1006C0000D0000003220EF00E336200000804100E2
:1006D0001040BA000160EF0000000600486F000003
:1006E0006D65000020440000697300007461000023
:1006F0006E630000653A00002025000075200000B0
:10070000636F0000756E0000747300000A0D000036
:10071000000000003220EF0063392000008041001B
:100720001040BA000160EF0000000600456E0000B6
:10073000642000004469000073740000616E0000D2
:10074000636500003A20000025750000206300006A
:100750006F7500006E740000730A00000D00000049
:100760003220EF00C33B2000008041001040BA005F
:100770000160EF0000000600436F00006E7600008D
:1007800065720000736900006F6E00002043000076
:100790006F6E000073740000616E0000743A000018
:1007A00020250000752000000A0D00000000000058
:1007B0003220EF00433E2000008041001040BA008C
:1007C0000160EF000000060042610000636B000062
:1007D0006C610000736800003A200000257500007D
:1007E000206300006F7500006E740000730A000043
:1007F0000D0000003220EF00634020000080410027
:100800001040BA000160EF0000000600436F0000D6
:100810006D6D0000756E000069630000617400007A
:10082000696F00006E2000005479000070650000C0
:100830003A20000050610000726100006C6C000002
:10084000656C0000205000006F720000740A000008
:100850000D0000003220EF006343200000804100C3
:100860001040BA000160EF0000000600436F000076
:100870006D6D0000756E000069630000617400001A
:10088000696F00006E200000547900007065000060
:100890003A2000005365000072690000616C00009E
:1008A000205000006F720000740A00000D0000006C
:1008B0003220EF0043462000008041001040BA0083
:1008C0000160EF0000000600436F00006D6D000046
:1008D000756E00006963000061740000696F0000BC
:1008E0006E20000054790000706500003A2000007E
:1008F000556E000064650000666900006E650000CA
:10090000640A00000D0000003220EF0003492000BF
:10091000008041001040BA000160EF0000000600B6
:100920004C61000073740000205000006F730000E1
:1009300069740000696F00006E3A00002025000015
:10094000752000006D6D00000A0D00000000000021
:100950003220EF00434B2000008041001040BA00DD
:100960000160EF0000000600496E000064650000B1
:10097000783A000020250000752C0000205000006F
:100980006F73000069740000696F00006E3A000028
:1009900020250000752000006D6D00000A0D00008C
:1009A000000000003220EF00E34D200000804100F5
:1009B0001040BA000160EF00000006004D4F00003B
:1009C0004445000053490000532000004C41000002
:1009D0005345000052200000504F000053490000D2
:1009E000544900004F4E0000494E000047200000CF
:1009F0005359000053540000454D00000A0A0000FE
:100A00000D0000003220EF00E35020000080410084
:100A10001040BA000160EF000000060052430000E1
:100A20004F4E00002052000045470000495300008F
:100A30005445000052200000564100004C55000073
:100A4000452000005349000046490000524C000078
:100A5000414E0000495900004F5200002E2E000068
:100A60002E0000003220EF00C3012000830150005F
:100A700005003100E3542000008041001040BA001E
:100A80000160EF0000000600E05420008381410077
:100A9000808141001380BA000000060059456C00B7
:100AA0004E49750020526B00434F20004E205400E9
:100AB00052456100474962005354610045526E003F
:100AC00020566400414C61005545290028313A0008
:100AD000302700003220EF00030420008301500083
:100AE0000500310063582000008041001040BA002A
:100AF0000160EF0000000600605820008381410083
:100B0000808141001380BA00000006000A0D6F00CA
:100B1000496E7600766165006C696D006420650041
:100B2000656E6E0074727400793A2000204D720078
:100B30006F766100656D6E00656E670074206500FC
:100B4000726120006E676900652073006361200098
:100B50006E6E73006F746500206274006520200063
:100B6000736D7400616C6F006C652000722034003E
:100B700074683000616E30002034200030306D0029
:100B8000206D6D006D2E2E00204D00003220EF00F4
:100B9000230420008301500005003100235E200063
:100BA000008041001040BA000160EF000000060024
:100BB000205E200083814100808141001380BA00C3
:100BC000000006000A0D6500496E6D007661650043
:100BD0006C696E0064207400656E2000747272008F
:100BE000793A6100204D6E006F766700656D650093
:100BF000656E200074206900726173006E672000CA
:100C000065207300636165006E6E74006F74200070
:100C10002062740065206F006C61200072673200F2
:100C20006572300020743000686130006E20200052
:100C300032306D0030306D00206D2E006D2E0000C2
:100C4000204D00006F7600003220EF00A30320004B
:100C50008301500005003100036420000080410042
:100C60001040BA000160EF000000060000642000A0
:100C700083814100808141001380BA00000006009A
:100C80000A0D4800496E6F0076616D006C69650061
:100C900064202000656E700074726F00793A7300F2
:100CA000204869006F6D740065206900706F6F00E7
:100CB00073696E00746920006F6E690020637300B1
:100CC000616E20006E6F6E0074206F0062657400AC
:100CD000207320006D6163006C6C680065726100B8
:100CE00020746E00686167006E206500313064001A
:100CF0002E2000003220EF0063042000830150000A
:100D00000500310063692000008041001040BA00F6
:100D10000160EF000000060060692000838141004F
:100D2000808141001380BA00000006000A0D6400B3
:100D3000496E2000766170006C696F00642073005A
:100D4000656E690074727400793A690020456F001D
:100D50006E646E00207020006F7369006974730008
:100D6000696F20006E207300636165006E6E740011
:100D70006F7420002062740065206F00736D200086
:100D8000616C69006C6574007220730074682000E7
:100D9000616E6400206865006F6D6600652061000B
:100DA000706F750073696C00746974006F6E2E004B
:100DB0002E200000456E00003220EF00836E2000E0
:100DC000008041001040BA000160EF000000060002
:100DD000436F0000756E0000743A0000202500008B
:100DE00075200000636F0000756E000074730000D2
:100DF0000A0D0000000000003220EF008370200088
:100E0000008041001040BA000160EF0000000600C1
:100E100053740000657000003A2000002575000042
:100E20002073000074650000707300000A0D00005C
:100E3000000000003220EF006372200000804100BB
:100E40001040BA000160EF0000000600436F000090
:100E50006E76000065720000736900006F6E00001E
:100E6000204300006F6E000073740000616E00008C
:100E7000743A00002025000075200000636F000018
:100E8000756E0000747300000A0D00000000000081
:100E90003220EF0043752000008041001040BA006E
:100EA0000160EF0000000600517500006164000061
:100EB000726100007475000072650000204500003A
:100EC0006E6300006F64000065720000204900003E
:100ED0006E69000074690000616C0000697A0000AE
:100EE000656400000A0A00000D0000003220EF00D7
:100EF00023782000008041001040BA000160EF001C
:100F0000000006005175000061640000726100007D
:100F10007475000072650000204500006E630000DB
:100F20006F64000065720000204300006F750000D0
:100F30006E74000020530000657400003A20000029
:100F4000257500000A0A00000D0000003220EF00A5
:100F5000E30120008301500005003100237C2000C4
:100F6000008041001040BA000160EF000000060060
:100F7000207C200083814100808141001380BA00E1
:100F80000000060051756E006164740072612000FB
:100F90007475530072656500204574006E633A00F5
:100FA0006F64200065722500204D750061780A008D
:100FB000696D0A00756D0D00204300006F7500001B
:100FC0003220EF00C37E2000008041001040BA00B4
:100FD0000160EF0000000600505700004D200000A7
:100FE0004D6F0000647500006C6500002049000032
:100FF0006E69000074690000616C0000697A00008D
:10100000656400000A0A00000D0000003220EF00B5
:1010100023812000008041001040BA000160EF00F1
:1010200000000600505700004D20000044690000F9
:1010300073610000626C0000656400000A0D00002E
:10104000000000003220EF00E38220000080410019
:101050001040BA000160EF00000006004469000083
:10106000737000006C610000636500006D65000036
:101070006E7400003A200000257500000A0D000083
:10108000000000003220EF00E384200000804100D7
:101090001040BA000160EF0000000600416300004C
:1010A000636500006C6500007261000074690000F7
:1010B0006F6E0000204C0000696D00006974000034
:1010C0003A200000257500000A0D00000000000015
:1010D0003220EF0043872000008041001040BA001A
:1010E0000160EF0000000600446500006365000039
:1010F0006C65000072610000746900006F6E000092
:10110000204C0000696D0000697400003A20000066
:10111000257500000A0D0000000000003220EF00DD
:10112000A3892000008041001040BA000160EF0058
:101130000000060044650000636500006C65000067
:1011400072610000746900006F6E000020430000AF
:101150006F7500006E7400003A20000025750000D5
:101160000A0D0000000000003220EF0023052000DF
:101170008301500005003100038D200000804100F4
:101180001040BA000160EF0000000600008D200052
:1011900083814100808141001380BA000000060075
:1011A000496E7700766169006C696C0064206C00A0
:1011B000656E200074726D00793A6F0020537600DE
:1011C00079736500746520006D20740063616F00A1
:1011D0006E6E20006F746D00206D61006F76780078
:1011E00065206900746F6D002061750020706D00CE
:1011F0006F73200069747000696F6F006E20730058
:1012000062657300796F69006E64620020746C001F
:1012100068656500206D20006F766400656D69006B
:10122000656E730074207400726161006E676E00F9
:10123000652E63002053650079732E0074650000ED
:101240006D2000003220EF00E304200083015000F5
:1012500005003100E3932000008041001040BA00F7
:101260000160EF0000000600E09320008381410050
:10127000808141001380BA0000000600496E6C00B6
:10128000766120006C696D0064206F00656E7600E9
:1012900074726500793A20002053740079736F00EE
:1012A000746520006D206D00636169006E6E6E00D4
:1012B0006F746900206D6D006F76750065206D009C
:1012C000746F20002061700020706F006F737300D6
:1012D00069747300696F69006E206200736D6C0041
:1012E000616C65006C6520007220640074686900A0
:1012F000616E730020257400752061006D6D6E00B5
:101300002E2063005379650073742E00656D000014
:1013100020770000696C00003220EF0083992000E4
:10132000008041001040BA000160EF00000006009C
:101330000A0D00005461000072670000657400002F
:10134000205000006F73000069740000696F000096
:101350006E3A000020250000752000006D6D000031
:101360000A0D0000000000003220EF00039C200066
:10137000008041001040BA000160EF00000006004C
:10138000496E000069740000696100006C20000073
:1013900045720000726F0000723A000020250000C4
:1013A000640A00000D0000003220EF00039E2000C0
:1013B000008041001040BA000160EF00000006000C
:1013C0005461000072670000657400002045000051
:1013D0006E6300006F64000065720000206300000F
:1013E0006F7500006E7400003A2000002575000043
:1013F0000A0D0000000000003220EF0083A0200052
:10140000008041001040BA000160EF0000000600BB
:101410004375000072720000656E000074200000C9
:10142000456E0000636F00006465000072200000DC
:10143000636F0000756E0000743A00002025000004
:10144000750A00000D0000003220EF0003A3200009
:10145000008041001040BA000160EF00000006006B
:101460004E7500006D62000065720000206F000084
:10147000662000004974000065720000617400007D
:10148000696F00006E7300003A20000025750000AF
:101490000A0D0000000000003220EF0083A52000AC
:1014A000008041001040BA000160EF00000006001B
:1014B00045720000726F0000723A000020250000A3
:1014C000640A00000D0000003220EF0003A7200096
:1014D000008041001040BA000160EF0000000600EB
:1014E000486F00006D6900006E6700002E2E00003E
:1014F0002E0A00000D0000003220EF0083A820001B
:10150000008041001040BA000160EF0000000600BA
:101510004D6F0000766900006E670000204C0000EF
:101520006173000074200000506F000073690000B8
:10153000746900006F6E00003A20000025750000FD
:10154000206D00006D0A00000D0000003220EF0049
:1015500023AB2000008041001040BA000160EF0082
:101560000000060053740000726F00006265000006
:101570002072000065630000656900007665000068
:10158000640A00000D0000003220EF0003AD2000CF
:10159000008041001040BA000160EF00000006002A
:1015A00053740000726F0000626500002073000039
:1015B000696700006E6100006C2000007265000029
:1015C0006A65000063740000656400000A0D000095
:1015D000000000003220EF0063AF200000804100D7
:1015E0001040BA000160EF000000060053740000D4
:1015F000726F000062650000206300006F6E0000E3
:1016000066690000726D0000656400000A0D00004C
:10161000000000003220EF0063B120000080410094
:101620001040BA000160EF0000000600506F00009B
:1016300073690000746900006F6E00002073000081
:1016400065740000202D00003E200000696E00003F
:1016500064650000783A0000202500007520000035
:10166000706F000073690000746900006F6E000005
:101670003A200000257500000A0D0000000000005F
:101680003220EF00C301200083015000050031002B
:10169000C3B52000008041001040BA000160EF0097
:1016A00000000600C0B52000838141008081410018
:1016B0001380BA00000006004D6F6F00766573005E
:1016C000205069006F73740069746900696F6F005E
:1016D0006E206E002D3E3A00206920006E642500C9
:1016E000657875003A200A0025750D00207000000D
:1016F0003220EF0043B82000008041001040BA00C3
:101700000160EF0000000600456D000065720000FA
:10171000676500006E6300007920000053740000CC
:101720006F700000204300006F6D00006D610000CD
:101730006E6400000A0D0000000000003220EF007F
:10174000A3BA2000008041001040BA000160EF0001
:1017500000000600486F00006D6900006E67000021
:10176000204300006F6D00006D6100006E6400009A
:101770000A0D0000000000003220EF0083BC2000B2
:10178000008041001040BA000160EF000000060038
:101790004C61000073650000722000004F6600007D
:1017A00066200000436F00006D6D0000616E000058
:1017B000640A00000D0000003220EF0083BE20000C
:1017C000008041001040BA000160EF0000000600F8
:1017D0004C61000073650000722000004F6E000035
:1017E000204300006F6D00006D6100006E6400001A
:1017F0000A0D0000000000003220EF0083C020002E
:10180000008041001040BA000160EF0000000600B7
:101810005365000074200000506F000073690000E1
:10182000746900006F6E0000204300006F6D0000BF
:101830006D6100006E6400000A0D000000000000F1
:101840003220EF00C3C22000008041001040BA00E7
:101850000160EF00000006000A0D0000434F000089
:101860004D4D0000414E0000442000004C49000056
:10187000535400000A0D0000000000003220EF0069
:10188000A3C42000008041001040BA000160EF00B6
:10189000000006000A0D00005365000074200000DF
:1018A0005365000072690000616C0000204E00006A
:1018B000756D000062650000720900002873000069
:1018C000290000003220EF00E3C620000080410024
:1018D0001040BA000160EF00000006000A0D000091
:1018E00053650000742000004D6F00007665000015
:1018F00020520000616E00006765000020090000B2
:101900000928000072290000000000003220EF00CA
:1019100023C92000008041001040BA000160EF00A0
:10192000000006000A0D000053650000742000004E
:10193000486F00006D6900006E67000020440000E1
:1019400069730000746100006E6300006520000090
:101950000928000068290000000000003220EF0084
:10196000A3CB2000008041001040BA000160EF00CE
:10197000000006000A0D00005365000074200000FE
:10198000456E00006420000044690000737400008C
:10199000616E0000636500002009000028650000FA
:1019A000290000003220EF00E3CD2000008041003C
:1019B0001040BA000160EF00000006000A0D0000B0
:1019C0005365000074200000436F00006E76000035
:1019D00065720000736900006F6E00002043000014
:1019E0006F6E000073740000616E000074090000E7
:1019F00028760000290000003220EF0083D020006C
:101A0000008041001040BA000160EF0000000600B5
:101A10000A0D0000536500007420000042610000C0
:101A2000636B00006C610000736800002009000017
:101A30000928000062290000000000003220EF00A9
:101A4000A3D22000008041001040BA000160EF00E6
:101A5000000006000A0D000053650000742000001D
:101A6000436F00006D6D0000756E0000696300003B
:101A700061740000696F00006E200000547900005E
:101A80007065000020090000287400002900000093
:101A90003220EF0043D52000008041001040BA0002
:101AA0000160EF00000006000A0D0000476500001D
:101AB000742000005379000073740000656D00000D
:101AC000204400006174000061200000092800002B
:101AD00069290000000000003220EF0083D72000B9
:101AE000008041001040BA000160EF0000000600D5
:101AF0000A0D00004765000074200000506F0000D0
:101B000073690000746900006F6E0000204C0000D3
:101B10006973000074200000092800006D2900008E
:101B2000000000003220EF00E3D9200000804100D7
:101B30001040BA000160EF00000006000A0D00002E
:101B40004D6F000076650000205400006F200000FB
:101B5000506F000073690000746900006F6E000030
:101B60002009000028780000290000003220EF0042
:101B700023DC2000008041001040BA000160EF002B
:101B8000000006000A0D00005365000074200000EC
:101B900054610000626C0000652000004461000098
:101BA000746100002009000009280000712900006C
:101BB000000000003220EF0063DE200000804100C2
:101BC0001040BA000160EF00000006000A0D00009E
:101BD000546500007374000020520000756E000010
:101BE000202800006C6F0000772000007265000064
:101BF0007329000020090000286F00002900000060
:101C00003220EF00C3E02000008041001040BA0005
:101C10000160EF00000006000A0D0000546500009E
:101C20007374000020520000756E00002028000030
:101C3000686900006768000020720000657300009A
:101C400029200000092800006C2900000000000085
:101C50003220EF0043E32000008041001040BA0032
:101C60000160EF00000006000A0D0000536500004F
:101C700074200000446500006275000067200000C9
:101C80005374000061740000652000000928000002
:101C900064290000000000003220EF0083E52000EE
:101CA000008041001040BA000160EF000000060013
:101CB0000A0D00004765000074200000456E00001A
:101CC000636F00006465000072200000436F000035
:101CD000756E0000742000000928000077290000BC
:101CE000000000003220EF00E3E720000080410008
:101CF0001040BA000160EF00000006000A0D00006D
:101D00005374000061720000742000004D650000F3
:101D10006D6F0000727900002054000065730000B0
:101D200074200000092800007A290000000000004B
:101D30003220EF0043EA2000008041001040BA004A
:101D40000160EF00000006000A0D0000436C000077
:101D500065610000722000004D6500006D6F00009D
:101D6000727900002009000009280000662900009F
:101D7000000000003220EF0063EC200000804100F2
:101D80001040BA000160EF00000006000A0D0000DC
:101D90005365000074200000536500007269000064
:101DA000616C0000204E0000756D0000626500004F
:101DB000722000002831000033200000436800003A
:101DC00061720000616300007465000072730000BE
:101DD000293A0000200000003220EF0083EF2000AD
:101DE000008041001040BA000160EF0000000600D2
:101DF0000A0D000053650000742000004D6F0000C4
:101E00007665000020520000616E000067650000EA
:101E1000206900006E2000006D6D00002028000089
:101E20007878000078780000293A0000200000004F
:101E30003220EF0043F22000008041001040BA0041
:101E40000160EF00000006000A0D0000536500006D
:101E500074200000486F00006D6900006E6700008C
:101E60002044000069730000746100006E6300008C
:101E700065200000696E0000206300006F7500009F
:101E80006E7400007320000028780000787800004D
:101E9000782900003A200000000000003220EF0006
:101EA000A3F52000008041001040BA000160EF005F
:101EB000000006000A0D00005365000074200000B9
:101EC000456E000064200000446900007374000047
:101ED000616E000063650000206900006E20000054
:101EE000636F0000756E000074730000202800000E
:101EF0007878000078780000782900003A20000007
:101F0000000000003220EF00E3F8200000804100D4
:101F10001040BA000160EF00000006000A0D00004A
:101F20005365000074200000436F00006E760000CF
:101F300065720000736900006F6E000020430000AE
:101F40006F6E000073740000616E0000742000006A
:101F5000287800007878000078780000293A00009E
:101F6000200000003220EF00E3FB20000080410051
:101F70001040BA000160EF00000006000A0D0000EA
:101F8000536500007420000042610000636B000094
:101F90006C61000073680000202800007878000061
:101FA000293A0000200000003220EF000302200048
:101FB000830150000500310003FF20000080410034
:101FC0001040BA000160EF000000060000FF200092
:101FD00083814100808141001380BA000000060027
:101FE0000A0D610053656C0074206C00436F65003E
:101FF0006D6D6C00756E2C0069632000617431009A
:10200000696F3A006E2020005479520070655300C9
:1020100020283200303A3300205032006172000034
:102020003220EF00C3012100008041001040BA00BF
:102030000160EF00000006000A0D00004765000087
:1020400074200000506F0000736900007469000084
:102050006F6E0000204C00006973000074280000BF
:10206000303C00003D5800003C3D00003929000094
:102070003A200000000000003220EF00830421001D
:10208000008041001040BA000160EF00000006002F
:102090000A0D00004D6F000076650000205400001E
:1020A0006F280000303C00003D5800003C3D00001F
:1020B0003939000039390000293A000020000000B9
:1020C0003220EF00C3062100008041001040BA001A
:1020D0000160EF00000006000A0D0000456E0000E0
:1020E000746500007220000054610000626C000002
:1020F00065200000496E0000646500007820000043
:1021000028780000782900003A2000000000000034
:102110003220EF0043092100008041001040BA0046
:102120000160EF00000006000A0D0000496E00008B
:1021300064650000783A000020250000750000006A
:102140003220EF00C30A2100008041001040BA0095
:102150000160EF00000006000A0D0000456E00005F
:102160007465000072200000506F00007369000069
:10217000746900006F6E000020280000787800006D
:1021800078780000293A0000200000003220EF009B
:10219000230D2100008041001040BA000160EF00D3
:1021A000000006000A0D0000506F00007369000077
:1021B000746900006F6E00003A2000002575000071
:1021C000000000003220EF00E30E210000804100FB
:1021D0001040BA000160EF00000006000A0D000088
:1021E000537000006565000064200000287800003E
:1021F00078780000782900003A20000000000000F4
:102200003220EF00C3102100008041001040BA00CE
:102210000160EF00000006000A0D00005365000099
:1022200074200000646500006275000067200000F3
:102230007374000061740000650A00000D00000066
:102240003220EF00C3122100008041001040BA008C
:102250000160EF00000006004469000067690000AB
:10226000746100006C200000706F00007465000055
:102270006E740000696F00006D65000074650000F9
:102280007220000028610000292800003020000092
:102290006F72000020310000293A0000200A00007F
:1022A0000D0000003220EF00E31521000080410006
:1022B0001040BA000160EF0000000600506100000D
:1022C000726100006C6C0000656C00002070000002
:1022D0006F72000074200000202000002020000009
:1022E0002020000020200000286200002928000093
:1022F000302000006F72000020310000293A0000F9
:10230000200A00000D0000003220EF000319210018
:10231000008041001040BA000160EF00000006009C
:1023200046520000414D0000202000002020000007
:10233000202000002020000020200000202000009D
:102340002020000020200000202000002863000042
:1023500029280000302000006F72000020310000AA
:10236000293A0000200A00000D0000003220EF0092
:10237000231C2100008041001040BA000160EF00E2
:10238000000006004D6F0000746F00007220000016
:102390006472000069760000657200002020000071
:1023A000202000002020000020200000202000002D
:1023B0002864000029280000302000006F7200000F
:1023C00020310000293A0000200A00000D00000022
:1023D0003220EF00431F2100008041001040BA006E
:1023E0000160EF0000000600456E0000636F000012
:1023F0006465000072200000202000002020000002
:1024000020200000202000002020000020200000CC
:10241000202000002865000029280000302000004E
:102420006F72000020310000293A0000200A0000ED
:102430000D0000003220EF006322210000804100E7
:102440001040BA000160EF00000006005057000085
:102450004D2000004D6F0000647500006C650000A9
:10246000202000002020000020200000202000006C
:1024700020200000202000002866000029280000FD
:10248000302000006F72000020310000293A000067
:10249000200A00000D0000003220EF0083252100FB
:1024A000008041001040BA000160EF00000006000B
:1024B000416C00006C2000004D6F0000646500005E
:1024C00073200000202000002020000020200000B9
:1024D00020200000202000002020000028670000AD
:1024E00029280000302000006F7200002031000019
:1024F000293A0000200A00000D0000003220EF0001
:10250000A3282100008041001040BA000160EF00C4
:1025100000000600536500006C6500006374000055
:10252000696F00006E200000287800007829000004
:102530003A200000000000003220EF00832A210032
:10254000008041001040BA000160EF00000006006A
:10255000496E0000766100006C6900006420000094
:10256000456E000074720000790A00000D00000042
:102570003220EF00432C2100008041001040BA00BF
:102580000160EF00000006000A0D0000456E00002B
:10259000636F00006465000072200000636F00003C
:1025A000756E00007420000025340000750A0000DC
:1025B0000D0000003220EF00C30120008301500015
:1025C00005003100632F2100008041001040BA0057
:1025D0000160EF0000000600602F210083814100B0
:1025E000808141001380BA00000006000A0D31000E
:1025F00053742C006172200074204E004D656F00F2
:102600006D6F200072792D0020543E00657320000C
:10261000742030002859290065733A00202D2000CD
:102620003E2000003220EF00E33121000080410015
:102630001040BA000160EF00000006000A0D000023
:10264000436C000065610000722000004D650000D1
:102650006D6F0000727900002028000059650000AD
:10266000732000002D3E0000203100002C200000CF
:102670004E6F0000202D00003E2000003029000099
:102680003A200000000000003220EF000335210056
:10269000008041001040BA000160EF000000060019
:1026A000556E000065780000706C000061690000E4
:1026B0006E65000064200000696E00007465000013
:1026C0007272000075700000740D00000A000000B6
:1026D0003220EF0043372100008041001040BA0053
:1026E0000160EF00000006006164000064720000F9
:1026F000657300007320000065720000726F0000B7
:10270000720000003220EF00E33821000080410019
:102710001040BA000160EF00000006006F73000077
:1027200063660000616900006C0000003220EF0069
:10273000233A2100008041001040BA000160EF0000
:10274000000006000A0A00000D4D00004F44000082
:102750004553000049530000204C00004153000045
:1027600045520000205000004F5300004954000023
:10277000494F00004E4900004E4700002053000022
:1027800059530000544500004D0A00000A0D000096
:10279000000000003220EF00633D21000080410076
:1027A0001040BA000160EF00000006005072000007
:1027B00065730000732000002763000027200000DD
:1027C000666F000072200000636F00006D6D0000F6
:1027D000616E0000642000006C69000073740000EA
:1027E0000A0A00000D0000003220EF000340210023
:1027F000008041001040BA000160EF0000000600B8
:10280000524300004F4E0000205200004547000098
:10281000495300005445000052200000564100007A
:102820004C5500004528000031300000276C0000A6
:10283000756B00002054000061620000616E0000B2
:1028400064610000293A0000202000000000000020
:102850003220EF0043432100008041001040BA00C5
:102860000160EF0000000600524300004F4E0000E0
:102870002052000045470000495300005445000025
:102880005220000042490000544C00004552000014
:10289000493A0000000000003220EF00834521008B
:1028A000008041001040BA000160EF000000060007
:1028B000504F0000523A000020200000202000006D
:1028C000000000003220EF00E346210000804100BC
:1028D0001040BA000160EF0000000600424F000007
:1028E000523A0000202000002020000000000000DC
:1028F0003220EF0043482100008041001040BA0020
:102900000160EF0000000600494400004C45000053
:102910003A20000020200000000000003220EF00DC
:10292000A3492100008041001040BA000160EF007F
:1029300000000600534C000045450000503A0000DE
:1029400020200000000000003220EF00034B210097
:10295000008041001040BA000160EF000000060056
:1029600057440000544F00003A200000202000008F
:10297000000000003220EF00634C21000080410085
:102980001040BA000160EF0000000600535700003D
:1029900044540000454E00003A20000000000000B2
:1029A0003220EF00C34D2100008041001040BA00EA
:1029B0000160EF000000060053570000523A00008B
:1029C0002020000020200000000000003220EF0046
:1029D000234F2100008041001040BA000160EF0049
:1029E0000000060045580000545200003A20000044
:1029F00020200000000000003220EF008350210062
:102A0000008041001040BA000160EF0000000600A5
:102A100042470000535400003A20000020200000EC
:102A2000000000003220EF00E3512100008041004F
:102A30001040BA000160EF0000000600494F00009E
:102A400050550000575200003A20000000000000DE
:102A50003220EF0043532100008041001040BA00B3
:102A60000160EF00000006005452000041500000D9
:102A7000523A000020200000000000003220EF0049
:102A8000A3542100008041001040BA000160EF0013
:102A900000000600526500006769000073740000C2
:102AA00065720000204500006B720000616E00003E
:102AB00061200000596100007A6400006972000022
:102AC000696C000069700000205300006966000016
:102AD000697200006C6100006E6400006900000013
:102AE0004200F8003600F800801F78002000200027
:102AF0000C000900B01F78000100200001007800E0
:102B000044130200000000008100E800811F7800EB
:102B10001922AF00FEFF3700D0108800CF007800E8
:102B2000600120000008E600F4FF3700A00120004B
:102B30000C0009004F1078004F0078003600F900B3
:102B40004200F900004006004200F8003600F8009C
:102B5000801F7800200020000C000900B01F7800C2
:102B6000010020000100780068130200000000004E
:102B70008100E800811F78001922AF00FEFF3700B6
:102B8000D0108800CF007800C00020000008E600C8
:102B9000F4FF37001922AF00FEFF3700A400200029
:102BA000D41088001922AF00FEFF3700D4002000A7
:102BB000D41088008060A9008060A900A0012000D6
:102BC0000C0009004F1078004F0078003600F90023
:102BD0004200F900004006004200F8003600F8000C
:102BE000801F7800200020000C000900B01F780032
:102BF00001002000010078008213020000000000A4
:102C00008100E800811F78001922AF00FEFF370025
:102C1000D0108800CF007800600020000008E60097
:102C2000F4FF37001922AF00FEFF3700A400200098
:102C3000D41088001922AF00FEFF3700D400200016
:102C4000D41088008020A9008020A900A0012000C5
:102C50000C0009004F1078004F0078003600F90092
:102C60004200F900004006004200F8003600F8007B
:102C7000801F7800200020000C000900B01F7800A1
:102C800000C8AF00010037004C08A8008880A900E8
:102C9000A00120000C0009004F1078004F007800C0
:102CA0003600F9004200F900004006004200F8003A
:102CB0003600F800801F7800200020000C0009007A
:102CC000B01F78004C68A8008700A900A001200070
:102CD0000C0009004F1078004F0078003600F90012
:102CE0004200F900004006000000E0004220AF0072
:102CF000060037002935090000000000FF3F0900E9
:102D0000000000000000E900F7FF370000000600A7
:102D1000851F7800C500200003000900B51F78005A
:102D2000800378008404780004F0A1000400E0002F
:102D300006003A0009F0A700020037000500200055
:102D40000F003700050020000D003700E64252005A
:102D50000A0039000003200009F0A600000220004C
:102D60001922AF00FEFF3700D01088008502E9006D
:102D7000FBFF3B0055002000010037008402780073
:102D80006400200005E0A00009F0A70005F0A00005
:102D900008712200110009008883D8000217020080
:102DA0000000000081037800883E20001100090027
:102DB0008883D80002170200000000008103780019
:102DC00048062000110009008883D800021702007D
:102DD0000000000081037800A80020001100090015
:102DE0008883D800021702000000000000032000C2
:102DF00000C040001922AF00FEFF3700D01088004D
:102E000019003700060320000000E0000E003A0021
:102E100005E0A6000D0037000402E9000524E100EA
:102E2000020032004200AF00000006000000E00097
:102E300005003A0005E0A6000400370005F0A600F2
:102E4000060220000100370005E0A1000040430019
:102E5000811F78001922AF00FEFF3700D0108800D4
:102E6000CF007800000006002501200003000900C3
:102E7000CF127800CF027800000006002301A900DD
:102E80002321A9002341A90023E1A90023A1A9002E
:102E900022E1A90022C1A90022A1A9002261A90062
:102EA0002281A9002241A9002221A9002201A90012
:102EB0002501A90024E1A80024C1A80024A1A8009C
:102EC0002481A8002621EF0028A1EF002341A800BB
:102ED0002321A8002301A80000A8AE000D003700A0
:102EE00001002000010078004807020000000000F7
:102EF0008100E800811F78001922AF00FEFF370033
:102F0000D0108800CF007800000220000008E60002
:102F1000F4FF370000000600A808E20004003A00B1
:102F2000C021A900C001A900A217040000000000F0
:102F3000444580006120E10002003A00C021A90060
:102F4000C001A80000000600C1E1A900C0E1A9007D
:102F5000C0C1A900C0A1A900C081A900C061A90089
:102F6000C041A900A828EF008C1702000000000053
:102F7000C901A800C881A800CA41A90090E0A90021
:102F8000C421EF00D621EF000068AE000D0037002D
:102F90000100200001007800E007020000000000AE
:102FA0008100E800811F78001922AF00FEFF370082
:102FB000D0108800CF007800800120000008E600D3
:102FC000F4FF370000000600E522A900E922A8006E
:102FD000E502A900E902A90000000600851F7800AB
:102FE000C500200003000900B51F78000202B800E8
:102FF0000303B8004200A9008502430060844B002F
:10300000020BB80085024B0008844B00030BB8008C
:10301000080443000780B0008701780008017800A9
:1030200085007800040078002501200003000900D5
:10303000CF127800CF02780000000600851F7800CC
:10304000C500200003000900B51F7800090020001A
:103050004300AF0019002000891F78000002EB0038
:103060008002EB000003EB008003EB000304690027
:1030700011003200080220004200A9000080D200A6
:103080008180D2000482D2008582D2000328E10030
:1030900001003A0002A0E1000300390002025200E0
:1030A00083825A004200A8000683D2008783D200A0
:1030B0000804E900F0FF3A00870078000600780075
:1030C000CF0478000900E000010032000400BE00D7
:1030D0002501200003000900CF127800CF027800FC
:1030E0000000060010408000244680000020E1001F
:1030F000020036000208F800C408F900E502A90041
:10310000E902A8001C00090000000000E522A90057
:10311000E922A9001C00090000000000C628EF00F9
:1031200030468000244680000020E1000F00360079
:10313000E502A900E902A9001C0009000000000046
:10314000E502A900E902A8001C0009000000000037
:10315000E502A900E902A9001C0009000000000026
:10316000C628EC009018040000000000E522A90029
:10317000E922A800000006001040800024468000DC
:103180000020E100020036000208F800C408F9003F
:10319000E502A900E902A9001C00090000000000E6
:1031A000E522A900E922A9001C0009000000000096
:1031B000C628EF0030468000244680000020E10051
:1031C0000B003600E502A900E902A8001C00090076
:1031D00000000000E502A900E902A9001C000900A6
:1031E00000000000C628EC00DA180400000000000F
:1031F000E522A900E922A80000000600851F78004A
:103200003400200084458800B228EF00F40020003C
:10321000A445880074458000134080000320B80056
:103220008002780005027800234080001100090028
:103230000382D800B0458800A002A900A022A800FF
:10324000A002AE00FEFF37008002F800B808F900C7
:1032500074458000C3458000830252000500780059
:10326000D54588000008AE00670037000100200047
:103270000100780096010200000000008100E800D3
:10328000811F78001922AF00FEFF3700D0108800A0
:10329000CF007800300120000008E600F4FF37007E
:1032A0007045800004002000881602000000000025
:1032B00014408000734580000320B800800278002D
:1032C0000502780023408000110009000382D80025
:1032D000800278000100200001007800BA0102009D
:1032E000000000008100E800811F78001922AF0073
:1032F000FEFF3700D0108800CF007800F0002000DB
:103300000008E600F4FF3700050078000400200004
:103310008816020000000000010020000100780073
:10332000DA010200000000008100E800811F78003F
:103330001922AF00FEFF3700D0108800CF007800C0
:10334000300120000008E600F4FF3700C04580008F
:1033500004002000881602000000000014408000D5
:10336000C34580000320B800800278000502780081
:1033700023408000110009000382D80080027800F9
:103380000100200001007800FE01020000000000A2
:103390008100E800811F78001922AF00FEFF37008E
:1033A000D0108800CF007800F00020000008E60070
:1033B000F4FF3700050078000400200088160200A2
:1033C0000000000001002000010078001E02020041
:1033D000000000008100E800811F78001922AF0082
:1033E000FEFF3700D0108800CF0078006001200079
:1033F0000008E600F4FF3700D045800004002000FC
:103400008816020000000000A0458000D44580001E
:103410000020E100B7003600904580008445800020
:103420000020E100A1003600B228EC00144080002A
:10343000C34580000320B8008002780005027800B0
:1034400023408000110009000382D800E045880075
:10345000E0458000B44580000020E100080036000F
:10346000B4458000E3458000830252002546880071
:103470007218020000000000741A0400000000002E
:10348000B0458000E44580000020E10008003600DF
:10349000E4458000B3458000830252002546880041
:1034A000BC18020000000000741A040000000000B4
:1034B000C0458000744580000020E1000600360011
:1034C000140020002446880072180200000000004A
:1034D000741A040000000000140020002446880034
:1034E000BC180200000000005E2A09000000000075
:1034F000FF3F090000000000FF3F0900000000003E
:10350000FF3F090000000000A002A900A022A800BF
:10351000A002AE00FEFF37008002F800B808F900F4
:10352000C0458000744580000020E10006003600A0
:1035300074458000C345800003005200D0458800D8
:10354000AC1A040000000000C445800073458000F0
:1035500003005200D04588000008AE00510037003B
:103560000100200001007800440202000000000079
:103570008100E800811F78001922AF00FEFF3700AC
:10358000D0108800CF007800C00020000008E600BE
:10359000F4FF3700904580000400200088160200E8
:1035A0000000000014408000C34580000320B800E4
:1035B0008002780005027800234080001100090095
:1035C0000382D8008002780001002000010078000A
:1035D000FE010200000000008100E800811F780069
:1035E0001922AF00FEFF3700D0108800CF0078000E
:1035F000F00020000008E600F4FF37000500780026
:1036000004002000881602000000000001002000D5
:103610000100780060020200000000008100E80064
:10362000811F78001922AF00FEFF3700D0108800FC
:10363000CF007800400120000008E600F4FF3700CA
:10364000C045800004002000881602000000000031
:1036500074458000C3458000830252000500780055
:1036600001002000010078001E020200000000009E
:103670008100E800811F78001922AF00FEFF3700AB
:10368000D0108800CF007800600120000008E6001C
:10369000F4FF3700050078000400200088160200BF
:1036A00000000000761B0400000000000008AE00CF
:1036B0000D003700010020000100780084020200A4
:1036C000000000008100E800811F78001922AF008F
:1036D000FEFF3700D0108800CF0078008001200066
:1036E0000008E600F4FF37005A003700041A04000F
:1036F000000000000008AE00560037000100200066
:1037000001007800AA020200000000008100E80029
:10371000811F78001922AF00FEFF3700D01088000B
:10372000CF007800700020000008E600F4FF3700AA
:1037300014408000C34580000320B8008002780058
:103740000502780023408000110009000382D800A0
:10375000800278000100200001007800C002020011
:10376000000000008100E800811F78001922AF00EE
:10377000FEFF3700D0108800CF0078000001200045
:103780000008E600F4FF3700050078000400200080
:103790008816020000000000A002A900A022A800D4
:1037A000A002AE00FEFF37000514800001002000DB
:1037B0000100780060020200000000008100E800C3
:1037C000811F78001922AF00FEFF3700D01088005B
:1037D000CF007800400120000008E600F4FF370029
:1037E0000500780004002000881602000000000098
:1037F000A002A900A022A800A002AE00FEFF370090
:10380000001480007445800080025200050078009A
:1038100001002000010078001E02020000000000EC
:103820008100E800811F78001922AF00FEFF3700F9
:10383000D0108800CF007800600120000008E6006A
:10384000F4FF37000500780004002000881602000D
:1038500000000000CF02780000000600851F7800FD
:10386000861F7800A002A900A022A800A002AE0036
:10387000FEFF3700001480000100200000017800E6
:10388000810178004006200001002000EE170200B0
:103890000000000080027800010378004300A900C6
:1038A0000500780086007800324080000300200088
:1038B0001E18020000000000804588000008AE00CD
:1038C000190037000100200001007800E00202002A
:1038D000000000008100E800811F78001922AF007D
:1038E000FEFF3700D0108800CF00780030012000A4
:1038F0000008E600F4FF3700804580000400200047
:1039000088160200000000001922AF00FEFF3700F9
:10391000A4002000D41088001922AF00FEFF370059
:10392000D4002000D4108800B008F8000000F9008E
:103930004F037800CF02780000000600851F780052
:10394000861F780044458000430620000418E100EB
:103950000200310044062000444588000008AE0003
:10396000110037000100200001007800060302006A
:10397000000000008100E800811F78001922AF00DC
:10398000FEFF3700D0108800CF0078002001200013
:103990000008E600F4FF37004045800004002000E6
:1039A0008816020000000000454580000600200047
:1039B0000500780086007800324080000300200077
:1039C000EE1702000000000080027800010378007A
:1039D0004300A90005007800860078004206200018
:1039E000030020001E18020000000000504588005F
:1039F000AA08F800AE08F900FE1802000000000056
:103A00002E1C02000000000000A0B7004F03780049
:103A1000CF027800000006000A08F800A808F900A4
:103A20009E1C020000000000D802A900DC02A800D1
:103A3000D862A900DC62A800DE22A900E222A90067
:103A4000D882A900DC82A800DE02A900E202A80058
:103A5000D2E2A900D6E2A800D842A900DC42A9001F
:103A6000D822A900DC22A90000000600E4E2A90097
:103A7000E8E2A800E4C2A900E8C2A900D8C2A900EF
:103A8000DCC2A900D8A2A900DCA2A900000006009F
:103A900030C0B300B5E8B700AEC8BF00B0E8B700AB
:103AA000AFC8BF00B1E8B700B5C8BF00B2E8B70003
:103AB000E4E2A900E8E2A9001C00090000000000FF
:103AC000B368EF00944580004822DE007824E100CE
:103AD000190031004200A900B0A8D600B2E8D60013
:103AE00002003100DCC2A90001003700DCC2A800DE
:103AF000D8C2A9001C00090000000000D8A2A9003B
:103B0000DCA2A8001C00090000000000D8C2A90027
:103B1000DCC2A9001C00090000000000D8A2A90016
:103B2000DCA2A9001C00090000000000B368EC0042
:103B3000621D040000000000B368EF00944580009F
:103B40004822DE006824E100160031001C00090054
:103B500000000000D8E2A800DAE2AF00020037005F
:103B60004200A900010037004200A800B4E8D600D6
:103B7000D8A2A900DCA2A8001C00090000000000D7
:103B80001C00090000000000D8A2A900DCA2A900C6
:103B90001C00090000000000B368EC009E1D04003A
:103BA00000000000E4E2A900E8E2A8001C0009000F
:103BB00000000000B4C8BF0000E0B700000006002D
:103BC000851F7800A008F800AE08F900481D020023
:103BD00000000000A4E8B700A568EF0004458000DD
:103BE000610242008402780075458800481D020089
:103BF00000000000A6E8B700A768EF00A6C8BF0055
:103C00000BE0B7008042EB0005007800A408B40088
:103C100010458800A208F8000000F900CF027800E3
:103C2000000006003408F800A008F900E01D0200BA
:103C300000000000804488000048AE001E003700ED
:103C400001002000010078003E0302000000000097
:103C50008100E800811F78001922AF00FEFF3700C5
:103C6000D0108800CF007800F00020000008E600A7
:103C7000F4FF370080448000040020008816020012
:103C80000000000021012000010078003E03020036
:103C9000000000008100E800811F78001922AF00B9
:103CA000FEFF3700D0108800CF00780060012000B0
:103CB0000008E600F4FF37009008F8000000F90063
:103CC000000006003608F800A008F900E01D020018
:103CD00000000000F04488000048AE001E003700DD
:103CE00001002000010078006203020000000000D3
:103CF0008100E800811F78001922AF00FEFF370025
:103D0000D0108800CF007800E00020000008E60016
:103D1000F4FF3700F0448000040020008816020001
:103D20000000000011012000010078006203020081
:103D3000000000008100E800811F78001922AF0018
:103D4000FEFF3700D0108800CF00780090012000DF
:103D50000008E600F4FF37009E08F8000000F900B4
:103D6000000006003808F800A008F900E01D020075
:103D700000000000804488000048AE001E003700AC
:103D800001002000010078008A030200000000000A
:103D90008100E800811F78001922AF00FEFF370084
:103DA000D0108800CF007800D00020000008E60086
:103DB000F4FF3700804480000400200088160200D1
:103DC0000000000001012000010078008A030200C9
:103DD000000000008100E800811F78001922AF0078
:103DE000FEFF3700D0108800CF007800800120004F
:103DF0000008E600F4FF37009008F8000000F90022
:103E0000000006003C08F800A008F900E01D0200D0
:103E100000000000804488000048AE001E0037000B
:103E20000100200001007800D8030200000000001B
:103E30008100E800811F78001922AF00FEFF3700E3
:103E4000D0108800CF007800900020000008E60025
:103E5000F4FF370080448000040020008816020030
:103E600000000000C100200001007800D80302001B
:103E7000000000008100E800811F78001922AF00D7
:103E8000FEFF3700D0108800CF00780040012000EE
:103E90000008E600F4FF37009008F8000000F90081
:103EA000000006005608F8002801F90000A8AE003E
:103EB0001D0037000100200001007800A607020065
:103EC000000000008100E800811F78001922AF0087
:103ED000FEFF3700D0108800CF007800500220008D
:103EE0000008E600F4FF3700B04280000400200024
:103EF00088160200000000001922AF00FEFF370004
:103F0000A4002000D41088001922AF00FEFF370063
:103F1000A4002000D41088001922AF00FEFF370053
:103F2000D4002000D4108800000006003A08F800F1
:103F3000A008F900E01D0200000000008044880095
:103F40008444800003EE22000418E10004003E00D7
:103F500084448000832C23000418E1000200310017
:103F6000440D2300844488000048AE001D00370043
:103F70000100200001007800B003020000000000F2
:103F80008100E800811F78001922AF00FEFF370092
:103F9000D0108800CF007800400120000008E60023
:103FA000F4FF3700804480000400200088160200DF
:103FB000000000001922AF00FEFF370004022000BD
:103FC000D41088001922AF00FEFF3700A4002000A3
:103FD000D41088001922AF00FEFF3700D400200063
:103FE000D41088009008F8000000F90000000600D6
:103FF000851F7800AC08E20003003A00AE28EF000D
:104000000E20040000000000644580007E20B800FF
:10401000800278006180520070458800CA01A800C3
:10402000AE08F800C401F900AE08F800D601F900A6
:10403000CA01A900CF027800000006000000E000DD
:104040004220AF0004003700170009000000000004
:104050000000E900F9FF370000000600D621EF005C
:10406000200E80001E20020000000000C1E1A90017
:10407000C401F800D601F9000088AE000D00370039
:104080000100200001007800060802000000000086
:104090008100E800811F78001922AF00FEFF370081
:1040A000D0108800CF007800D00020000008E60083
:1040B000F4FF370000000600A808F8002601F90008
:1040C00000A8AE001D0037000100200001007800AC
:1040D00076070200000000008100E800811F7800E0
:1040E0001922AF00FEFF3700D0108800CF00780003
:1040F000D00120000008E600F4FF370040458000B2
:104100000400200088160200000000001922AF0001
:10411000FEFF3700A4002000D41088001922AF0051
:10412000FEFF3700A4002000D41088001922AF0041
:10413000FEFF3700D4002000D410880000000600E5
:104140002601F8000000F90000000600851F780035
:104150008F00A900C1E1A800A208A800A428EF00D0
:10416000A208AE001601370088E0AE001201370049
:1041700088E0A900A428EC0001C8BF000160EF009E
:104180000080B200090032001080B2005B003200F3
:104190002080B2008E0032001080B2009C003200FD
:1041A0006080B200BF003200030137004C48AF000E
:1041B0003F0037004C28AF0027003700D362A8002B
:1041C000D562AE00180037002045800074428000A0
:1041D0000020E1000C003600A408F8002608F900D1
:1041E000204580004100DD000001020000000000C9
:1041F0008002780065458800F81F0200000000007A
:1042000010210400000000004E08F8002608F90004
:104210002008F800AC08F900F81F020000000000B8
:1042200028210400000000004C28A8002628ED00EA
:10423000304180004100DD0000010200000000006C
:104240008002780065458800F81F02000000000029
:1042500054210400000000002608E20009003A0092
:104260004C48A800D882A900DC82A900843E200026
:1042700064458800F81F020000000000542104007B
:10428000000000002628ED00304180004100DD00E4
:1042900000010200000000008002780065458800EF
:1042A000F81F0200000000007A2104000000000056
:1042B000D362A800D562AE000E0037002E200200A7
:1042C00000000000A208A9002003200074160200CC
:1042D000000000001608F800A808F9005C200200A1
:1042E000000000000A08F800A808F9009E1C02005F
:1042F00000000000DC2204000000000020418000DB
:10430000244580000020E10027003900204580007E
:104310002208E3000D003A002628ED00304180001D
:104320004100DD0000010200000000008002780072
:1043300065458800F81F02000000000020C0B3009F
:1043400001E8B700D0210400000000001441800003
:1043500023458000830252006228E1000A003100F8
:10436000204580004100DD00000102000000000047
:104370008002780065458800F81F020000000000F8
:10438000D0210400000000002008F800AC08F9006B
:10439000F81F02000000000030C0B30001E8B700C1
:1043A000E421040000000000204580004100DD0001
:1043B00000010200000000008002780065458800CE
:1043C000F81F020000000000DC22040000000000D2
:1043D000204580002208E3000B003A002628ED006B
:1043E000304180004100DD000001020000000000BB
:1043F0008002780065458800F81F02000000000078
:1044000020C0B30001E8B700DC2204000000000077
:104410002608E20018003A002E20020000000000EA
:104420002828EF0040C0B30001E8B70020032000B7
:104430007416020000000000A0200200000000002E
:10444000D440800000005200504188005441800058
:104450006120E10004003400D882A900DC82A900B8
:104460003822040000000000D882A900DC82A800E5
:104470004E220400000000002628ED00304180009C
:104480004100DD0000010200000000008002780011
:1044900065458800F81F020000000000DC220400CF
:1044A000000000002828EC00200320007416020001
:1044B000000000004C88AE00090037004C88A900BD
:1044C000200320007416020000000000A408F80079
:1044D0002E08F900A02002000000000080418800A2
:1044E000544180006120E10008003D00A02002004E
:1044F0000000000080027800D44080000480520058
:10450000304588009022040000000000A020020036
:1045100000000000D44080000000520030458800B8
:10452000344580006120E1000400350044418000F2
:10453000230320000418E100090031002E200200AE
:1045400000000000A208A9000A08F800A808F90065
:104550009E1C020000000000D822040000000000A1
:10456000A020020000000000D44080000020E100F4
:1045700004003600D882A900DC82A900C62204000B
:1045800000000000D882A900DC82A800843E200040
:1045900064458800F81F020000000000140020009D
:1045A000444588008C17020000000000C1E1A8000B
:1045B000DC22040000000000B02004000000000025
:1045C0008F00A8004C68A900CF0278000000060008
:1045D0000100200001007800640A020000000000D1
:1045E0008100E800811F78001922AF00FEFF37002C
:1045F000D0108800CF007800A00020000008E6005E
:10460000F4FF37000168EF002628EF004C28A900CE
:104610004C48A900D882A900DC82A8000808F8004C
:10462000A808F9009E1C020000000000047D200084
:1046300064458800F81F020000000000A828EF0071
:104640008C17020000000000A620020000000000FD
:10465000000006004008F800A008F900E01D020074
:1046600000000000804488000048AE001E003700B3
:104670000100200001007800840402000000000016
:104680008100E800811F78001922AF00FEFF37008B
:10469000D0108800CF007800E00020000008E6007D
:1046A000F4FF3700804480000400200088160200D8
:1046B00000000000110120000100780084040200C5
:1046C000000000008100E800811F78001922AF007F
:1046D000FEFF3700D0108800CF0078005001200086
:1046E0000008E600F4FF37009008F8000000F90029
:1046F0000000060060C0B300B4E8B70020C0B300FB
:10470000B5E8B70040C0B300B6E8B700AEC8BF0018
:10471000B0E8B700ACC8BF00B1E8B700ADC8BF0093
:10472000B2E8B700B5C8BF00B3E8B700E4E2A9003B
:10473000E8E2A9001C00090000000000AF68EF00DB
:10474000744580004822DE006824E1001800310032
:104750004200A900B4E8D60002003100DCC2A90082
:1047600001003700DCC2A800D8C2A9001C00090063
:1047700000000000D8A2A900DCA2A8001C000900CB
:1047800000000000D8C2A900DCC2A9001C0009007A
:1047900000000000D8A2A900DCA2A9001C000900AA
:1047A00000000000AF68EC00A0230400000000003F
:1047B0001C00090000000000E4E2A900E8E2A800F3
:1047C0001C00090000000000E4E2A900E8E2A900E2
:1047D0001C00090000000000AF68EF007445800075
:1047E0004822DE0003022000041CE100190036000C
:1047F0004200A900B0A8D600B2A8D600020031003D
:10480000DCC2A90001003700DCC2A800D8C2A900A0
:104810001C00090000000000D8A2A900DCA2A8002A
:104820001C00090000000000D8C2A900DCC2A900D9
:104830001C00090000000000D8A2A900DCA2A90009
:104840001C00090000000000AF68EC00EE2304002B
:10485000000000001C00090000000000E4E2A900C4
:10486000E8E2A8001C00090000000000E4E2A90042
:10487000E8E2A9001C00090000000000AF68EF009A
:10488000744580004822DE006824E10018003100F1
:104890004200A900B6E8D60002003100DCC2A9003F
:1048A00001003700DCC2A800D8C2A9001C00090022
:1048B00000000000D8A2A900DCA2A8001C0009008A
:1048C00000000000D8C2A900DCC2A9001C00090039
:1048D00000000000D8A2A900DCA2A9001C00090069
:1048E00000000000AF68EC0040240400000000005D
:1048F0001C00090000000000E4E2A900E8E2A800B2
:104900001C0009000000000000000600851F780060
:10491000A0C8BF00A3E8B700A1C8BF000160EF00B6
:10492000A2E8B700A3C8BF00AEE8B7009E08F80031
:10493000AC08F9007A23020000000000F444800073
:104940006102420084027800A2C8BF00AEE8B7004E
:10495000654588007A23020000000000CF0278003D
:10496000000006004008F8009E08F9009A08F800C8
:10497000A008F900862402000000000000000600E4
:10498000851F7800861F7800E10820000000E00005
:104990001200320000F0A700040037004200A90016
:1049A0000080D2008100E900FAFF37000180FD009D
:1049B0004200A9008180D30000F0A1000080FD002A
:1049C000814068000040B2000700370001407800D5
:1049D0000170A0000140B200030037000000EB00AE
:1049E0008000EB00000037004F037800CF02780012
:1049F00000000600851F7800C500200004000900A3
:104A0000B51F78008004EB00838468000103780000
:104A10008002780003047800820378008180D2004D
:104A20000180FD008180FB000100E0004E003200AB
:104A30008381D2000380FD008381FB000300E0003E
:104A4000490032000000EB0003C0500003003900B1
:104A5000F047B00044003100030037001048B100B7
:104A600041003900400032008500780006017800DE
:104A70000270A000F20FB200F80FB2000870A000A0
:104A80009A0120008001EB000002EB0087805000BB
:104A900008015900020033000400310004003A000C
:104AA0008780400008014900010037000400A00091
:104AB0000A05E900070032004200A9008180D20007
:104AC0000281D2004200A9000482D2008381D20078
:104AD000EEFF37000005EB000380A7000100370060
:104AE000060037004200A9008381D3000370A100B3
:104AF0000482D3000A85D200020037000000E900DA
:104B0000190032000AF0A700050039008180D200A8
:104B10000281D20087805000080159000900390045
:104B20000402E80007003A008301E80005003A00AB
:104B30000000E8000C003200020037000000E9002D
:104B4000090032000080FD008080D30001F0A00049
:104B500009F0A60001F0A1000370A10081C0690066
:104B6000040078000300370000002000010020004E
:104B7000000037004501200004000900CF12780032
:104B8000CF02780000000600851F7800C5002000D5
:104B900004000900B51F7800000278008102780047
:104BA00083037800020378004200A9004220A90094
:104BB0008180D2000180FD00F10FB2000100E00011
:104BC0004B0032004200A9004220A9008381D2009C
:104BD0000380FD00F30FB2000300E0004400320048
:104BE0000080FB0001C0410004003100F007B1006B
:104BF0003F0032003E003900020037001048B0008C
:104C00003B00310007856A004200A9004220A9004C
:104C1000F50FB2000570A0004200A900F70FB20026
:104C20000770A0000621B800062CB80083014C00D4
:104C3000890078004200AF008100E8004200A9002E
:104C4000043CB80083014C0081804C00072CB80064
:104C500081004C000000E8000100E0004220AF00AD
:104C600001003700030037000300E0004220AF00DE
:104C70000500370001F0A700030037008381D20050
:104C80008180D2000000E900010178004200A90003
:104C90000370A6000900370007F02F00878161002C
:104CA0000310B000600149000200E00003003A0078
:104CB0000300E00001003A000000E8000080FD0071
:104CC0004200A9004220A9008080D3000AF0A7007A
:104CD00001F0A00002F0A1000280FD008140690007
:104CE0000380FD00034178000200780003003700D4
:104CF00000002000010020000000370045012000D6
:104D000004000900CF127800CF02780000000600EE
:104D1000851F7800C500200003000900B51F78003A
:104D20008004EB00080028004300AF0083016C0002
:104D3000010578008A856900010378008303780003
:104D4000030678004220A9004200A9000683D20091
:104D50000680FD00F60FB2000600E000A100320060
:104D60004220A9004200A9008783D2000780FD00ED
:104D7000F70FB2000700E0009F0032004220A900B8
:104D80004200A9000638E1009C003200A300330075
:104D90000900A1000910A000068453000703780051
:104DA000F10FB2000170A000F30FB2000370A00079
:104DB000870220000838E100110033004220A900DA
:104DC0004200A9008180D3000080D3000804E900DC
:104DD000FAFF3A000D003700870220000838E10092
:104DE000090033004220A9004200A9008381D300BA
:104DF0000281D3000804E900FAFF3A000F003700EF
:104E00000200780083007800430037000BF0A60012
:104E1000110037000940A7008C0578000000EA0067
:104E20000200320081C0EA00010037008100EA0080
:104E30000940A7002B003700070037000BF0A60041
:104E4000050037000201EA000200320083C1EA00D7
:104E5000010037008301EA00F50FB2004220A900EB
:104E60004200A9000200400083C048004200AF0099
:104E70000930A0000900A700090037000910A700A9
:104E8000010037000B0037000BF0A70015003700BA
:104E90000930A700290037000960A0001E00370074
:104EA0000BF0A7000F0037000930A70023003700E0
:104EB000190037000920A1000BF0A70004003700FB
:104EC0008A0578000930A7001C003700360037003B
:104ED0000940A00001C8B2000170A700CDFF370053
:104EE0008A057800F10FB200810370000A003200D9
:104EF0000170A700080037004220A9004200A90065
:104F00000080D2008180D2000603E9004220AF0079
:104F100031003700F6FF37000900A7008A05780046
:104F20000910A7008C0578000950A6001A00370068
:104F30000AF0A7000080A0001B0037004200A80074
:104F400081C0D3000080D3004200AF000950A00010
:104F50000603E800200032000950A60008003700D0
:104F60000000E80006003A008140E80004003A0032
:104F700081C0D3000080D3000603E8001600320091
:104F80000900A7008A0578000910A7008C057800A1
:104F90004220AF00100037000960A7008A057800A2
:104FA0000970A7008C057800010170002300320011
:104FB0000170A1000680FD004220A9004200A90066
:104FC0000683D30081006B0001F0A0000BF0A60067
:104FD00001F0A100190037000000200001002000AE
:104FE000160037000AF0A70083016C000200780069
:104FF000830078001100370010003700F30FB20073
:105000000370A000F10FB2000170A0000BF0A70028
:105010000370A1000920A00088FF37000704530097
:10502000F10FB2000170A000F30FB2000370A000F6
:105030000910A1000900A00067FF3700250120002A
:1050400003000900CF127800CF02780000000600AC
:105050000001780081017800014078000080FD00A7
:1050600000F0A0008180D2000180FD008180FB0063
:10507000E408200081405200060032000000E000F9
:10508000040032004200A9000080D3008100E90042
:10509000FAFF3A0003F0A600020037000000EA0021
:1050A0000000370000000600851F7800C5002000C2
:1050B00003000900B51F78000202B80003F0A60043
:1050C000020037000383B900010037000303B80072
:1050D0004200A9008502430060844B0001F0A60055
:1050E00002003700028BB90001003700020BB80044
:1050F00085024B0008844B000980B000038BB90087
:1051000008044B0087834C00870178000801780071
:1051100085007800040078002501200003000900C4
:10512000CF127800CF02780000000600851F7800BB
:10513000C500200003000900B51F78000900200009
:105140004300AF0019002000891F780083846800A5
:1051500001F0A600060037000000EA00010032005E
:1051600002003A008100EA00010037008180EA0075
:1051700003F0A600060037000201EA000100320039
:1051800002003A008301EA00010037008381EA004F
:1051900003026900150032000002EB008002EB0000
:1051A0000003EB008003EB00080220004200A9008E
:1051B0000080D2008180D2000482D2008582D20099
:1051C0000328E10001003A0002A0E10003003900D9
:1051D0000202520083825A004200A8000683D200D5
:1051E0008783D2000804E900F0FF3A0009F0A60026
:1051F000070037000600EA000100320002003A0012
:105200008700EA00050037008780EA0003003700C6
:10521000870078000600780000003700CF0478008F
:105220000900E000010032000400BE00250120005A
:1052300003000900CF127800CF02780000000600BA
:10524000851F7800861F7800A02002000000000063
:10525000F04488009A08F8001A08F900F044800029
:10526000D44080000020E10008003600D882A90068
:10527000DC82A900D4408000F34480000300520087
:10528000E04488005229040000000000D882A900F0
:10529000DC82A800F4448000D34080000300520068
:1052A000E0448800E5448000060020000500780006
:1052B00086007800027122000300200054280200BA
:1052C0000000000080027800010378004300A9007C
:1052D000050078008600780062408000030020000E
:1052E0009628020000000000E04488000088AE001C
:1052F0001900370001002000010078002208020098
:10530000000000008100E800811F78001922AF0032
:10531000FEFF3700D0108800CF007800D0002000BA
:105320000008E600F4FF3700E0448000040020009D
:1053300088160200000000001922AF00FEFF3700AF
:10534000A4002000D41088001922AF00FEFF37000F
:10535000D4002000D41088009C08E20001003A002C
:105360009C003700E544800006002000050078001E
:1053700086007800F24080000300200054280200DC
:10538000000000008002780001037800E040800007
:105390001E08B4004300A9008600780000017800D0
:1053A000030020000500780096280200000000009D
:1053B000204188002408E20002003A001400200086
:1053C0002441880070428000244180000020E100D8
:1053D0001A0039004E08F8002408F90075428000D0
:1053E000060020000500780086007800E24080007A
:1053F0000300200054280200000000008002780012
:10540000010378004300A9000500780086007800B9
:10541000F2408000030020009628020000000000F7
:1054200030418800E4448000334180000300520092
:10543000104188002A2A040000000000E444800093
:105440002341800003005200104188002408F80026
:105450002608F9002208E20002003A0014002000A9
:10546000144188000088AE004B0037000100200086
:105470000100780042080200000000008100E800FE
:10548000811F78001922AF00FEFF3700D01088007E
:10549000CF007800300120000008E600F4FF37005C
:1054A0002041800004002000881602000000000057
:1054B0001922AF00FEFF3700A4002000D41088009E
:1054C0001922AF00FEFF3700D4002000D41088005E
:1054D00001002000010078006808020000000000C0
:1054E0008100E800811F78001922AF00FEFF37001D
:1054F000D0108800CF007800300120000008E600BE
:10550000F4FF3700104180000400200088160200DC
:10551000000000001922AF00FEFF3700A4002000A9
:10552000D41088001922AF00FEFF3700D4002000FD
:10553000D410880001002000010078008E080200CD
:10554000000000008100E800811F78001922AF00F0
:10555000FEFF3700D0108800CF0078003001200017
:105560000008E600F4FF370030418000040020000E
:1055700088160200000000001922AF00FEFF37006D
:10558000A4002000D41088001922AF00FEFF3700CD
:10559000D4002000D410880010C0B30001E8B70088
:1055A0000808F800A808F9009E1C0200000000008E
:1055B000047D200064458800F81F02000000000000
:1055C000A828EF008C17020000000000A6200200AF
:1055D000000000004F037800CF02780000000600B2
:1055E000851F7800C500200003000900B51F780062
:1055F00000F0A6000C0037000000EA000480A000C4
:1056000004F0A60008003700801F7800D0022000B8
:105610001922AF00FEFF3700D01088004F0078003D
:105620000480A1000860ED008002EB008003780098
:105630008404780004F0A1000404E00006003A00AD
:1056400009F0A70002003700050020000F00370016
:10565000050020000D003700E64252000A00390024
:105660000003200009F0A600000220001922AF006C
:10567000FEFF3700D01088008502E900FBFF3B00E9
:1056800055002000010037008402780064002000EB
:105690000580A7000402E80005E0A00009F0A700CB
:1056A00005F0A00008712200110009008883D800CD
:1056B0009C2B02000000000081037800883E20003F
:1056C000110009008883D8009C2B02000000000014
:1056D0008103780048062000110009008883D80063
:1056E0009C2B02000000000081037800A80020002D
:1056F000110009008883D8009C2B020000000000E4
:105700000980A60005003700D00220001922AF0052
:10571000FEFF3700D01088000980A10000032000A0
:1057200000C04000500188001922AF00FEFF370082
:10573000D010880022003700060320000000E0009F
:105740000E003A0005E0A600160037000402E9004A
:105750000524E100020032004200AF000000060014
:105760000000E00005003A0005E0A6000D0037004B
:1057700005F0A600060220000A00370005E0A1009F
:105780000980A6000700370000057800D00220003D
:105790001922AF00FEFF3700D01088000980A10059
:1057A0000A00780000404300811F78001922AF00F2
:1057B000FEFF3700D0108800CF0078000000060000
:1057C0002501200003000900CF127800CF027800E5
:1057D00000000600851F7800C500200004000900B5
:1057E000B51F780070408000A44480000020E100D4
:1057F000130036000E08F8009408F9000068AE00A7
:105800000D0037000100200001007800B4080200FC
:10581000000000008100E800811F78001922AF001D
:10582000FEFF3700D0108800CF00780080072000EE
:105830000008E600F4FF37006C2C040000000000B4
:10584000A0448000C44080000020E1002200360017
:105850001808F8009408F9000068AE001E00370030
:105860000100200001007800220902000000000071
:105870008100E800811F78001922AF00FEFF370089
:10588000D0108800CF007800C00320000008E60098
:10589000F4FF3700C040800004002000881602009A
:1058A00000000000F103200001007800220902003E
:1058B000000000008100E800811F78001922AF007D
:1058C000FEFF3700D0108800CF00780010072000BE
:1058D0000008E600F4FF3700010020000100780016
:1058E0008C090200000000008100E800811F7800A0
:1058F0001922AF00FEFF3700D0108800CF007800DB
:10590000200120000008E600F4FF3700A0448000DA
:105910000400200088160200000000005101200051
:10592000010078008C090200000000008100E800FE
:10593000811F78001922AF00FEFF3700D0108800C9
:10594000CF007800900120000008E600F4FF370047
:105950009408F8009A08F900B22402000000000040
:10596000A4448000C340800003005200C024020011
:105970000000000080027800010378000500780034
:10598000860078000200200003002400FA240200B0
:10599000000000008002780001037800944080003D
:1059A0008340800003005200C02402000000000079
:1059B000800378000104780074408000C3408000B8
:1059C00003005200C02402000000000080047800A0
:1059D00001057800090078008A00780002002000A4
:1059E00003002400FA2402000000000000017800F7
:1059F000810178000700780088007800FA2402000E
:105A000000000000000178008101780005007800A6
:105A100086007800C42502000000000080027800A3
:105A20000103780090408000C024020000000000C4
:105A30004300A8000501780086017800882602004E
:105A4000000000002828020000000000B044880088
:105A5000A02002000000000080027800B444800012
:105A60000520E10004003600B4448000634180005A
:105A700003005200B04488009608F8009A08F90024
:105A800020290200000000004006200074160200D9
:105A9000000000000068AE00800037000100200018
:105AA00001007800B4090200000000008100E80055
:105AB000811F78001922AF00FEFF3700D010880048
:105AC000CF007800E00020000008E600F4FF370077
:105AD0005041800004002000F02A02000000000075
:105AE0001922AF00FEFF3700A4002000D410880068
:105AF0001922AF00FEFF3700D4002000D410880028
:105B00000100200001007800D4090200000000001C
:105B10008100E800811F78001922AF00FEFF3700E6
:105B2000D0108800CF007800500120000008E60067
:105B3000F4FF3700D04080000400200088160200E7
:105B4000000000001922AF00FEFF3700A400200073
:105B5000D41088001922AF00FEFF3700D4002000C7
:105B6000D4108800A020020000000000800278000D
:105B70000100200001007800FC0902000000000084
:105B80008100E800811F78001922AF00FEFF370076
:105B9000D0108800CF007800600120000008E600E7
:105BA000F4FF37000500780004002000881602008A
:105BB000000000001922AF00FEFF3700A400200003
:105BC000D41088001922AF00FEFF3700D400200057
:105BD000D41088000100200001007800240A02008F
