:080000005C1D0400000000007B
:04004C005408000054
:0400880082080000EA
:100200003220EF00231D2000830150000400310044
:1002100003122000008041001000BA000000060018
:100220000012200083814100808141003380BA00A8
:100230009381BA00C819DD0000807100000006003B
:10024000C4098200C4090200C4097900C40902007B
:10025000C3096F00C2090200C2096600C109020099
:10026000C0095D00BE090200BD095300BC090200BF
:10027000BA094A00B9090200B7094100B5090200EC
:10028000B3093800B1090200AF092F00AD0902001F
:10029000AB092600A8090200A6091C00A309020058
:1002A000A00914009D0902009A090B009709020099
:1002B00094090200910902008D09F9008A090100E0
:1002C0008609F000820901007E09E7007B09010030
:1002D0007709DF00720901006E09D6006A09010082
:1002E0006609CE00610901005D09C50058090100D9
:1002F0005309BD004E0901004909B4004409010039
:100300003F09AC003A0901003509A4002F0901009A
:100310002A099B00240901001F0993001909010003
:1003200013098B000D090100070983000109010071
:10033000FB087B00F5080100EF087300E8080100E6
:10034000E2086B00DB080100D5086400CE0801005C
:10035000C7085C00C0080100BA085400B3080100D7
:10036000AC084D00A40801009D0845009608010056
:100370008F083E00870801008008360078080100D9
:1003800071082F0069080100610828005A0801005F
:10039000520821004A080100420819003A080100E9
:1003A000320812002A08010021080B001908010078
:1003B00011080400080801000008FE00F70700000B
:1003C000EF07F700E6070000DE07F000D5070000A2
:1003D000CC07EA00C3070000BA07E300B10700003A
:1003E000A807DD009F0700009607D6008D070000D4
:1003F0008407D0007B0700007207CA00680700006E
:100400005F07C400560700004C07BE00430700000A
:100410003907B800300700002607B2001C070000AB
:100420001307AC0009070000FF06A600F506000050
:10043000EC06A100E2060000D8069B00CE060000F4
:10044000C4069600BA060000B0069000A60600009A
:100450009C068B0092060000880686007D06000040
:1004600073068100690600005F067C0054060000E8
:100470004A06770040060000360672002B06000090
:1004800021066D00160600000C066800010600003B
:10049000F7056400ED050000E2055F00D8050000E7
:1004A000CD055B00C2050000B8055700AD05000092
:1004B000A3055300980500008D054E00830500003C
:1004C00078054A006E0500006305460058050000E7
:1004D0004E0543004305000038053F002D05000090
:1004E00023053B00180500000D053800030500003A
:1004F000F8043400ED040000E2043100D8040000E8
:10050000CD042E00C2040000B8042B00AD0400008E
:10051000A2042800980400008D0425008204000035
:10052000770422006D04000062041F0057040000DD
:100530004D041D004204000038041A002D04000080
:1005400022041800180400000D0416000304000023
:10055000F8031400ED030000E3031200D8030000C9
:10056000CE031000C4030000B9030E00AF03000067
:10057000A4030C009A0300008F030B008503000006
:100580007B03090070030000660308005C030000A1
:1005900052030700480300003D0305003303000039
:1005A000290304001F030000150303000B030000D0
:1005B00001030300F7020000ED020200E302000065
:1005C000D9020100D0020000C6020100BC020000F6
:1005D000B2020100A90200009F0201009502000082
:1005E0008C0200003220EF00E32F20000080410049
:1005F0001040BA000160EF00000006000A0D000084
:10060000095600006F6C000074610000676500000F
:1006100020440000657300006972000065640000FA
:100620003A20000025750000000000003220EF0095
:1006300023322000008041001040BA000160EF002A
:10064000000006000A0D000009540000617000005F
:1006500020440000657300006972000065640000BA
:100660003A20000025750000000000003220EF0055
:1006700023342000008041001040BA000160EF00E8
:10068000000006000A0D0000095600006F6C000013
:10069000746100006765000020430000757200006F
:1006A000726500006E7400003A200000257500009D
:1006B000000000003220EF0063362000008041007F
:1006C0001040BA000160EF00000006000A0D0000B3
:1006D00009540000617000002043000075720000A2
:1006E000726500006E7400003A200000257500005D
:1006F000000000003220EF0063382000008041003D
:100700001040BA000160EF00000006000A0D000072
:10071000095600006F6C00007461000067650000FE
:1007200020440000696600006665000072650000F4
:100730006E630000653A000020250000750000008F
:100740003220EF00C33A2000008041001040BA0080
:100750000160EF00000006000A0D0000495400008F
:100760004552000041540000494F00004E3A00003D
:1007700020250000750000003220EF00833C20009F
:10078000008041001040BA000160EF000000060048
:100790000A0D0000095600006F6C00007461000033
:1007A000676500002043000075720000726500005C
:1007B0006E740000203A0000202500007500000043
:1007C0003220EF00C33E2000008041001040BA00FC
:1007D0000160EF00000006000A0D000049740000EF
:1007E0006572000061740000696F00006E200000F7
:1007F0006C6900006D6900007420000072650000E3
:100800006163000068650000640000003220EF00B2
:1008100023412000008041001040BA000160EF0039
:10082000000006000A0D0000464F0000554E000073
:1008300044210000000000003220EF00834220002D
:10084000008041001040BA000160EF000000060087
:100850000A0D0000095400006170000020430000F0
:1008600075720000726500006E740000203A00008E
:1008700020250000750000003220EF008344200096
:10088000008041001040BA000160EF000000060047
:100890000A0D000009500000657200006365000049
:1008A0006E74000020430000757200007265000045
:1008B0006E7400003A200000257500000A0D00004B
:1008C000000000003220EF00E346200000804100DD
:1008D0001040BA000160EF00000006000A0D0000A1
:1008E0000950000065720000636500006E7400002E
:1008F0002044000065730000697200006564000018
:100900003A0000003220EF00E34820000080410060
:100910001040BA000160EF000000060050570000D0
:100920004D2000004D6F0000647500006C650000F4
:10093000204900006E69000074690000616C0000CD
:10094000697A0000656400000A0A00000D000000DA
:100950003220EF00434B2000008041001040BA00DD
:100960000160EF0000000600505700004D2000001D
:100970004469000073610000626C0000656400005F
:100980000A0D0000000000003220EF00034D20009F
:10099000008041001040BA000160EF000000060036
:1009A000446500006C610000793A000020250000D9
:1009B000750A00000A0D0000000000003220EF0060
:1009C000A34E2000008041001040BA000160EF00FB
:1009D0000000060044690000737000006C610000B4
:1009E000636500006D6500006E7400003A20000031
:1009F0002575000020280000696E0000206D0000B1
:100A00006D2900000A0D0000000000003220EF00F8
:100A100023512000008041001040BA000160EF0027
:100A20000000060044690000737000006C61000063
:100A3000636500006D6500006E7400003A200000E0
:100A40002575000020280000696E0000207300005A
:100A50007465000070730000290A00000D0000009A
:100A60003220EF00C3532000008041001040BA0044
:100A70000160EF00000006004163000063650000B4
:100A80006C65000072610000746900006F6E000008
:100A9000204C0000696D0000697400003A200000DD
:100AA000257500000A0D0000000000003220EF0054
:100AB00023562000008041001040BA000160EF0082
:100AC0000000060044650000636500006C650000DE
:100AD00072610000746900006F6E0000204C00001D
:100AE000696D0000697400003A200000257500005F
:100AF0000A0D0000000000003220EF0083582000A3
:100B0000008041001040BA000160EF0000000600C4
:100B100044650000636500006C65000072610000C0
:100B2000746900006F6E0000204300006F750000C4
:100B30006E7400003A200000257500000A0D0000C8
:100B4000000000003220EF00230520008301500048
:100B500005003100E35B2000008041001040BA0036
:100B60000160EF0000000600E05B2000838141008F
:100B7000808141001380BA0000000600496E7700B2
:100B8000766169006C696C0064206C00656E200001
:100B900074726D00793A6F002053760079736500A6
:100BA000746520006D20740063616F006E6E20001C
:100BB0006F746D00206D61006F76780065206900AC
:100BC000746F6D002061750020706D006F732000E0
:100BD00069747000696F6F006E2073006265730046
:100BE000796F69006E64620020746C00686565004E
:100BF000206D20006F766400656D6900656E73007E
:100C000074207400726161006E676E00652E63006F
:100C10002053650079732E00746500006D2000007C
:100C20003220EF00C3612000008041001040BA0074
:100C30000160EF00000006004D6F000076690000C3
:100C40006E6700002E2E00002E0A00000D0000002E
:100C50003220EF0043632000008041001040BA00C2
:100C60000160EF00000006004D6F00007669000093
:100C70006E670000204400006F6E000065210000D8
:100C80000A0D0000000000003220EF000365200084
:100C9000008041001040BA000160EF000000060033
:100CA000486F00006D6900006E6700002E2E000086
:100CB0002E0A00000D0000003220EF0083662000A5
:100CC000008041001040BA000160EF000000060003
:100CD000486F00006D6900006E670000204400004E
:100CE0006F6E0000652100000A0D0000000000008A
:100CF0003220EF0043682000008041001040BA001D
:100D00000160EF0000000600536500007420000041
:100D1000436F00006E76000065720000736900008A
:100D20006F6E0000204300006F6E000073740000BF
:100D3000616E000074200000546F00002830000035
:100D40003C3D0000583C00003D39000039390000AE
:100D5000392900003A200000000000003220EF0096
:100D6000A36B2000008041001040BA000160EF003A
:100D700000000600446F00006E650000210A0000BC
:100D80000D0000003220EF00E36C200000804100E5
:100D90001040BA000160EF0000000600536500003B
:100DA000742000005370000065650000642000009E
:100DB000546F0000283000003C3D0000583C00000B
:100DC0003D39000039390000292000002869000061
:100DD0006E2000006D6D00002F730000293A0000A6
:100DE000200000003220EF00E36F2000008041006F
:100DF0001040BA000160EF00000006004D6F0000D7
:100E000076650000205400006F280000303C000090
:100E10003D5800003C3D00003939000039390000E0
:100E2000293A0000200000003220EF000372200069
:100E3000008041001040BA000160EF000000060091
:100E4000506900006E200000287800002C79000016
:100E50002C7300007461000074650000293A0000E2
:100E6000200000003220EF00E373200000804100EA
:100E70001040BA000160EF00000006004469000065
:100E8000736300006F6E00006E6500006374000005
:100E9000696E000067200000706900006E7300003A
:100EA0002E2E00002E0A00000D0000003220EF0060
:100EB00023762000008041001040BA000160EF005E
:100EC00000000600436F00006E6E000065630000C6
:100ED000746900006E67000020700000696E0000F9
:100EE000732E00002E2E00000A0D000000000000EE
:100EF0003220EF0043782000008041001040BA000B
:100F00000160EF000000060053650000742000003F
:100F10005570000020540000696D0000652000003D
:100F2000546F0000283000003C3D0000583C000099
:100F30003D3900003939000039290000202800001F
:100F4000696E0000206D0000732900003A20000047
:100F5000000000003220EF00637B20000080410091
:100F60001040BA000160EF00000006005365000069
:100F700074200000446F0000776E000020540000D1
:100F8000696D000065200000546F000028300000EB
:100F90003C3D0000583C00003D390000393900005C
:100FA0003929000020280000696E0000206D000033
:100FB000732900003A200000000000003220EF00FA
:100FC000A37E2000008041001040BA000160EF00C5
:100FD00000000600506900006E20000053740000FD
:100FE0006174000065200000283000003C3D0000D6
:100FF000583C00003D360000353500003335000018
:10100000293A0000200000003220EF000381200078
:10101000008041001040BA000160EF0000000600AF
:10102000446500006D6F000020520000756E0000E6
:101030002E2E00002E0000003220EF00C301200001
:1010400083015000050031008383200000804100AF
:101050001040BA000160EF0000000600808320000D
:1010600083814100808141001380BA0000000600A6
:101070000A0D7200534B730053206900436F6F00D9
:101080006E746E00726F20006C2056004361310058
:1010900072642E00202D310020430A006F640A0084
:1010A00065200D00566500004200F8003600F8008B
:1010B0003200F800801F7800200020000C0009009A
:1010C000B01F78000E02AE00FEFF370090108000C7
:1010D000240720000024E10001003A00B0E8A90044
:1010E0008520A900A00120000C0009004F10780005
:1010F0004F0078003200F9003600F9004200F90094
:10110000004006004200F8003600F8003200F80007
:10111000801F7800200020000C000900B01F78001C
:101120008F00A900B0C8A8008700A900A001200076
:101130000C0009004F1078004F0078003200F900D1
:101140003600F9004200F900004006000000E0000F
:101150004220AF00040037002D0709000000000006
:101160000000E900FCFF3A00000006005009E20020
:1011700004003A00C021A900C001A900CC08040065
:1011800000000000844A80006120E10002003A0073
:10119000C021A900C001A80000000600C1E1A9000B
:1011A000C0E1A900C0C1A900C0A1A900C081A900D7
:1011B000C061A900C041A9005029EF00B608020093
:1011C00000000000C901A800C881A800CA41A90008
:1011D00090E0A900C421EF00D621EF00B028AE00B6
:1011E0000C00370001002000010078000160EF00D2
:1011F00082040200000000008100E8001922AF0014
:10120000FEFF37001AE2B700800120000008E60068
:10121000F5FF370000000600E522A900E922A8003A
:10122000E502A900E902A90000000600851F780078
:10123000C500200003000900B51F78008003780076
:101240008404780004F0A1000400E00006003A00E5
:1012500009F0A70002003700050020000F0037004A
:10126000050020000D003700E64252000A00390058
:101270000003200009F0A600000220001922AF00A0
:10128000FEFF37001AE2B7008502E900FBFF3B00D2
:10129000550020000100370084027800640020001F
:1012A00005E0A00009F0A70005F0A00008712200E9
:1012B000110009008883D800900902000000000096
:1012C00081037800883E2000110009008883D8003F
:1012D0009009020000000000810378004806200009
:1012E000110009008883D800900902000000000066
:1012F00081037800A8002000110009008883D8002D
:1013000090090200000000000003200000C040001F
:101310001922AF00FEFF37001AE2B70017003700AE
:10132000060320000000E0000E003A0005E0A600E1
:101330000D0037000402E9000524E100020032003C
:101340004200AF00000006000000E00005003A0087
:1013500005E0A6000400370005F0A6000602200004
:101360000100370005E0A100004043001922AF0052
:10137000FEFF37001AE2B70000000600250120003A
:1013800003000900CF127800CF02780000000600A9
:10139000851F7800C500200003000900B51F7800F4
:1013A0000202B8000303B8004200A900850243000E
:1013B00060844B00020BB80085024B0008844B0090
:1013C000030BB800080443000780B00087017800D1
:1013D00008017800850078000400780025012000CD
:1013E00003000900CF127800CF0278000000060049
:1013F000851F7800C500200003000900B51F780094
:10140000090020004300AF0019002000891F780068
:101410000002EB008002EB000003EB008003EB0016
:101420000304690011003200080220004200A900F4
:101430000080D2008180D2000482D2008582D20056
:101440000328E10001003A0002A0E1000300390096
:101450000202520083825A004200A8000683D20092
:101460008783D2000804E900F0FF3A008700780083
:1014700006007800CF0478000900E0000100320087
:101480000400BE002501200003000900CF127800EF
:10149000CF02780000000600B288BF00B447800089
:1014A0000020E10002003600B208F800F608F9005A
:1014B000E502A900E902A80000000000E522A90059
:1014C000E922A90000000000F828EF00F888BF001A
:1014D000B44780000020E1000C003600E502A900BE
:1014E000E902A90000000000E502A900E902A80045
:1014F00000000000E502A900E902A90000000000C8
:10150000F828EC00660A040000000000E522A900AB
:10151000E922A80000000600B288BF00B44780009E
:101520000020E10002003600B208F800F608F900D9
:10153000E502A900E902A90000000000E522A900D7
:10154000E922A90000000000F828EF00F888BF0099
:10155000B44780000020E10009003600E502A90040
:10156000E902A80000000000E502A900E902A900C4
:1015700000000000F828EC00A60A040000000000AB
:10158000E522A900E922A80000000600851F7800D6
:1015900034002000F4468800E028EF00F40020002A
:1015A00014478800E4468000934580000320B8007B
:1015B0008002780005027800A34580001100090030
:1015C0000382D800E4A8B700A002A900A022A800C6
:1015D000A002AE00FEFF37008002F800E608F90026
:1015E000E446800033478000830252000500780003
:1015F00045478800B008AE006200370001002000B7
:10160000010078000160EF00F2020200000000001B
:101610008100E8001922AF00FEFF37001AE2B70090
:10162000300120000008E600F5FF3700DC88BF002D
:10163000040020001609020000000000944580000C
:10164000E34680000320B80080027800050278009D
:10165000A3458000110009000382D80080027800B1
:1016600001002000010078000160EF001603020075
:10167000000000008100E8001922AF00FEFF3700E3
:101680001AE2B700F00020000008E600F5FF37007E
:101690000500780004002000160902000000000088
:1016A00001002000010078000160EF003603020015
:1016B000000000008100E8001922AF00FEFF3700A3
:1016C0001AE2B700300120000008E600F5FF3700FD
:1016D000E688BF0004002000160902000000000098
:1016E00094458000334780000320B80080027800D2
:1016F00005027800A3458000110009000382D8008C
:101700008002780001002000010078000160EF00F5
:101710005A030200000000008100E8001922AF0017
:10172000FEFF37001AE2B700F00020000008E600D4
:10173000F5FF3700050078000400200016090200BC
:101740000000000001002000010078000160EF00AF
:101750007A030200000000008100E8001922AF00B7
:10176000FEFF37001AE2B700600120000008E60023
:10177000F5FF3700E888BF000400200016090200CA
:1017800000000000E288BF00444780000020E10024
:10179000AC003600E088BF00F44680000020E10085
:1017A00097003600E028EC00944580003347800025
:1017B0000320B8008002780005027800A34580006D
:1017C000110009000382D800EAA8B700EA88BF0028
:1017D000244780000020E1000800360024478000F4
:1017E0005347800083025200B54788004C0A02002C
:1017F00000000000320C040000000000E488BF007C
:10180000544780000020E100080036005447800063
:101810002347800083025200B54788008C0A0200EB
:1018200000000000320C040000000000E688BF0049
:10183000E44680000020E10006003600140020008D
:10184000B44788004C0A020000000000320C04007B
:101850000000000014002000B44788008C0A020039
:1018600000000000620E090000000000A002A900B4
:10187000A022A800A002AE00FEFF37008002F80000
:10188000E608F900E688BF00E44680000020E10099
:1018900006003600E4468000334780000300520013
:1018A000E8A8B7005E0C0400000000003447800088
:1018B000E346800003005200E8A8B700B008AE007D
:1018C0004D00370001002000010078000160EF00AA
:1018D000A0030200000000008100E8001922AF0010
:1018E000FEFF37001AE2B700C00020000008E60043
:1018F000F5FF3700E088BF00040020001609020051
:101900000000000094458000334780000320B800A9
:101910008002780005027800A345800011000900CC
:101920000382D800800278000100200001007800C6
:101930000160EF005A030200000000008100E8008F
:101940001922AF00FEFF37001AE2B700F0002000B6
:101950000008E600F5FF37000500780004002000CD
:1019600016090200000000000100200001007800BC
:101970000160EF00BC030200000000008100E800ED
:101980001922AF00FEFF37001AE2B7004001200025
:101990000008E600F5FF3700E688BF0004002000DD
:1019A0001609020000000000E44680003347800072
:1019B0008302520005007800010020000100780039
:1019C0000160EF007A030200000000008100E800DF
:1019D0001922AF00FEFF37001AE2B70060012000B5
:1019E0000008E600F5FF370005007800040020003D
:1019F00016090200000000001E0D04000000000097
:101A0000B008AE000C003700010020000100780093
:101A10000160EF00E0030200000000008100E80028
:101A20001922AF00FEFF37001AE2B7008001200044
:101A30000008E600F5FF370056003700C20B04002F
:101A400000000000B008AE00520037000100200086
:101A5000010078000160EF000604020000000000B1
:101A60008100E8001922AF00FEFF37001AE2B7003C
:101A7000700020000008E600F5FF37009445800064
:101A8000334780000320B800800278000502780008
:101A9000A3458000110009000382D800800278006D
:101AA00001002000010078000160EF001C0402002A
:101AB000000000008100E8001922AF00FEFF37009F
:101AC0001AE2B700000120000008E600F5FF370029
:101AD0000500780004002000160902000000000044
:101AE000A002A900A022A800A002AE00FEFF3700BD
:101AF0000514800001002000010078000160EF0063
:101B0000BC030200000000008100E8001922AF00C1
:101B1000FEFF37001AE2B700400120000008E6008F
:101B2000F5FF3700050078000400200016090200C8
:101B300000000000A002A900A022A800A002AE00A0
:101B4000FEFF37008082BF00E44680008002520022
:101B50000500780001002000010078000160EF001E
:101B60007A030200000000008100E8001922AF00A3
:101B7000FEFF37001AE2B700600120000008E6000F
:101B8000F5FF370005007800040020001609020068
:101B900000000000CF02780000000600851F7800DA
:101BA000861F7800A002A900A022A800A002AE0013
:101BB000FEFF37008002F800DC08F900DC88BF0077
:101BC000010020000001780081017800400620001B
:101BD00001002000C8090200000000008002780017
:101BE000010378004300A900050078008600780012
:101BF000B245800003002000F80902000000000048
:101C0000DEA8B700B008AE001800370001002000C1
:101C1000010078000160EF003C04020000000000B9
:101C20008100E8001922AF00FEFF37001AE2B7007A
:101C3000300120000008E600F5FF3700DE88BF0015
:101C40000400200016090200000000001922AF0065
:101C5000FEFF3700A0C0B3001AE2B7001922AF00A0
:101C6000FEFF3700D0C0B3001AE2B700DE08F8006C
:101C70000000F9004F037800CF0278000000060052
:101C8000851F7800861F7800B44680004306200038
:101C90000418E1000200310044062000B446880028
:101CA000B008AE00100037000100200001007800ED
:101CB0000160EF0062040200000000008100E80003
:101CC0001922AF00FEFF37001AE2B7002001200002
:101CD0000008E600F5FF3700D688BF0004002000AA
:101CE0001609020000000000B54680000600200032
:101CF0000500780086007800B245800003002000CF
:101D0000C80902000000000080027800010378008A
:101D10004300A900050078008600780042062000F4
:101D200003002000F809020000000000D8A8B70056
:101D3000D808F800DC08F900C60A0200000000001C
:101D4000CE0D02000000000000A0B7004F03780095
:101D5000CF02780000000600B808F800D608F900A5
:101D6000400E020000000000D802A900DC02A8001A
:101D7000D862A900DC62A800DE22A900E222A90044
:101D8000D882A900DC82A800DE02A900E202A80035
:101D9000D2E2A900D6E2A800D842A900DC42A800FD
:101DA000D822A900DC22A900000006004300A900F7
:101DB000D078220001002000F249800003002000BA
:101DC000F809020000000000D4A8B700B048AE0037
:101DD0001C00370001002000010078000160EF00C6
:101DE000C4040200000000008100E8001922AF00D6
:101DF000FEFF37001AE2B700600020000008E6008E
:101E0000F5FF3700D488BF00040020001609020047
:101E1000000000001922AF00FEFF3700A0C0B30091
:101E20001AE2B7001922AF00FEFF3700A0C0B300CE
:101E30001AE2B7001922AF00FEFF3700D0C0B3008E
:101E40001AE2B700000006004409E20005003A006B
:101E5000D882A900DC82A900C2A8EF003A0F0400D2
:101E600000000000D882A900DC82A8001400200035
:101E70001446880000000600851F7800C500200079
:101E800003000900B51F78000202B80003F0A600A5
:101E9000020037000383B900010037000303B800D4
:101EA0004200A9008502430060844B0001F0A600B7
:101EB00002003700028BB90001003700020BB800A6
:101EC00085024B0008844B000980B000038BB900E9
:101ED00008044B0087834C008701780008017800D4
:101EE0008500780004007800250120000300090027
:101EF000CF127800CF02780000000600851F78001E
:101F0000C500200003000900B51F7800090020006B
:101F10004300AF0019002000891F78008384680007
:101F200001F0A600030037008180EA000000EA000B
:101F3000E080480003F0A600030037008381EA0038
:101F40000201EA00E0814900030269001500320045
:101F50000002EB008002EB000003EB008003EB00CB
:101F6000080220004200A9000080D2008180D20037
:101F70000482D2008582D2000328E10001003A00E9
:101F800002A0E100030039000202520083825A00DD
:101F90004200A8000683D2008783D2000804E9002B
:101FA000F0FF3A0009F0A600070037000600EA003B
:101FB0000100320002003A008700EA000500370005
:101FC0008780EA0003003700870078000600780069
:101FD00000003700CF0478000900E0000100320063
:101FE0000400BE002501200003000900CF12780084
:101FF000CF027800000006005009E20004003A0019
:10200000D842A900DC42A8000C1004000000000027
:10201000D842A900DC42A90000000600851F780014
:10202000861F78005409E20003003A005629EF00A9
:102030004610040000000000A44A80006720B80099
:1020400080027800050278000319200011000900C1
:102050000382D80080027800A44A80006323B8007D
:102060000602780083022000110009000382D800D4
:1020700085024000A44A80006723B8004230DE0099
:10208000850240006180520056A9B700CA01A8002D
:102090005609F800C401F9005609F800D601F90004
:1020A000CA01A9004F037800CF02780000000600A3
:1020B0004100DE000000E0004220AF0003003700D6
:1020C000000000000000E900FDFF3A0000000600EB
:1020D000D621EF00C481BF005810020000000000AC
:1020E000C1E1A900C401F800D601F900B048AE0072
:1020F0000C00370001002000010078000160EF00B3
:10210000A8040200000000008100E8001922AF00CE
:10211000FEFF37001AE2B700D00020000008E600FA
:10212000F5FF370000000600851F7800D028EC007E
:10213000B1C8BF000160EF001080B200050032009E
:102140002080B200410032001080B2005200320004
:1021500066003700CC88BF00844680000020E10084
:102160002D003900D088BF00CA08E30010003A00F3
:10217000CE28ED00CE88BF004100DD000001020046
:10218000000000008002780005007800D408B40048
:1021900080027800A54A88000E10020000000000AE
:1021A00020C0B300B1E8B70008110400000000002F
:1021B0005446800083468000830252006228E1007A
:1021C0000D003100D088BF004100DD000001020099
:1021D000000000008002780005007800D408B400F8
:1021E00080027800A54A88000E100200000000005E
:1021F0000811040000000000D408F8005409F90098
:102200000E1002000000000030C0B300B1E8B700BB
:102210002211040000000000D088BF004100DD0052
:102220000001020000000000800278000500780034
:10223000D408B40080027800A54A88000E1002007D
:10224000000000007611040000000000D088BF00EC
:10225000CA08E3000E003A00CE28ED00CE88BF0089
:102260004100DD0000010200000000008002780053
:1022700005007800D408B40080027800A54A8800E0
:102280000E1002000000000020C0B300B1E8B7004B
:102290007611040000000000CE08E20005003A00BC
:1022A0006810020000000000B068A900721104006C
:1022B00000000000CE28ED00CE88BF004100DD0008
:1022C0000001020000000000800278000500780094
:1022D000D408B40080027800A54A88000E100200DD
:1022E000000000007611040000000000CF0278001A
:1022F00000000600851F7800144B80006F24E10069
:10230000020036000020EF002D003700144B800043
:102310000960EF000301200004805100144B80008D
:102320004822DE000020E100020036000020EF001D
:10233000230037006629EF0063C9BF000160EF008A
:10234000344B80000020E1001B003D00214B800049
:1023500066C9BF000100A5000B003900144B8000C6
:102360000960EF00040078006609B400800278007C
:1023700001962000050078004220A9001180AD00E0
:10238000D611040000000000144B80000960EF002B
:10239000040078006609B4008002780001962000ED
:1023A000050078004220A8001180AD006629EC00ED
:1023B0009C110400000000006009F8000000F90012
:1023C000CF0278000000060061C9BF0062E9B700D3
:1023D00060C9BF0063E9B700B0E8A80000C7B30058
:1023E0000F22AF00FEFF370010E2B7001162EF00CE
:1023F000B0E8AF00FEFF3700B0E8A80062C9BF0038
:102400000F22AF00FEFF370010E2B7001162EF00AD
:10241000B0E8AF00FEFF3700B0E8A80063C9BF0016
:102420000F22AF00FEFF370010E2B7001162EF008D
:10243000B0E8AF00FEFF370000000600851F7800FF
:10244000A54A8000C22ADD00050078005649B40084
:102450005AE9B7005AC9BF0062E9B70010C0B3001B
:1024600063E9B700D208F8006009F9005809F800DC
:102470006409F9007A11020000000000D2A8B70038
:10248000D208F8006009F900E41102000000000021
:10249000CF02780000000600B0A8AE00BA003700F6
:1024A0005089BF00840C20000400E1002E0032009F
:1024B000C41220000400E10034003200041920009E
:1024C0000400E1003A003200441F20000400E10053
:1024D00040003200842520000400E1004600320064
:1024E000C42B20000400E1004C0032000432200024
:1024F0000400E10052003200443820000400E100F2
:1025000057003200843E20000400E1005C003200ED
:10251000C44420000400E10061003200044B2000AC
:102520000400E10065003200445120000400E10095
:102530006A003200845720000400E1006F0032007E
:10254000C45D20000400E100740032000464200037
:102550000400E1007A003200446A20000400E10037
:10256000800032008800370014002000A44A880050
:1025700024002000B44A88005829EF001E120200EF
:1025800000000000C413040000000000140020003C
:10259000A44A880014002000B44A88005829EF009B
:1025A0001E12020000000000C4130400000000001E
:1025B00024002000A44A880014002000B44A8800A7
:1025C0005829EF001E12020000000000C41304008E
:1025D0000000000024002000A44A880024002000FD
:1025E000B44A88005829EF001E12020000000000C3
:1025F000C41304000000000024002000A44A880046
:1026000034002000B44A88005829EF001E1202004E
:1026100000000000C41304000000000014002000AB
:10262000A44A880034002000B44A88005829EF00EA
:102630001E12020000000000C4130400000000008D
:102640005429EF0034002000B44A88005829EF00D4
:102650001E12020000000000C4130400000000006D
:102660005429EF0024002000B44A88005829EF00C4
:102670001E12020000000000C4130400000000004D
:102680005429EF0014002000B44A88005829EF00B4
:102690001E12020000000000C4130400000000002D
:1026A0005429EF005629EF005829EF001E120200AE
:1026B00000000000C413040000000000140020000B
:1026C000A44A88005629EF005829EF001E12020084
:1026D00000000000C41304000000000024002000DB
:1026E000A44A88005629EF005829EF001E12020064
:1026F00000000000C41304000000000034002000AB
:10270000A44A88005629EF005829EF001E12020043
:1027100000000000C413040000000000340020008A
:10272000A44A880014002000B44A88005829EF0009
:102730001E12020000000000C4130400000000008C
:1027400034002000A44A880024002000B44A8800F5
:102750005829EF001E12020000000000C4130400FC
:102760000000000034002000A44A8800340020004B
:10277000B44A88005829EF001E1202000000000031
:10278000C41304000000000000000600851F78004C
:10279000861F78008F00A900D028EF0010C0B3007A
:1027A000B1E8B70014002000844A8800FC0F020042
:1027B0000000000040062000A60802000000000003
:1027C000409C2000D408B40080027800A54A88000C
:1027D0000E100200000000005029EF00B6080200B1
:1027E00000000000C1E1A800B068A8004A29EF007D
:1027F0004C29EF00B068AE002700370088E0AE003B
:102800002300370088E0A9009410020000000000B7
:10281000B088AF001E003700C088BF00C208B400F7
:10282000C0A8B7000546800006002000050078001B
:1028300086007800D2458000030020003C0F020093
:102840000000000080027800010378004300A90026
:102850000500780086007800027122000300200045
:102860007E0F0200000000004AA9B7004A89BF009D
:102870004C09E300060032004A09F8005009F9004B
:102880004C120200000000004A09F8004C09F9004F
:10289000FA1304000000000040062000A608020011
:1028A000000000005029EF00FC0F020000000000B3
:1028B000030009001C82BF008700A9008F00A80048
:1028C000B0C8A9004F037800CF02780000000600CE
:1028D000851F7800861F7800254A800006002000AA
:1028E00005007800860078000271220003002000B5
:1028F0003C0F020000000000800278000103780015
:102900004300A9000500780086007800D2458000C9
:10291000030020007E0F02000000000046A9B7005F
:10292000B048AE00380037000100200001007800F8
:102930000160EF00DE040200000000008100E800FA
:102940001922AF00FEFF37001AE2B700D0002000C6
:102950000008E600F5FF37004489BF0004002000AE
:1029600016090200000000000101200001007800AB
:102970000160EF00DE040200000000008100E800BA
:102980001922AF00FEFF37001AE2B70090012000C5
:102990000008E600F5FF3700010020000100780084
:1029A0000160EF0006050200000000008100E80061
:1029B0001922AF00FEFF37001AE2B700D000200056
:1029C0000008E600F5FF37004689BF00040020003C
:1029D000160902000000000001012000010078003B
:1029E0000160EF0006050200000000008100E80021
:1029F0001922AF00FEFF37001AE2B700C001200025
:102A00000008E600F5FF3700354A80000600200088
:102A10000500780086007800424680000300200010
:102A20003C0F0200000000008002780001037800E3
:102A3000C688BF00C808B4004300A900860078001B
:102A40000001780003002000050078007E0F0200DE
:102A500000000000CCA8B700CC08E20002003A0059
:102A6000140020006446880064468000D3152000CE
:102A70000418E10018003E00D415200064468800C8
:102A8000D015200001002000324680000300200005
:102A90003C0F020000000000800278000103780073
:102AA0004300A900050078008600780042468000B7
:102AB000030020007E0F020000000000CEA8B70037
:102AC000344A80007346800003005200CAA8B70051
:102AD0007815040000000000344A8000634680003E
:102AE00003005200CAA8B700CC08F800CE08F900CD
:102AF000CA08E20002003A00140020005446880090
:102B0000B048AE0048003700010020000100780006
:102B10000160EF0030050200000000008100E800C5
:102B20001922AF00FEFF37001AE2B7003001200083
:102B30000008E600F5FF3700CC88BF000400200045
:102B400016090200000000001922AF00FEFF370046
:102B5000A0C0B3001AE2B7001922AF00FEFF370091
:102B6000D0C0B3001AE2B7000100200001007800D5
:102B70000160EF0056050200000000008100E8003F
:102B80001922AF00FEFF37001AE2B7003001200023
:102B90000008E600F5FF3700CA88BF0004002000E7
:102BA00016090200000000001922AF00FEFF3700E6
:102BB000A0C0B3001AE2B7001922AF00FEFF370031
:102BC000D0C0B3001AE2B700010020000100780075
:102BD0000160EF007C050200000000008100E800B9
:102BE0001922AF00FEFF37001AE2B70030012000C3
:102BF0000008E600F5FF3700CE88BF000400200083
:102C000016090200000000001922AF00FEFF370085
:102C1000A0C0B3001AE2B7001922AF00FEFF3700D0
:102C2000D0C0B3001AE2B700C613020000000000D3
:102C30004F037800CF02780000000600BC88BF0078
:102C4000F44980000020E10010003600BC08F800C4
:102C50003E09F900B048AE000C003700010020002A
:102C6000010078000160EF00A205020000000000F2
:102C70008100E8001922AF00FEFF37001AE2B7001A
:102C8000800720000008E600F5FF37000100200063
:102C9000010078000160EF00100602000000000053
:102CA0008100E8001922AF00FEFF37001AE2B700EA
:102CB000A00020000008E600F5FF3700C488BF0030
:102CC000F44980000020E1000A00360014002000D2
:102CD000244A8800240F020000000000F44980000C
:102CE000234680000300520040A9B7008816040064
:102CF000000000004429EF00240F02000000000043
:102D000024468000F34980000300520040A9B70028
:102D10004009E20001003A00120037004009F800C3
:102D20004409F90068140200000000003E09F800A0
:102D3000C408F90001002000010078000160EF00E4
:102D400028060200000000008100E8001922AF0000
:102D5000FEFF37001AE2B700D00020000008E600AE
:102D6000F5FF3700000006003E49E2000300320094
:102D7000D2A8EF00C016040000000000D228EF0027
:102D8000D208F8006009F900E41102000000000018
:102D900000000600851F7800010020000100780077
:102DA0000160EF0044060200000000008100E8001E
:102DB0001922AF00FEFF37001AE2B700A000200082
:102DC0000008E600F5FF370010C0B3003EE9B70089
:102DD000B416020000000000C05D2000A60802003A
:102DE00000000000B088A8004429EF00240F020072
:102DF00000000000C408E20008003A00BC88BF00E0
:102E0000BE08B40080027800254A880068140200D9
:102E1000000000001A17040000000000C488BF0072
:102E2000BE08B40080027800254A880068140200B9
:102E300000000000C428EF00C028EF00B088A900FF
:102E400001002000010078000160EF005C06020034
:102E5000000000008100E8001922AF00FEFF3700EB
:102E60001AE2B700D00020000008E600F5FF3700A6
:102E7000CF027800000006003FC9BF0040E9B7005C
:102E80003EC9BF0041E9B700B0E8A80050C7B30091
:102E90000F22AF00FEFF370010E2B7001162EF0013
:102EA000B0E8AF00FEFF3700B0E8A80040C9BF009F
:102EB0000F22AF00FEFF370010E2B7001162EF00F3
:102EC000B0E8AF00FEFF3700B0E8A80041C9BF007E
:102ED0000F22AF00FEFF370010E2B7001162EF00D3
:102EE000B0E8AF00FEFF3700000006003FC9BF009A
:102EF00040E9B7003EC9BF0041E9B700B0E8A8000B
:102F000040C6B3000F22AF00FEFF370010E2B7004B
:102F10001162EF00B0E8AF00FEFF3700B0E8A80094
:102F200040C9BF000F22AF00FEFF370010E2B7001C
:102F30001162EF00B0E8AF00FEFF3700B0E8A80074
:102F400041C9BF000F22AF00FEFF370010E2B700FB
:102F50001162EF00B0E8AF00FEFF3700000006008E
:102F6000B0A8A800007D2000A60802000000000014
:102F7000047D2000F44988001E16020000000000B5
:102F800040062000A6080200000000003E69EF0095
:102F9000B416020000000000C05D2000A608020078
:102FA00000000000B0A8A90000000600851F7800FE
:102FB000861F78001802AE00FEFF3700E010800088
:102FC000D6E8B700D828EF00D6C8BF000160EF00F0
:102FD0001086B200150032002081B2006800320075
:102FE000B080B200B70032000081B20006013200AA
:102FF0008081B200080132004081B2005D013200E0
:103000007080B200780132006081B2009401320019
:103010001080B200E30132006081B200320232005F
:103020000081B20085023200A002370001002000BA
:10303000010078000160EF00780602000000000047
:103040008100E8001922AF00FEFF37001AE2B70046
:10305000700220000008E600F5FF3700D828EF00D6
:10306000C44680006420E10019003100D888BF0008
:103070004100DD00A48D2000840240001802AE0053
:10308000FEFF3700E01080000080FB000160EF00D1
:103090000003B100800A7800D888BF004100DD003D
:1030A000A48D200004004000900278000503B000C9
:1030B000054078001922AF00FEFF37001AE2B70082
:1030C0001B62EF00D828EC0030180400000000005C
:1030D0001922AF00FEFF3700A0C0B3001AE2B7000C
:1030E0001922AF00FEFF3700D0C0B3001AE2B700CC
:1030F000843E2000D34680000320B8008002780080
:1031000044062000E34680000320B800850240000A
:10311000F44680006A20B80085024000050078006F
:10312000E008B400E2A8B700E208E20004003A00B8
:1031300014002000D4458800A418040000000000FA
:10314000E208F800BA08F900010020000100780048
:103150000160EF00AE060200000000008100E80000
:103160001922AF00FEFF37001AE2B700600020000E
:103170000008E600F5FF3700561D040000000000BF
:1031800001002000010078000160EF00C20602008B
:10319000000000008100E8001922AF00FEFF3700A8
:1031A0001AE2B700200220000008E600F5FF370011
:1031B000D828EF00C44680006320E10019003100E8
:1031C000D888BF004100DD00448E2000840240000A
:1031D0001802AE00FEFF3700E01080000080FB0008
:1031E0000160EF000003B100800A7800D888BF00BA
:1031F0004100DD00448E2000040040009002780071
:103200000503B000054078001922AF00FEFF37002B
:103210001AE2B7001B62EF00D828EC00DA180400AD
:10322000000000001922AF00FEFF3700A0C0B3006D
:103230001AE2B7001922AF00FEFF3700D0C0B3007A
:103240001AE2B70044062000234780000320B8009C
:1032500080027800344780006A20B8008502400070
:1032600005007800E808B400EAA8B700EA08E20020
:1032700002003A001400200054478800EA08F800D1
:103280003E09F900D60E02000000000001002000F7
:10329000010078000160EF00AE06020000000000AF
:1032A0008100E8001922AF00FEFF37001AE2B700E4
:1032B000600020000008E600F5FF3700561D0400FE
:1032C0000000000001002000010078000160EF0014
:1032D000F2060200000000008100E8001922AF00A1
:1032E000FEFF37001AE2B700400120000008E600A8
:1032F000F5FF3700D828EF00C44680006420E100C5
:1033000019003100D888BF004100DD00C48E2000C4
:10331000840240001802AE00FEFF3700E01080007B
:103320000080FB000160EF000003B100800A78001C
:10333000D888BF004100DD00C48E2000040040009A
:10334000900278000503B000054078001922AF0014
:10335000FEFF37001AE2B7001B62EF00D828EC002E
:103360007C190400000000001922AF00FEFF3700A6
:10337000A0C0B3001AE2B7001922AF00FEFF370069
:10338000D0C0B3001AE2B700843E2000634780003B
:103390000320B800800278004406200073478000B4
:1033A0000320B80085024000844780006A20B800EE
:1033B0008502400005007800F208B400F4A8B700C8
:1033C000F408F8003E09F9001E1602000000000093
:1033D00001002000010078000160EF00AE0602004D
:1033E000000000008100E8001922AF00FEFF370056
:1033F0001AE2B700600020000008E600F5FF370081
:10340000561D040000000000CA1602000000000063
:10341000561D04000000000001002000010078009B
:103420000160EF0014070200000000008100E800C6
:103430001922AF00FEFF37001AE2B700000120009A
:103440000008E600F5FF37001802AE00FEFF370067
:10345000E01080000080FB000160EF000003B1007D
:10346000F6A8B70004032000B3478000848241001F
:10347000054078001922AF00FEFF37001AE2B700BE
:103480001B62EF001802AE00FEFF3700E010800064
:103490000080FB000160EF000003B100F8A8B70056
:1034A00004032000C3478000848241000540780067
:1034B0001922AF00FEFF37001AE2B7001B62EF00CF
:1034C0001802AE00FEFF3700E01080000080FB0015
:1034D0000160EF000003B100FAA8B7000403200068
:1034E000D347800084824100054078001922AF0054
:1034F000FEFF37001AE2B7001B62EF001922AF008F
:10350000FEFF3700A0C0B3001AE2B7001922AF00D7
:10351000FEFF3700D0C0B3001AE2B700F608F8008B
:103520005409F900F808F8005609F900FA08F800FB
:103530005809F9001E1202000000000001002000DE
:10354000010078000160EF00AE06020000000000FC
:103550008100E8001922AF00FEFF37001AE2B70031
:10356000600020000008E600F5FF3700561D04004B
:103570000000000001002000010078000160EF0061
:1035800032070200000000008100E8001922AF00AD
:10359000FEFF37001AE2B700600120000008E600D5
:1035A000F5FF37003E69EF00B4160200000000008E
:1035B00001002000010078000160EF00AE0602006B
:1035C000000000008100E8001922AF00FEFF370074
:1035D0001AE2B700600020000008E600F5FF37009F
:1035E000561D0400000000000100200001007800CA
:1035F0000160EF0056070200000000008100E800B3
:103600001922AF00FEFF37001AE2B7003001200098
:103610000008E600F5FF370010C0B3003EE9B70030
:10362000B416020000000000010020000100780034
:103630000160EF00AE060200000000008100E8001B
:103640001922AF00FEFF37001AE2B7006000200029
:103650000008E600F5FF3700561D040000000000DA
:1036600001002000010078000160EF0078070200EF
:10367000000000008100E8001922AF00FEFF3700C3
:103680001AE2B700300220000008E600F5FF37001C
:10369000D828EF00C44680006420E1001900310002
:1036A000D888BF004100DD00C48F200084024000A4
:1036B0001802AE00FEFF3700E01080000080FB0023
:1036C0000160EF000003B100800A7800D888BF00D5
:1036D0004100DD00C48F200004004000900278000B
:1036E0000503B000054078001922AF00FEFF370047
:1036F0001AE2B7001B62EF00D828EC004A1B040056
:10370000000000001922AF00FEFF3700A0C0B30088
:103710001AE2B7001922AF00FEFF3700D0C0B30095
:103720001AE2B700843E2000E34780000320B8007F
:103730008002780044062000F34780000320B80090
:1037400085024000044880006A20B80085024000DD
:10375000050078000209B40004A9B7000409F800C4
:103760003E09F9003C1702000000000001002000A3
:10377000010078000160EF00AE06020000000000CA
:103780008100E8001922AF00FEFF37001AE2B700FF
:10379000600020000008E600F5FF3700561D040019
:1037A0000000000001002000010078000160EF002F
:1037B000AA070200000000008100E8001922AF0003
:1037C000FEFF37001AE2B700500220000008E600B2
:1037D000F5FF3700D828EF00C44680006420E100E0
:1037E00019003100D888BF004100DD00649020003E
:1037F000840240001802AE00FEFF3700E010800097
:103800000080FB000160EF000003B100800A780037
:10381000D888BF004100DD00649020000400400013
:10382000900278000503B000054078001922AF002F
:10383000FEFF37001AE2B7001B62EF00D828EC0049
:10384000EC1B0400000000001922AF00FEFF37004F
:10385000A0C0B3001AE2B7001922AF00FEFF370084
:10386000D0C0B3001AE2B700843E20003348800085
:103870000320B800800278004406200043488000FE
:103880000320B80085024000544880006A20B80038
:1038900085024000050078000C09B4000EA9B700AD
:1038A0000E09F8003E09F90076170200000000003A
:1038B00001002000010078000160EF00AE06020068
:1038C000000000008100E8001922AF00FEFF370071
:1038D0001AE2B700600020000008E600F5FF37009C
:1038E000561D0400000000000100200001007800C7
:1038F0000160EF00DE070200000000008100E80028
:103900001922AF00FEFF37001AE2B7008001200045
:103910000008E600F5FF3700D828EF00C446800015
:103920006520E10019003100D888BF004100DD00AA
:1039300004912000840240001802AE00FEFF370010
:10394000E01080000080FB000160EF000003B10088
:10395000800A7800D888BF004100DD000491200073
:1039600004004000900278000503B0000540780094
:103970001922AF00FEFF37001AE2B7001B62EF000A
:10398000D828EC008E1C0400000000001922AF00B3
:10399000FEFF3700A0C0B3001AE2B7001922AF0043
:1039A000FEFF3700D0C0B3001AE2B7000471220056
:1039B000834880000320B80080027800843E200005
:1039C000934880000320B800850240004406200090
:1039D000A34880000320B80085024000B44880005E
:1039E0006A20B80085024000050078001809B4007C
:1039F0001AA9B7001A09F8006009F900E4110200D9
:103A00000000000001002000010078000160EF00CC
:103A1000AE060200000000008100E8001922AF009D
:103A2000FEFF37001AE2B700600020000008E60041
:103A3000F5FF3700561D04000000000001002000C3
:103A4000010078000160EF0004080200000000009F
:103A50008100E8001922AF00FEFF37001AE2B7002C
:103A6000A00020000008E600F5FF3700B0170200B4
:103A70000000000001002000010078000160EF005C
:103A8000AE060200000000008100E8001922AF002D
:103A9000FEFF37001AE2B700600020000008E600D1
:103AA000F5FF3700561D0400000000004F037800AA
:103AB000CF0278000000060081E0A8000400280082
:103AC0006410880004402000741088002400200046
:103AD000A410880004002800B410880004402000CE
:103AE000C410880024002000F4108800B008A90049
:103AF000B028A900B048A90004022000944588001D
:103B0000F43F2000A445880034322000B4458800EA
:103B100044062000C4458800244E2000D445880077
:103B2000047D2000E445880044062000F445880018
:103B3000C028EF001400200014468800C428EF00BD
:103B400084BB20003446880084BB200044468800A3
:103B5000B168EF00CA28EF00CC28EF00CE28EF00B4
:103B6000D028EF00B068A900B088A900B0A8A900CB
:103B7000B0C8A900B0E8A900D228EF00843E200018
:103B8000A4468800A8A2EF000F782200F07F220050
:103B900020A0B700000000004A003700C00608005F
:103BA000000000004BF03F005C0A5800F63B8F001D
:103BB00000C03C008B28AC003CBEF6003FD2D500D4
:103BC00044168C0015D7BF0069005A002E1B8700D1
:103BD000993F9A005FAD4B0091E40100C05D110078
:103BE0002F92E40081FB3F0038DA9100809DC500F0
:103BF000E0BF6F0012C0B400C309AB003F6BC1004F
:103C0000034EC100B545BF00F7400500FF005A0054
:103C1000EF3FF300A3E2F700D7FF010040C0B4007C
:103C2000FF053C0058FC3F003CD3C000B5BA8C00F7
:103C3000E23F3900D3C73D004179B2003F870D0014
:103C40003C50D000AF623F00304B8D00A282AA00F2
:103C500004400900A0404A000576030040EC9E00A5
:103C60003788A60044F03F008F128D00299A5B0030
:103C7000C73F0E00E0807C00A1D886003F294B00A2
:103C8000FB95C200371A3F00000000000201E80067
:103C90006110E10004003A009101BA003182BA00DB
:103CA00006C0BF00000006006210E10002003A00FA
:103CB00007C0BF000000060008C0BF000001EB0005
:103CC000000006000600200000002000900188008F
:103CD000E0DC2100800078000001EB00461E0200BD
:103CE000000000000BE0B700461E020000000000CC
:103CF0000AE0B7000500E0001900320005F0A60058
:103D000007003700461E0200000000000DE0B7006B
:103D1000461E0200000000000CE0B70005F0A10004
:103D200005E0A6000800370005E0A1008502E900D3
:103D3000461E020000000000804378000580090054
:103D4000075B7800E5FF3700461E02000000000018
:103D5000005B78008502E900FBFF3A00DFFF3700D7
:103D6000C4EF2F0034168800CCA2EF00F4F02F002F
:103D70009416880004F82F00C4168800C4FF2F0092
:103D8000F4168800F4F32F0024178800401F200049
:103D9000A6080200000000000100200001007800D9
:103DA0000160EF001C080200000000008100E80034
:103DB0001922AF00FEFF37001AE2B7008002200090
:103DC0000008E600F5FF3700C702A900CB02A800F3
:103DD00004F8210024158800040E2800041588002A
:103DE000B4FF2F0044158800A222EF002400200019
:103DF00034158800CE080200000000000C09020003
:103E000000000000AC0E0200000000008D20A800A1
:103E10008F00A800E442A900E842A900E462A900DA
:103E2000E862A800B0C8AE0007003700B0C8A9001B
:103E3000D617020000000000030009001C82BF002A
:103E40008700A9008F00A800121F040000000000D6
:043E50000040FE0030
:0200000401F009
:10000000008100FF3F0000FF338700FF0F3100FF3A
:0C0010000F3100FF050000FF03C000FFDF
:00000001FF
;DSPIC30F6015
;CRC=7281  CREATED="26-Kas-14 03:29"
