:100000008031A228000020308500113084000008D3
:10001000031917280A30F800F701F70B0D28F80B21
:100020000C285F30F700F70B1328800B0A28080014
:1000300083181D2885013A308400F701F801F90181
:10004000FA01BA01BB01BC01BD013908380437040B
:10005000360403195B282030BE000310B20DB30D27
:10006000B40DB50DBA0DBB0DBC0DBD0D39083D026B
:10007000031D442838083C02031D442837083B026E
:10008000031D442836083A02031C55283608BA02D4
:100090003708031C370FBB023808031C380FBC029B
:1000A0003908031C390FBD020314F70DF80DF90DC3
:1000B000FA0DBE0B2D283A0880003B08813F3C0812
:1000C000823F3D08833F8031EE282030BC00B801DC
:1000D000B901BA01BB013308FA003208F90031084E
:1000E000F8003008F7000310771C84283408B8079C
:1000F00035080318350FB90736080318360FBA0745
:1001000037080318370FBB07BB0CBA0CB90CB80C77
:10011000FA0CF90CF80CF70CBC0B73288031012990
:100120000230B102031CA128203085001130840068
:1001300000080319A1289F289D289E280000800BF5
:100140009C280800850184011F308305F4302100BC
:10015000990027302000A1001030A000A501A401C3
:100160000130A3009030A200A701A601AB01AA01B3
:10017000A901A80123008C018D01220092019101A7
:1001800094019301E03021008C0092308D008C109E
:1001900022008C1021008C1122008C1502302000CE
:1001A000B000FA30B1000320B00BD1280310200DAD
:1001B000F900210DFA007908B0007A08B100831027
:1001C000B5010F30B4004230B3004030B200B90185
:1001D000B8017A08B7007908B60018287808A7008F
:1001E0007708A600B301B2010330B1002030B0009F
:1001F0002508B7002408B6002308B5002208B4007B
:1002000065287A08AB007908AA007808A900770861
:10021000A80021000D1620000D1E442AAF01AE01DA
:10022000AD01AC0121008C1022008C1421008C1136
:1002300022008C1121008D1222008D122000AF01AE
:10024000AE010730AD00D030AC00AF08031D35293A
:10025000AE08031D352927082D02031C6029031D44
:1002600035292C0826020318602921000C102200D1
:100270000C1420002D08B000B00AB0030319442963
:10028000FF30B10090203D292C08B10090202100C2
:100290000C1022000C1020002D08B000B00AB00392
:1002A00003195629FF30B10090204F292C08B100C6
:1002B00090200530AC020030AD3BAE3BAF3B252972
:1002C000AF01AE01AD01AC012F082B02031CA72921
:1002D000031D7A292E082A02031CA729031D7A2947
:1002E0002D082902031CA729031D7A2928082C029E
:1002F0000318A72921000C1022000C142000270845
:10030000B000B00AB00303198929FF30B100902072
:1003100082292608B100902021000C1022000C1028
:1003200020002708B000B00AB00303199B29FF3052
:10033000B100902094292608B10090200130AC072C
:100340000318AD0A0319AE0A0319AF0A6429210084
:100350008D1222008D1602302000B000FA30B1005C
:100360000320B00BAE29AF01AE010730AD00D03095
:10037000AC00AF08031DC929AE08031DC929270811
:100380002D02031CF429031DC9292C082602031879
:10039000F42921000C1022000C1420002D08B000BC
:1003A000B00AB0030319D829FF30B1009020D12939
:1003B0002C08B100902021000C1022000C1020000D
:1003C0002D08B000B00AB0030319EA29FF30B100CC
:1003D0009020E3292C08B10090200530AC020030B9
:1003E000AD3BAE3BAF3BB929AF01AE01AD01AC01B6
:1003F0002F082B02031C3B2A031D0E2A2E082A025B
:10040000031C3B2A031D0E2A2D082902031C3B2A2C
:10041000031D0E2A28082C0203183B2A21000C1069
:1004200022000C1420002708B000B00AB003031902
:100430001D2AFF30B1009020162A2608B100902016
:1004400021000C1022000C1020002708B000B00A78
:10045000B00303192F2AFF30B1009020282A260864
:10046000B10090200130AC070318AD0A0319AE0AA1
:100470000319AF0AF82921008C1122008C152100E4
:0C0480008C1022008C1020000929630061
:020000040001F9
:04000E00440E131277
:00000001FF
;PIC16F1826
;CRC=0E91  CREATED="16-Nis-14 10:51"
