:100000008031622F0000FB0000307A078A007B08F5
:100010000C3E03188A0A820032340A343C340A3413
:100020003C340A343C340A343C340A343C340A3418
:100030003B340A343B340A343A340A343A340A340E
:1000400039340A3439340A3438340A3438340A3406
:1000500037340A3436340A3435340A3434340A3402
:1000600033340A3432340A3431340A3430340A3402
:100070002F340A342E340A342D340A342C340A3402
:100080002A340A3429340A3428340A3426340A3407
:1000900025340A3423340A3422340A3420340A340E
:1000A0001E340A341D340A341B340A3419340A3419
:1000B00017340A3415340A3413340A3411340A3428
:1000C0000F340A340D340A340B340A3409340A3438
:1000D00007340A3405340A3402340A3400340A344A
:1000E000FE340934FB340934F9340934F634093464
:1000F000F4340934F1340934EF340934EC3409347C
:10010000E9340934E6340934E4340934E134093497
:10011000DE340934DB340934D8340934D5340934B5
:10012000D2340934CF340934CC340934C9340934D5
:10013000C6340934C2340934BF340934BC340934F8
:10014000B9340934B5340934B2340934AE3409341D
:10015000AB340934A7340934A4340934A034093445
:100160009D3409349934093495340934923409346E
:100170008E3409348A34093486340934823409349B
:100180007F3409347B3409347734093473340934C7
:100190006F3409346B3409346634093462340934F9
:1001A0005E3409345A34093456340934513409342C
:1001B0004D34093449340934443409344034093461
:1001C0003C34093437340934333409342E34093497
:1001D0002A34093425340934203409341C340934D0
:1001E00017340934123409340E340934093409340B
:1001F00004340934FF340834FA340834F53408344C
:10020000F1340834EC340834E7340834E234083488
:10021000DD340834D8340834D3340834CD340834C9
:10022000C8340834C3340834BE340834B93408340C
:10023000B3340834AE340834A9340834A434083450
:100240009E34083499340834933408348E34083496
:1002500089340834833408347E34083478340834DC
:10026000733408346D340834673408346234083425
:100270005C34083457340834513408344B3408346F
:1002800045340834403408343A34083434340834BB
:100290002E34083428340834233408341D34083408
:1002A00017340834113408340B3408340534083456
:1002B000FF340734F9340734F3340734ED340734AA
:1002C000E7340734E1340734DB340734D4340734FB
:1002D000CE340734C8340734C2340734BC3407344E
:1002E000B6340734AF340734A9340734A3340734A1
:1002F0009D34073496340734903407348A340734F5
:10030000833407347D34073476340734703407344B
:100310006A340734633407345D34073456340734A1
:100320005034073449340734433407343C340734F9
:10033000363407342F340734293407342234073451
:100340001B340734153407340E34073408340734AB
:1003500001340734FA340634F4340634ED34063408
:10036000E6340634DF340634D9340634D234063465
:10037000CB340634C4340634BE340634B7340634C1
:10038000B0340634A9340634A23406349C3406341E
:10039000953406348E34063487340634803406347B
:1003A00079340634733406346C34063465340634D8
:1003B0005E34063457340634503406344934063437
:1003C000423406343B340634343406342D34063497
:1003D000263406341F3406341834063411340634F7
:1003E0000A34063403340634FC340534F534053459
:1003F000EE340534E7340534E0340534D9340534BB
:10040000D2340534CB340534C4340534BD3405341A
:10041000B6340534AF340534A8340534A13405347A
:100420009A340534933405348C34053485340534DA
:100430007E340534763405346F340534683405343D
:10044000613405345A340534533405344C3405349E
:10045000453405343E3405343734053430340534FE
:1004600028340534213405341A3405341334053462
:100470000C34053405340534FE340434F7340434C4
:10048000F0340434E9340434E2340434DB34043426
:10049000D3340434CC340434C5340434BE3404348A
:1004A000B7340434B0340434A9340434A2340434EA
:1004B0009B340434943404348D340434863404344A
:1004C0007F34043478340434713404346A340434AA
:1004D000633404345C340434553404344E3404340A
:1004E000473404344034043439340434323404346A
:1004F0002B340434243404341D34043416340434CA
:100500000F3404340834043401340434FA3403342A
:10051000F3340334EC340334E5340334DE3403348D
:10052000D8340334D1340334CA340334C3340334E9
:10053000BC340334B5340334AF340334A834033447
:10054000A13403349A340334933403348D340334A4
:10055000863403347F340334783403347234033400
:100560006B340334643403345D340334573403345C
:100570005034033449340334433403343C340334B7
:10058000363403342F340334283403342234033410
:100590001B340334153403340E3403340834033469
:1005A00001340334FB340234F4340234EE340234C4
:1005B000E7340234E1340234DB340234D43402341C
:1005C000CE340234C7340234C1340234BB34023472
:1005D000B4340234AE340234A8340234A2340234C7
:1005E0009B340234953402348F340234893402341B
:1005F000833402347D34023476340234703402346D
:100600006A340234643402345E34023458340234BE
:10061000523402344C34023446340234403402340E
:100620003A340234343402342E340234293402345D
:10063000233402341D3402341734023411340234AA
:100640000C3402340634023400340234FA340134F7
:10065000F5340134EF340134EA340134E434013444
:10066000DE340134D9340134D3340134CE3401348E
:10067000C8340134C3340134BE340134B8340134D5
:10068000B3340134AD340134A8340134A33401341B
:100690009E34013498340134933401348E3401345F
:1006A00089340134843401347E34013479340134A2
:1006B000743401346F3401346A34013465340134E4
:1006C000603401345C340134573401345234013421
:1006D0004D34013448340134433401343F3401345F
:1006E0003A34013435340134313401342C3401349A
:1006F00027340134233401341E3401341A340134D4
:1007000015340134113401340D340134083401340A
:100710000434013400340134FB340034F734003441
:10072000F3340034EF340034EB340034E634003476
:10073000E2340034DE340034DA340034D6340034A9
:10074000D2340034CF340034CB340034C7340034D6
:10075000C3340034BF340034BC340034B834003403
:10076000B4340034B1340034AD340034AA3400342D
:10077000A6340034A33400349F3400349C34003455
:100780009834003495340034923400348F3400347B
:100790008B3400348834003485340034823400349F
:1007A0007F3400347C3400347934003476340034BF
:1007B00073340034703400346D3400346B340034DE
:1007C00068340034653400346234003460340034FA
:1007D0005D3400345B340034583400345634003413
:1007E00053340034513400344F3400344C3400342A
:1007F0004A3400344834003446340034443400343D
:1008000042340034403400343E3400343C3400344C
:100810003A3400343834003436340034343400345C
:1008200033340034313400342F3400342E34003467
:100830002C3400342B340034293400342834003470
:100840002734003425340034243400342334003475
:100850002234003421340034203400341F34003476
:100860001E3400341D3400341C3400341B34003476
:100870001A34003419340034193400341834003474
:10088000183400341734003417340034163400346C
:100890001634003415340034153400341534003463
:1008A0001534003415340034153400341434003455
:1008B0002030850018308400000803196C2C0A30A1
:1008C000F800F701F70B622CF80B612C5F30F70092
:1008D000F70B682C800B5F2C080022001D179D165B
:1008E000803120007F2F24009512151295111511CB
:1008F0009514151094131417951680312000802F2D
:1009000021008C1322008C1321008C1022008C10EB
:1009100080312000812F330BB32C21008C13220057
:100920008C170C302000B4001930B500240092015F
:1009300020003408240091002000911D9D2C91116D
:100940002400920120003508240091002000911D10
:10095000A72C911121008C1322008C130A30200047
:10096000B8005824DB2CB308031DDB2C21008C13AA
:1009700022008C170C302000B6001830B70024007D
:10098000920120003608240091002000911DC62C01
:1009900091112400920120003708240091002000CA
:1009A000911DD02C911121008C1322008C130A3040
:1009B0002000B80058240800B3018B2421000C1239
:1009C00022000C1621000C1022000C1421008C13A4
:1009D00022008C170C302000A3001830A400240043
:1009E000920120002308240091002000911DF62C84
:1009F000911124009201200024082400910020007D
:100A0000911D002D911121008C1322008C130A30AE
:100A10002000B800582421008C1322008C171030BD
:100A20002000A500B730A600240092012000250870
:100A3000240091002000911D1B2D91112400920192
:100A400020002608240091002000911D252D9111E1
:100A500021008C1322008C130A302000B800582487
:100A600021008C1322008C1720302000A700793041
:100A7000A8002400920120002708240091002000F3
:100A8000911D402D9111240092012000280824007E
:100A900091002000911D4A2D911121008C132200FC
:100AA0008C130A302000B800582421008C13220037
:100AB0008C1731302000A9009630AA002400920142
:100AC00020002908240091002000911D652D91111E
:100AD0002400920120002A08240091002000911D8A
:100AE0006F2D911121008C1322008C130A302000ED
:100AF000B800582421008C1322008C1745302000A8
:100B0000AB001C30AC002400920120002B08240014
:100B100091002000911D8A2D911124009201200046
:100B20002C08240091002000911D942D911121008A
:100B30008C1322008C130A302000B80058242100A6
:100B40008C1322008C1759302000AD001430AE00F9
:100B50002400920120002D08240091002000911D06
:100B6000AF2D91112400920120002E082400910045
:100B70002000911DB92D911121008C1322008C139E
:100B80000A302000B800582421008C1322008C1752
:100B90006A302000AF00A030B00024009201200095
:100BA0002F08240091002000911DD42D91112400C4
:100BB000920120003008240091002000911DDE2DBC
:100BC000911121008C1322008C130A302000B800F0
:100BD000582421008C1322008C1770302000B100A3
:100BE000B20124009201200031082400910020006D
:100BF000911DF82D9111240092012000320824004B
:100C000091002000911D022E911121008C132200D1
:100C10008C130A302000B80058246430B8005824DF
:100C20008031822F6400A90803191A2E22000C12A9
:100C30001C2E200022000C1621000C12200008009F
:100C40000230AC02031C312E203085000C308400B1
:100C500000080319312E2F2E2D2E2E2E0000800B72
:100C60002C2E0800A401A301A601A5012710013024
:100C7000A800A8080319772E21000C1520000C1DD0
:100C8000552EA801B3018B240430A900FA30B80016
:100C90005824A90B462E0130B3008B240430A90040
:100CA000FA30B8005824A90B502E21000C15200052
:100CB0000C19612E2718612EA90112260130A200FD
:100CC000762E21000C1520000C1D762E271C762E6A
:100CD000A20803196F2E2208023C031D722E033056
:100CE000A200762E220B762E0430A200B32E210015
:100CF0008C1520008C1D912E0130A800B3018B248F
:100D00000430A900FA30B8005824A90B822E013013
:100D1000B3008B240430A900FA30B8005824A90B82
:100D20008C2E21008C1520008C199E2E27189E2EAB
:100D30000130A90012260130A200B32E21008C152B
:100D400020008C1DB32E271CB32EA2080319AC2E35
:100D50002208023C031DAF2E0330A200B32E220B4B
:100D6000B32E0430A2002208FB3E03182E2F053EAE
:100D7000592FA30A0319A40A230BCA2EA408031D82
:100D8000CA2E27140130B3008B240A30A60032305B
:100D9000A500D42E23080A3C031DD42EA408031D4D
:100DA000D42EA401A301A2012E2F2308253C031D4C
:100DB000DF2E2408023C031DDF2E0230A2000310A8
:100DC000230DF900240DFA007908A9000320F7008B
:100DD000290A0320FA007708A5007A08A600A30ACA
:100DE0000319A40A2E2F01302302A9000030243B4E
:100DF000AA000310290DF9002A0DFA007908A900AC
:100E00000320F700290A0320FA007708A5007A08D2
:100E1000A6002E2F23080319A403A30B142FA40844
:100E2000031D142F0430A2000310230DF900240D1C
:100E3000FA007908A9000320F700290A0320FA0024
:100E40007708A5007A08A6002E2F271C2E2F271022
:100E5000A601A501A401A301B3018B24271C562FD1
:100E60001A30F700F70B322F000021000C1022007F
:100E70000C100A3020002502A9000030263BAA00F1
:100E80000E30A9070030AA3D2A08AB00AB0AAB031D
:100E900003194E2FFF30AC002026472F2908AC0045
:100EA000202621000C1022000C142000392E803145
:100EB000832F0A148A140A158207D52EB92EF32E11
:100EC0000A2F252FF030210099002000A101A00158
:100ED0000430A20023008C018D01220092019101B7
:100EE000940193012C306500CF3066000230200061
:100EF000A300FA30B8005824A30B792F6D2C732C63
:080F0000802CDC2C322E630072
:020000040001F9
:04000E00440EFF1A83
:00000001FF
;PIC16F1826
;CRC=1FF1  CREATED="10-Eki-14 15:48"
